{
  "abi": [
    {
      "inputs": [
        {
          "internalType": "address",
          "name": "pythPriceFeedAddress",
          "type": "address"
        },
        {
          "internalType": "address",
          "name": "tokenCollateralAddress",
          "type": "address"
        },
        {
          "internalType": "uint256",
          "name": "openFeePercentage",
          "type": "uint256"
        },
        {
          "internalType": "uint256",
          "name": "closingFeePercentage",
          "type": "uint256"
        },
        {
          "internalType": "uint256",
          "name": "baseBorrowFeePercentage",
          "type": "uint256"
        },
        {
          "internalType": "bytes32[]",
          "name": "pairPriceFeedAddressId",
          "type": "bytes32[]"
        },
        {
          "internalType": "uint256[]",
          "name": "pairIndex",
          "type": "uint256[]"
        },
        {
          "internalType": "string[]",
          "name": "pairSymbol",
          "type": "string[]"
        }
      ],
      "stateMutability": "nonpayable",
      "type": "constructor"
    },
    {
      "inputs": [],
      "name": "OrderBook__InvalidOrderType",
      "type": "error"
    },
    {
      "inputs": [],
      "name": "OrderBook__InvalidTradingPair",
      "type": "error"
    },
    {
      "inputs": [],
      "name": "OrderBook__MaxLeverageIs150",
      "type": "error"
    },
    {
      "inputs": [],
      "name": "OrderBook__MaxNumberOfOpenTrades3Reached",
      "type": "error"
    },
    {
      "inputs": [],
      "name": "OrderBook__NeedsMoreThanZero",
      "type": "error"
    },
    {
      "inputs": [],
      "name": "OrderBook__ParameterArraysMustBeTheSameLength",
      "type": "error"
    },
    {
      "inputs": [],
      "name": "OrderBook__TransferFailed",
      "type": "error"
    },
    {
      "inputs": [],
      "name": "OrderBook__UserClosingNonExistingPosition",
      "type": "error"
    },
    {
      "inputs": [],
      "name": "OrderBook__UserPositionNotOpenForLiquidation",
      "type": "error"
    },
    {
      "anonymous": false,
      "inputs": [
        {
          "indexed": true,
          "internalType": "address",
          "name": "user",
          "type": "address"
        },
        {
          "indexed": true,
          "internalType": "uint256",
          "name": "pairIndex",
          "type": "uint256"
        }
      ],
      "name": "MarketTrade",
      "type": "event"
    },
    {
      "anonymous": false,
      "inputs": [
        {
          "indexed": true,
          "internalType": "address",
          "name": "user",
          "type": "address"
        },
        {
          "indexed": true,
          "internalType": "uint256",
          "name": "pairIndex",
          "type": "uint256"
        },
        {
          "indexed": true,
          "internalType": "int256",
          "name": "userPNL",
          "type": "int256"
        }
      ],
      "name": "OrderClosed",
      "type": "event"
    },
    {
      "anonymous": false,
      "inputs": [
        {
          "indexed": true,
          "internalType": "address",
          "name": "previousOwner",
          "type": "address"
        },
        {
          "indexed": true,
          "internalType": "address",
          "name": "newOwner",
          "type": "address"
        }
      ],
      "name": "OwnershipTransferred",
      "type": "event"
    },
    {
      "anonymous": false,
      "inputs": [
        {
          "indexed": true,
          "internalType": "address",
          "name": "user",
          "type": "address"
        },
        {
          "indexed": false,
          "internalType": "uint256",
          "name": "pairIndex",
          "type": "uint256"
        },
        {
          "indexed": false,
          "internalType": "int256",
          "name": "userPNL",
          "type": "int256"
        }
      ],
      "name": "UserLiquidated",
      "type": "event"
    },
    {
      "inputs": [
        {
          "internalType": "uint256",
          "name": "pairIndex",
          "type": "uint256"
        }
      ],
      "name": "getAssetPairDetails",
      "outputs": [
        {
          "components": [
            {
              "internalType": "bytes32",
              "name": "pythPriceFeedAddress",
              "type": "bytes32"
            },
            {
              "internalType": "uint256",
              "name": "assetTotalShorts",
              "type": "uint256"
            },
            {
              "internalType": "uint256",
              "name": "assetTotalLongs",
              "type": "uint256"
            },
            {
              "internalType": "uint256[]",
              "name": "longShortRatio",
              "type": "uint256[]"
            },
            {
              "internalType": "uint256[]",
              "name": "time",
              "type": "uint256[]"
            },
            {
              "internalType": "string",
              "name": "pairSymbol",
              "type": "string"
            }
          ],
          "internalType": "struct OrderBook.AssetPairDetails",
          "name": "",
          "type": "tuple"
        }
      ],
      "stateMutability": "view",
      "type": "function"
    },
    {
      "inputs": [],
      "name": "getAssetPairIndexSymbol",
      "outputs": [
        {
          "internalType": "string[]",
          "name": "",
          "type": "string[]"
        }
      ],
      "stateMutability": "view",
      "type": "function"
    },
    {
      "inputs": [],
      "name": "getPythPriceFeedAddress",
      "outputs": [
        {
          "internalType": "address",
          "name": "",
          "type": "address"
        }
      ],
      "stateMutability": "view",
      "type": "function"
    },
    {
      "inputs": [],
      "name": "getTokenCollateralAddress",
      "outputs": [
        {
          "internalType": "address",
          "name": "",
          "type": "address"
        }
      ],
      "stateMutability": "view",
      "type": "function"
    },
    {
      "inputs": [
        {
          "internalType": "uint256",
          "name": "pairIndex",
          "type": "uint256"
        }
      ],
      "name": "getTotalLongAmount",
      "outputs": [
        {
          "internalType": "uint256",
          "name": "",
          "type": "uint256"
        }
      ],
      "stateMutability": "view",
      "type": "function"
    },
    {
      "inputs": [
        {
          "internalType": "uint256",
          "name": "pairIndex",
          "type": "uint256"
        }
      ],
      "name": "getTotalShortAmount",
      "outputs": [
        {
          "internalType": "uint256",
          "name": "",
          "type": "uint256"
        }
      ],
      "stateMutability": "view",
      "type": "function"
    },
    {
      "inputs": [
        {
          "internalType": "bytes[]",
          "name": "priceUpdateData",
          "type": "bytes[]"
        },
        {
          "internalType": "uint256",
          "name": "pairIndex",
          "type": "uint256"
        }
      ],
      "name": "getTradingPairCurrentPrice",
      "outputs": [
        {
          "components": [
            {
              "internalType": "int64",
              "name": "price",
              "type": "int64"
            },
            {
              "internalType": "uint64",
              "name": "conf",
              "type": "uint64"
            },
            {
              "internalType": "int32",
              "name": "expo",
              "type": "int32"
            },
            {
              "internalType": "uint256",
              "name": "publishTime",
              "type": "uint256"
            }
          ],
          "internalType": "struct PythStructs.Price",
          "name": "",
          "type": "tuple"
        }
      ],
      "stateMutability": "payable",
      "type": "function"
    },
    {
      "inputs": [
        {
          "internalType": "address",
          "name": "user",
          "type": "address"
        },
        {
          "internalType": "uint256",
          "name": "assetPairIndex",
          "type": "uint256"
        },
        {
          "internalType": "uint256",
          "name": "openTradeIdForPair",
          "type": "uint256"
        }
      ],
      "name": "getUserLiquidationPrice",
      "outputs": [
        {
          "internalType": "int256",
          "name": "liquidationPrice",
          "type": "int256"
        }
      ],
      "stateMutability": "view",
      "type": "function"
    },
    {
      "inputs": [
        {
          "internalType": "address",
          "name": "user",
          "type": "address"
        },
        {
          "internalType": "uint256",
          "name": "pairIndex",
          "type": "uint256"
        }
      ],
      "name": "getUserOpenTradesForAsset",
      "outputs": [
        {
          "internalType": "uint256",
          "name": "",
          "type": "uint256"
        }
      ],
      "stateMutability": "view",
      "type": "function"
    },
    {
      "inputs": [
        {
          "internalType": "address",
          "name": "user",
          "type": "address"
        },
        {
          "internalType": "uint256",
          "name": "tradeIndex",
          "type": "uint256"
        },
        {
          "internalType": "uint256",
          "name": "openTradesIdForPair",
          "type": "uint256"
        }
      ],
      "name": "getUserTradingPositionDetails",
      "outputs": [
        {
          "components": [
            {
              "internalType": "uint256",
              "name": "pairNumber",
              "type": "uint256"
            },
            {
              "internalType": "uint64",
              "name": "openPrice",
              "type": "uint64"
            },
            {
              "internalType": "uint256",
              "name": "collateralAfterFee",
              "type": "uint256"
            },
            {
              "internalType": "uint256",
              "name": "leverage",
              "type": "uint256"
            },
            {
              "internalType": "uint256",
              "name": "longShort",
              "type": "uint256"
            },
            {
              "internalType": "uint256",
              "name": "openTime",
              "type": "uint256"
            },
            {
              "internalType": "uint256",
              "name": "indexBorrowPercentArray",
              "type": "uint256"
            }
          ],
          "internalType": "struct OrderBook.PositionDetails",
          "name": "",
          "type": "tuple"
        }
      ],
      "stateMutability": "view",
      "type": "function"
    },
    {
      "inputs": [
        {
          "internalType": "address",
          "name": "user",
          "type": "address"
        },
        {
          "internalType": "uint256",
          "name": "tradeIndex",
          "type": "uint256"
        },
        {
          "internalType": "uint256",
          "name": "userTradesIdForPair",
          "type": "uint256"
        },
        {
          "internalType": "bytes[]",
          "name": "priceUpdateData",
          "type": "bytes[]"
        }
      ],
      "name": "liquidateUser",
      "outputs": [],
      "stateMutability": "nonpayable",
      "type": "function"
    },
    {
      "inputs": [
        {
          "internalType": "uint256",
          "name": "pairIndex",
          "type": "uint256"
        },
        {
          "internalType": "uint256",
          "name": "amountCollateral",
          "type": "uint256"
        },
        {
          "internalType": "uint256",
          "name": "leverage",
          "type": "uint256"
        },
        {
          "internalType": "uint256",
          "name": "orderType",
          "type": "uint256"
        },
        {
          "internalType": "bytes[]",
          "name": "priceUpdateData",
          "type": "bytes[]"
        }
      ],
      "name": "marketOrder",
      "outputs": [],
      "stateMutability": "payable",
      "type": "function"
    },
    {
      "inputs": [
        {
          "internalType": "uint256",
          "name": "tradeIndex",
          "type": "uint256"
        },
        {
          "internalType": "uint256",
          "name": "userTradesIdForPair",
          "type": "uint256"
        },
        {
          "internalType": "bytes[]",
          "name": "priceUpdateData",
          "type": "bytes[]"
        }
      ],
      "name": "orderClose",
      "outputs": [],
      "stateMutability": "nonpayable",
      "type": "function"
    },
    {
      "inputs": [],
      "name": "owner",
      "outputs": [
        {
          "internalType": "address",
          "name": "",
          "type": "address"
        }
      ],
      "stateMutability": "view",
      "type": "function"
    },
    {
      "inputs": [],
      "name": "renounceOwnership",
      "outputs": [],
      "stateMutability": "nonpayable",
      "type": "function"
    },
    {
      "inputs": [
        {
          "internalType": "address",
          "name": "newOwner",
          "type": "address"
        }
      ],
      "name": "transferOwnership",
      "outputs": [],
      "stateMutability": "nonpayable",
      "type": "function"
    }
  ],
  "bytecode": {
    "object": "0x60806040523480156200001157600080fd5b50604051620024c7380380620024c78339810160408190526200003491620003d4565b6001600055620000443362000178565b8151835114620000675760405163f102e13760e01b815260040160405180910390fd5b80518251146200008a5760405163f102e13760e01b815260040160405180910390fd5b600380546001600160a01b03808a166001600160a01b031992831617909255600488905560058790556006869055845160075560028054928b169290911691909117905560005b83518110156200016957838181518110620000f057620000f0620004aa565b60200260200101516008600083815260200190815260200160002060000181905550818181518110620001275762000127620004aa565b60200260200101516008600083815260200190815260200160002060050190816200015391906200054f565b508062000160816200061b565b915050620000d1565b50505050505050505062000643565b600180546001600160a01b038381166001600160a01b0319831681179093556040519116919082907f8be0079c531659141344cd1fd0a4f28419497f9722a3daafe3b4186f6b6457e090600090a35050565b80516001600160a01b0381168114620001e257600080fd5b919050565b634e487b7160e01b600052604160045260246000fd5b604051601f8201601f191681016001600160401b0381118282101715620002285762000228620001e7565b604052919050565b60006001600160401b038211156200024c576200024c620001e7565b5060051b60200190565b600082601f8301126200026857600080fd5b81516020620002816200027b8362000230565b620001fd565b82815260059290921b84018101918181019086841115620002a157600080fd5b8286015b84811015620002be5780518352918301918301620002a5565b509695505050505050565b6000601f8381840112620002dc57600080fd5b82516020620002ef6200027b8362000230565b82815260059290921b850181019181810190878411156200030f57600080fd5b8287015b84811015620003c85780516001600160401b0380821115620003355760008081fd5b818a0191508a603f8301126200034b5760008081fd5b8582015181811115620003625762000362620001e7565b62000375818a01601f19168801620001fd565b915080825260408c818386010111156200038f5760008081fd5b60005b82811015620003af578481018201518482018a0152880162000392565b5050600090820187015284525091830191830162000313565b50979650505050505050565b600080600080600080600080610100898b031215620003f257600080fd5b620003fd89620001ca565b97506200040d60208a01620001ca565b60408a015160608b015160808c015160a08d0151939a50919850965094506001600160401b03808211156200044157600080fd5b6200044f8c838d0162000256565b945060c08b01519150808211156200046657600080fd5b620004748c838d0162000256565b935060e08b01519150808211156200048b57600080fd5b506200049a8b828c01620002c9565b9150509295985092959890939650565b634e487b7160e01b600052603260045260246000fd5b600181811c90821680620004d557607f821691505b602082108103620004f657634e487b7160e01b600052602260045260246000fd5b50919050565b601f8211156200054a57600081815260208120601f850160051c81016020861015620005255750805b601f850160051c820191505b81811015620005465782815560010162000531565b5050505b505050565b81516001600160401b038111156200056b576200056b620001e7565b62000583816200057c8454620004c0565b84620004fc565b602080601f831160018114620005bb5760008415620005a25750858301515b600019600386901b1c1916600185901b17855562000546565b600085815260208120601f198616915b82811015620005ec57888601518255948401946001909101908401620005cb565b50858210156200060b5787850151600019600388901b60f8161c191681555b5050505050600190811b01905550565b6000600182016200063c57634e487b7160e01b600052601160045260246000fd5b5060010190565b611e7480620006536000396000f3fe6080604052600436106100f35760003560e01c8063a829f21d1161008a578063d928e33611610059578063d928e33614610346578063ee9387de14610366578063f2fde38b14610388578063fa794403146103a857600080fd5b8063a829f21d14610259578063b0a8807514610289578063c01646cb14610308578063ca3e82571461032657600080fd5b80634fae32e7116100c65780634fae32e7146101aa5780636719fe6e146101ff578063715018a6146102125780638da5cb5b1461022757600080fd5b80630188d579146100f8578063061ff1f01461013b5780631b5042ac1461015b5780634c70fb6d14610188575b600080fd5b34801561010457600080fd5b5061012861011336600461173c565b60009081526008602052604090206001015490565b6040519081526020015b60405180910390f35b34801561014757600080fd5b50610128610156366004611771565b6103c6565b34801561016757600080fd5b5061017b61017636600461173c565b6103f1565b604051610132919061181c565b34801561019457600080fd5b506101a86101a33660046118e6565b6105a6565b005b6101bd6101b836600461194d565b6107a6565b6040516101329190815160070b81526020808301516001600160401b03169082015260408083015160030b908201526060918201519181019190915260800190565b6101a861020d366004611998565b610934565b34801561021e57600080fd5b506101a8610a83565b34801561023357600080fd5b506001546001600160a01b03165b6040516001600160a01b039091168152602001610132565b34801561026557600080fd5b5061012861027436600461173c565b60009081526008602052604090206002015490565b34801561029557600080fd5b506102a96102a4366004611a01565b610a97565b6040516101329190600060e082019050825182526001600160401b03602084015116602083015260408301516040830152606083015160608301526080830151608083015260a083015160a083015260c083015160c083015292915050565b34801561031457600080fd5b506002546001600160a01b0316610241565b34801561033257600080fd5b50610128610341366004611a01565b610b67565b34801561035257600080fd5b506101a8610361366004611a34565b610cc9565b34801561037257600080fd5b5061037b610e83565b6040516101329190611a86565b34801561039457600080fd5b506101a86103a3366004611ae8565b610fb4565b3480156103b457600080fd5b506003546001600160a01b0316610241565b6001600160a01b0382166000908152600a602090815260408083208484529091529020545b92915050565b61042d6040518060c001604052806000801916815260200160008152602001600081526020016060815260200160608152602001606081525090565b600082815260086020908152604091829020825160c0810184528154815260018201548184015260028201548185015260038201805485518186028101860190965280865291949293606086019392908301828280156104ac57602002820191906000526020600020905b815481526020019060010190808311610498575b505050505081526020016004820180548060200260200160405190810160405280929190818152602001828054801561050457602002820191906000526020600020905b8154815260200190600101908083116104f0575b5050505050815260200160058201805461051d90611b03565b80601f016020809104026020016040519081016040528092919081815260200182805461054990611b03565b80156105965780601f1061056b57610100808354040283529160200191610596565b820191906000526020600020905b81548152906001019060200180831161057957829003601f168201915b5050505050815250509050919050565b6001600160a01b038516600090815260096020908152604080832087845282528083208684529091528120600101548691869186916001600160401b03909116900361060557604051638177d6b960e01b815260040160405180910390fd5b61060d611032565b6001600160a01b03881660009081526009602090815260408083208a845282528083208984528252808320815160e0810183528154815260018201546001600160401b0316938101939093526002810154918301919091526003810154606083015260048101546080830152600581015460a08301526006015460c08201529061069a33838a8a8a61108b565b905060008113610777576001600160a01b038a1660008181526009602090815260408083208651845282528083208c8452825280832083815560018101805467ffffffffffffffff1916905560028101849055600381018490556004810184905560058101849055600601839055928252600a815282822085518352905290812080549161072783611b4d565b9091555050815160408051918252602082018390526001600160a01b038c16917f7b53f2d174e631910484a595481b3fa1241c3898438889011e61f81437492760910160405180910390a2610790565b60405163ae945bf560e01b815260040160405180910390fd5b505061079c6001600055565b5050505050505050565b60408051608081018252600080825260208201819052918101829052606081019190915260025460405163d47eed4560e01b81526000916001600160a01b03169063d47eed45906107fd9088908890600401611b8d565b602060405180830381865afa15801561081a573d6000803e3d6000fd5b505050506040513d601f19601f8201168201806040525081019061083e9190611c28565b600254604051631df3cbc560e31b81529192506001600160a01b03169063ef9e5e289083906108739089908990600401611b8d565b6000604051808303818588803b15801561088c57600080fd5b505af11580156108a0573d6000803e3d6000fd5b5050600254600087815260086020526040908190205490516331d98b3f60e01b81526001600160a01b0390921694506331d98b3f93506108e892509060040190815260200190565b608060405180830381865afa158015610905573d6000803e3d6000fd5b505050506040513d601f19601f820116820180604052508101906109299190611c80565b9150505b9392505050565b8484811580610941575080155b1561095f57604051637018737760e11b815260040160405180910390fd5b60008881526008602052604081205489910361098d57604051621bca5160e61b815260040160405180910390fd5b336000818152600a602090815260408083208d84529091529020548a906003116109ca576040516306152e2f60e11b815260040160405180910390fd5b8860968111156109ed57604051635694d08560e11b815260040160405180910390fd5b8880158015906109fe575080600114155b15610a1c576040516302763ae360e11b815260040160405180910390fd5b610a24611032565b610a2e338d6111ce565b610a3d338e8e8e8e8e8e611271565b6040518d9033907f02c61321c808585dc6593befb37f9909ee37888b439a1990c568e475dddb765590600090a3610a746001600055565b50505050505050505050505050565b610a8b61145f565b610a9560006114b9565b565b610ae06040518060e001604052806000815260200160006001600160401b0316815260200160008152602001600081526020016000815260200160008152602001600081525090565b506001600160a01b03929092166000908152600960209081526040808320938352928152828220938252928352819020815160e0810183528154815260018201546001600160401b0316938101939093526002810154918301919091526003810154606083015260048101546080830152600581015460a08301526006015460c082015290565b6001600160a01b038316600090815260096020908152604080832085845282528083208484528252808320815160e0810183528154815260018201546001600160401b0316938101939093526002810154918301919091526003810154606083015260048101546080830152600581015460a08301526006015460c082015281610bf286868661150b565b9050600082606001518360400151610c0a9190611d0f565b60a0840151610c199042611d26565b610c239084611d39565b610c2d9190611d39565b90508260800151600003610c7c578083602001516001600160401b0316610c549190611d69565b83606001518460400151610c689190611d90565b610c729190611d69565b935050505061092d565b8260800151600103610cbf578083602001516001600160401b0316610ca19190611d69565b83606001518460400151610cb59190611d90565b610c729190611db2565b5050509392505050565b3360008181526009602090815260408083208884528252808320878452909152812060010154869186916001600160401b03169003610d1b57604051638177d6b960e01b815260040160405180910390fd5b610d23611032565b3360008181526009602090815260408083208b845282528083208a84528252808320815160e0810183528154815260018201546001600160401b0316938101939093526002810154918301919091526003810154606083015260048101546080830152600581015460a08301526006015460c082015291610da790838a8a8a61108b565b3360008181526009602090815260408083208751845282528083208d8452825280832083815560018101805467ffffffffffffffff1916905560028101849055600381018490556004810184905560058101849055600601839055928252600a8152828220865183529052908120805492935090610e2483611b4d565b919050555060008112610e3e5780610e3c33826111ce565b505b815160405182919033907f0aeb415d14b250a0912d0b18da299753b6ff90cbeb9fa65f2d75b0dd3fe712b290600090a45050610e7a6001600055565b50505050505050565b606060006007546001600160401b03811115610ea157610ea1611c41565b604051908082528060200260200182016040528015610ed457816020015b6060815260200190600190039081610ebf5790505b50905060005b600754811015610fae5760008181526008602052604090206005018054610f0090611b03565b80601f0160208091040260200160405190810160405280929190818152602001828054610f2c90611b03565b8015610f795780601f10610f4e57610100808354040283529160200191610f79565b820191906000526020600020905b815481529060010190602001808311610f5c57829003601f168201915b5050505050828281518110610f9057610f90611dda565b60200260200101819052508080610fa690611df0565b915050610eda565b50919050565b610fbc61145f565b6001600160a01b0381166110265760405162461bcd60e51b815260206004820152602660248201527f4f776e61626c653a206e6577206f776e657220697320746865207a65726f206160448201526564647265737360d01b60648201526084015b60405180910390fd5b61102f816114b9565b50565b6002600054036110845760405162461bcd60e51b815260206004820152601f60248201527f5265656e7472616e637947756172643a207265656e7472616e742063616c6c00604482015260640161101d565b6002600055565b60008061109d848488600001516107a6565b905060006110b08888600001518861150b565b905060008760a00151426110c49190611d26565b604089015160608a01516110d89085611d39565b6110e29190611d39565b6110ec9190611d39565b9050600080846000015160070b8a602001516001600160401b03166111119190611d69565b9050896080015160000361115b578960400151818b606001516111349190611d39565b61113e9190611d39565b838b6040015161114e9190611d69565b6111589190611d69565b91505b89608001516001036111a3578960400151818b6060015161117c9190611d39565b6111869190611d39565b838b604001516111969190611d69565b6111a09190611db2565b91505b6111b58a604001518b606001516116a7565b6111bf9083611d69565b9b9a5050505050505050505050565b6003546040516323b872dd60e01b81526001600160a01b0384811660048301523060248301526044820184905260009216906323b872dd906064016020604051808303816000875af1158015611228573d6000803e3d6000fd5b505050506040513d601f19601f8201168201806040525081019061124c9190611e09565b90508061126c57604051630c74658f60e01b815260040160405180910390fd5b505050565b600061127d86866116a7565b6112879087611d26565b6001600160a01b0389166000908152600a602090815260408083208b845290915281208054929350906112b983611df0565b909155506112d3905084886112ce8885611d0f565b6116da565b600087815260086020908152604082206004810180546001818101835591855292842042930192909255918990528082015460039092019161131491611e2b565b6000898152600860205260409020600201546113309190611d90565b8154600181018355600092835260208320015561134e84848a6107a6565b90506040518060e0016040528089815260200182600001516001600160401b03168152602001838152602001878152602001868152602001826060015181526020016001600860008c8152602001908152602001600020600401805490506113b69190611d26565b90526001600160a01b039990991660008181526009602090815260408083208c84528252808320938352600a82528083209b83529a81528a82205482529182528990208a518155908a015160018201805467ffffffffffffffff19166001600160401b0390921691909117905597890151600289015550505060608601516003860155505050608083015160048301555060a0820151600582015560c090910151600690910155565b6001546001600160a01b03163314610a955760405162461bcd60e51b815260206004820181905260248201527f4f776e61626c653a2063616c6c6572206973206e6f7420746865206f776e6572604482015260640161101d565b600180546001600160a01b038381166001600160a01b0319831681179093556040519116919082907f8be0079c531659141344cd1fd0a4f28419497f9722a3daafe3b4186f6b6457e090600090a35050565b60008060005b6000858152600860205260409020600401548110156115f157600085815260086020526040902060040180548290811061154d5761154d611dda565b600091825260208083209091015487835260089091526040909120600401611576836001611e2b565b8154811061158657611586611dda565b906000526020600020015461159b9190611d26565b60008681526008602052604090206003018054839081106115be576115be611dda565b90600052602060002001546115d39190611d0f565b6115dd9083611e2b565b9150806115e981611df0565b915050611511565b5060008481526008602052604081206004015461160e9083611d90565b6001600160a01b0387166000908152600960209081526040808320898452825280832088845290915281206004015491925081900361166c57611652826001611d26565b60065461165f9190611d0f565b600654610c729190611d26565b806001036116995761167f826001611d26565b60065461168c9190611d0f565b600654610c729190611e2b565b505060065495945050505050565b6000806116b48385611d0f565b9050620f4240600454826116c89190611d0f565b6116d29190611d90565b949350505050565b826000036117095760008281526008602052604081206002018054839290611703908490611e2b565b90915550505b8260010361126c5760008281526008602052604081206001018054839290611732908490611e2b565b9091555050505050565b60006020828403121561174e57600080fd5b5035919050565b80356001600160a01b038116811461176c57600080fd5b919050565b6000806040838503121561178457600080fd5b61178d83611755565b946020939093013593505050565b600081518084526020808501945080840160005b838110156117cb578151875295820195908201906001016117af565b509495945050505050565b6000815180845260005b818110156117fc576020818501810151868301820152016117e0565b506000602082860101526020601f19601f83011685010191505092915050565b602081528151602082015260208201516040820152604082015160608201526000606083015160c0608084015261185660e084018261179b565b90506080840151601f19808584030160a0860152611874838361179b565b925060a08601519150808584030160c08601525061189282826117d6565b95945050505050565b60008083601f8401126118ad57600080fd5b5081356001600160401b038111156118c457600080fd5b6020830191508360208260051b85010111156118df57600080fd5b9250929050565b6000806000806000608086880312156118fe57600080fd5b61190786611755565b9450602086013593506040860135925060608601356001600160401b0381111561193057600080fd5b61193c8882890161189b565b969995985093965092949392505050565b60008060006040848603121561196257600080fd5b83356001600160401b0381111561197857600080fd5b6119848682870161189b565b909790965060209590950135949350505050565b60008060008060008060a087890312156119b157600080fd5b8635955060208701359450604087013593506060870135925060808701356001600160401b038111156119e357600080fd5b6119ef89828a0161189b565b979a9699509497509295939492505050565b600080600060608486031215611a1657600080fd5b611a1f84611755565b95602085013595506040909401359392505050565b60008060008060608587031215611a4a57600080fd5b843593506020850135925060408501356001600160401b03811115611a6e57600080fd5b611a7a8782880161189b565b95989497509550505050565b6000602080830181845280855180835260408601915060408160051b870101925083870160005b82811015611adb57603f19888603018452611ac98583516117d6565b94509285019290850190600101611aad565b5092979650505050505050565b600060208284031215611afa57600080fd5b61092d82611755565b600181811c90821680611b1757607f821691505b602082108103610fae57634e487b7160e01b600052602260045260246000fd5b634e487b7160e01b600052601160045260246000fd5b600081611b5c57611b5c611b37565b506000190190565b81835281816020850137506000828201602090810191909152601f909101601f19169091010190565b60208082528181018390526000906040600585901b8401810190840186845b87811015611c1b57868403603f190183528135368a9003601e19018112611bd257600080fd5b890185810190356001600160401b03811115611bed57600080fd5b803603821315611bfc57600080fd5b611c07868284611b64565b955050509184019190840190600101611bac565b5091979650505050505050565b600060208284031215611c3a57600080fd5b5051919050565b634e487b7160e01b600052604160045260246000fd5b80516001600160401b038116811461176c57600080fd5b8051600381900b811461176c57600080fd5b600060808284031215611c9257600080fd5b604051608081018181106001600160401b0382111715611cc257634e487b7160e01b600052604160045260246000fd5b6040528251600781900b8114611cd757600080fd5b8152611ce560208401611c57565b6020820152611cf660408401611c6e565b6040820152606083015160608201528091505092915050565b80820281158282048414176103eb576103eb611b37565b818103818111156103eb576103eb611b37565b80820260008212600160ff1b84141615611d5557611d55611b37565b81810583148215176103eb576103eb611b37565b8181036000831280158383131683831282161715611d8957611d89611b37565b5092915050565b600082611dad57634e487b7160e01b600052601260045260246000fd5b500490565b8082018281126000831280158216821582161715611dd257611dd2611b37565b505092915050565b634e487b7160e01b600052603260045260246000fd5b600060018201611e0257611e02611b37565b5060010190565b600060208284031215611e1b57600080fd5b8151801515811461092d57600080fd5b808201808211156103eb576103eb611b3756fea2646970667358221220f0ce4fb79fcc1da48792c7e666a15e4c44bbd8855188dfb32a3ec826d0063bad64736f6c63430008130033",
    "linkReferences": {}
  },
  "methodIdentifiers": {
    "getAssetPairDetails(uint256)": "1b5042ac",
    "getAssetPairIndexSymbol()": "ee9387de",
    "getPythPriceFeedAddress()": "c01646cb",
    "getTokenCollateralAddress()": "fa794403",
    "getTotalLongAmount(uint256)": "a829f21d",
    "getTotalShortAmount(uint256)": "0188d579",
    "getTradingPairCurrentPrice(bytes[],uint256)": "4fae32e7",
    "getUserLiquidationPrice(address,uint256,uint256)": "ca3e8257",
    "getUserOpenTradesForAsset(address,uint256)": "061ff1f0",
    "getUserTradingPositionDetails(address,uint256,uint256)": "b0a88075",
    "liquidateUser(address,uint256,uint256,bytes[])": "4c70fb6d",
    "marketOrder(uint256,uint256,uint256,uint256,bytes[])": "6719fe6e",
    "orderClose(uint256,uint256,bytes[])": "d928e336",
    "owner()": "8da5cb5b",
    "renounceOwnership()": "715018a6",
    "transferOwnership(address)": "f2fde38b"
  },
  "id": 34
}