{
  "abi": [
    {
      "inputs": [
        {
          "internalType": "address",
          "name": "pythPriceFeedAddress",
          "type": "address"
        },
        {
          "internalType": "address",
          "name": "tokenCollateralAddress",
          "type": "address"
        },
        {
          "internalType": "uint256",
          "name": "openFeePercentage",
          "type": "uint256"
        },
        {
          "internalType": "uint256",
          "name": "closingFeePercentage",
          "type": "uint256"
        },
        {
          "internalType": "uint256",
          "name": "baseBorrowFeePercentage",
          "type": "uint256"
        },
        {
          "internalType": "bytes32[]",
          "name": "pairPriceFeedAddressId",
          "type": "bytes32[]"
        },
        {
          "internalType": "uint256[]",
          "name": "pairIndex",
          "type": "uint256[]"
        },
        {
          "internalType": "string[]",
          "name": "pairSymbol",
          "type": "string[]"
        }
      ],
      "stateMutability": "nonpayable",
      "type": "constructor"
    },
    {
      "inputs": [],
      "name": "OrderBook__InvalidOrderType",
      "type": "error"
    },
    {
      "inputs": [],
      "name": "OrderBook__InvalidTradingPair",
      "type": "error"
    },
    {
      "inputs": [],
      "name": "OrderBook__MaxLeverageIs150",
      "type": "error"
    },
    {
      "inputs": [],
      "name": "OrderBook__MaxNumberOfOpenTrades3Reached",
      "type": "error"
    },
    {
      "inputs": [],
      "name": "OrderBook__NeedsMoreThanZero",
      "type": "error"
    },
    {
      "inputs": [],
      "name": "OrderBook__ParameterArraysMustBeTheSameLength",
      "type": "error"
    },
    {
      "inputs": [],
      "name": "OrderBook__TransferFailed",
      "type": "error"
    },
    {
      "inputs": [],
      "name": "OrderBook__UserClosingNonExistingPosition",
      "type": "error"
    },
    {
      "inputs": [],
      "name": "OrderBook__UserPositionNotOpenForLiquidation",
      "type": "error"
    },
    {
      "anonymous": false,
      "inputs": [
        {
          "indexed": true,
          "internalType": "address",
          "name": "user",
          "type": "address"
        },
        {
          "indexed": true,
          "internalType": "uint256",
          "name": "pairIndex",
          "type": "uint256"
        }
      ],
      "name": "MarketTrade",
      "type": "event"
    },
    {
      "anonymous": false,
      "inputs": [
        {
          "indexed": true,
          "internalType": "address",
          "name": "user",
          "type": "address"
        },
        {
          "indexed": true,
          "internalType": "uint256",
          "name": "pairIndex",
          "type": "uint256"
        },
        {
          "indexed": true,
          "internalType": "int256",
          "name": "userPNL",
          "type": "int256"
        }
      ],
      "name": "OrderClosed",
      "type": "event"
    },
    {
      "anonymous": false,
      "inputs": [
        {
          "indexed": true,
          "internalType": "address",
          "name": "previousOwner",
          "type": "address"
        },
        {
          "indexed": true,
          "internalType": "address",
          "name": "newOwner",
          "type": "address"
        }
      ],
      "name": "OwnershipTransferred",
      "type": "event"
    },
    {
      "anonymous": false,
      "inputs": [
        {
          "indexed": true,
          "internalType": "address",
          "name": "user",
          "type": "address"
        },
        {
          "indexed": false,
          "internalType": "uint256",
          "name": "pairIndex",
          "type": "uint256"
        },
        {
          "indexed": false,
          "internalType": "int256",
          "name": "userPNL",
          "type": "int256"
        }
      ],
      "name": "UserLiquidated",
      "type": "event"
    },
    {
      "inputs": [
        {
          "internalType": "uint256",
          "name": "pairIndex",
          "type": "uint256"
        }
      ],
      "name": "getAssetPairDetails",
      "outputs": [
        {
          "components": [
            {
              "internalType": "bytes32",
              "name": "pythPriceFeedAddress",
              "type": "bytes32"
            },
            {
              "internalType": "uint256",
              "name": "assetTotalShorts",
              "type": "uint256"
            },
            {
              "internalType": "uint256",
              "name": "assetTotalLongs",
              "type": "uint256"
            },
            {
              "internalType": "uint256[]",
              "name": "longShortRatio",
              "type": "uint256[]"
            },
            {
              "internalType": "uint256[]",
              "name": "time",
              "type": "uint256[]"
            },
            {
              "internalType": "string",
              "name": "pairSymbol",
              "type": "string"
            }
          ],
          "internalType": "struct OrderBook.AssetPairDetails",
          "name": "",
          "type": "tuple"
        }
      ],
      "stateMutability": "view",
      "type": "function"
    },
    {
      "inputs": [],
      "name": "getAssetPairIndexSymbol",
      "outputs": [
        {
          "internalType": "string[]",
          "name": "",
          "type": "string[]"
        }
      ],
      "stateMutability": "view",
      "type": "function"
    },
    {
      "inputs": [],
      "name": "getPythPriceFeedAddress",
      "outputs": [
        {
          "internalType": "address",
          "name": "",
          "type": "address"
        }
      ],
      "stateMutability": "view",
      "type": "function"
    },
    {
      "inputs": [
        {
          "internalType": "uint256",
          "name": "pairIndex",
          "type": "uint256"
        }
      ],
      "name": "getTotalLongAmount",
      "outputs": [
        {
          "internalType": "uint256",
          "name": "",
          "type": "uint256"
        }
      ],
      "stateMutability": "view",
      "type": "function"
    },
    {
      "inputs": [
        {
          "internalType": "uint256",
          "name": "pairIndex",
          "type": "uint256"
        }
      ],
      "name": "getTotalShortAmount",
      "outputs": [
        {
          "internalType": "uint256",
          "name": "",
          "type": "uint256"
        }
      ],
      "stateMutability": "view",
      "type": "function"
    },
    {
      "inputs": [
        {
          "internalType": "bytes[]",
          "name": "priceUpdateData",
          "type": "bytes[]"
        },
        {
          "internalType": "uint256",
          "name": "pairIndex",
          "type": "uint256"
        }
      ],
      "name": "getTradingPairCurrentPrice",
      "outputs": [
        {
          "components": [
            {
              "internalType": "int64",
              "name": "price",
              "type": "int64"
            },
            {
              "internalType": "uint64",
              "name": "conf",
              "type": "uint64"
            },
            {
              "internalType": "int32",
              "name": "expo",
              "type": "int32"
            },
            {
              "internalType": "uint256",
              "name": "publishTime",
              "type": "uint256"
            }
          ],
          "internalType": "struct PythStructs.Price",
          "name": "",
          "type": "tuple"
        }
      ],
      "stateMutability": "payable",
      "type": "function"
    },
    {
      "inputs": [
        {
          "internalType": "address",
          "name": "user",
          "type": "address"
        },
        {
          "internalType": "uint256",
          "name": "assetPairIndex",
          "type": "uint256"
        },
        {
          "internalType": "uint256",
          "name": "openTradeIdForPair",
          "type": "uint256"
        }
      ],
      "name": "getUserLiquidationPrice",
      "outputs": [
        {
          "internalType": "int256",
          "name": "liquidationPrice",
          "type": "int256"
        }
      ],
      "stateMutability": "view",
      "type": "function"
    },
    {
      "inputs": [
        {
          "internalType": "address",
          "name": "user",
          "type": "address"
        },
        {
          "internalType": "uint256",
          "name": "pairIndex",
          "type": "uint256"
        }
      ],
      "name": "getUserOpenTradesForAsset",
      "outputs": [
        {
          "internalType": "uint256",
          "name": "",
          "type": "uint256"
        }
      ],
      "stateMutability": "view",
      "type": "function"
    },
    {
      "inputs": [
        {
          "internalType": "address",
          "name": "user",
          "type": "address"
        },
        {
          "internalType": "uint256",
          "name": "tradeIndex",
          "type": "uint256"
        },
        {
          "internalType": "uint256",
          "name": "openTradesIdForPair",
          "type": "uint256"
        }
      ],
      "name": "getUserTradingPositionDetails",
      "outputs": [
        {
          "components": [
            {
              "internalType": "uint256",
              "name": "pairNumber",
              "type": "uint256"
            },
            {
              "internalType": "uint64",
              "name": "openPrice",
              "type": "uint64"
            },
            {
              "internalType": "uint256",
              "name": "collateralAfterFee",
              "type": "uint256"
            },
            {
              "internalType": "uint256",
              "name": "leverage",
              "type": "uint256"
            },
            {
              "internalType": "uint256",
              "name": "longShort",
              "type": "uint256"
            },
            {
              "internalType": "uint256",
              "name": "openTime",
              "type": "uint256"
            },
            {
              "internalType": "uint256",
              "name": "indexBorrowPercentArray",
              "type": "uint256"
            }
          ],
          "internalType": "struct OrderBook.PositionDetails",
          "name": "",
          "type": "tuple"
        }
      ],
      "stateMutability": "view",
      "type": "function"
    },
    {
      "inputs": [
        {
          "internalType": "address",
          "name": "user",
          "type": "address"
        },
        {
          "internalType": "uint256",
          "name": "tradeIndex",
          "type": "uint256"
        },
        {
          "internalType": "uint256",
          "name": "userTradesIdForPair",
          "type": "uint256"
        },
        {
          "internalType": "bytes[]",
          "name": "priceUpdateData",
          "type": "bytes[]"
        }
      ],
      "name": "liquidateUser",
      "outputs": [],
      "stateMutability": "nonpayable",
      "type": "function"
    },
    {
      "inputs": [
        {
          "internalType": "uint256",
          "name": "pairIndex",
          "type": "uint256"
        },
        {
          "internalType": "uint256",
          "name": "amountCollateral",
          "type": "uint256"
        },
        {
          "internalType": "uint256",
          "name": "leverage",
          "type": "uint256"
        },
        {
          "internalType": "uint256",
          "name": "orderType",
          "type": "uint256"
        },
        {
          "internalType": "bytes[]",
          "name": "priceUpdateData",
          "type": "bytes[]"
        }
      ],
      "name": "marketOrder",
      "outputs": [],
      "stateMutability": "payable",
      "type": "function"
    },
    {
      "inputs": [
        {
          "internalType": "uint256",
          "name": "tradeIndex",
          "type": "uint256"
        },
        {
          "internalType": "uint256",
          "name": "userTradesIdForPair",
          "type": "uint256"
        },
        {
          "internalType": "bytes[]",
          "name": "priceUpdateData",
          "type": "bytes[]"
        }
      ],
      "name": "orderClose",
      "outputs": [],
      "stateMutability": "nonpayable",
      "type": "function"
    },
    {
      "inputs": [],
      "name": "owner",
      "outputs": [
        {
          "internalType": "address",
          "name": "",
          "type": "address"
        }
      ],
      "stateMutability": "view",
      "type": "function"
    },
    {
      "inputs": [],
      "name": "renounceOwnership",
      "outputs": [],
      "stateMutability": "nonpayable",
      "type": "function"
    },
    {
      "inputs": [
        {
          "internalType": "address",
          "name": "newOwner",
          "type": "address"
        }
      ],
      "name": "transferOwnership",
      "outputs": [],
      "stateMutability": "nonpayable",
      "type": "function"
    }
  ],
  "bytecode": {
    "object": "0x60806040523480156200001157600080fd5b5060405162002486380380620024868339810160408190526200003491620003d4565b6001600055620000443362000178565b8151835114620000675760405163f102e13760e01b815260040160405180910390fd5b80518251146200008a5760405163f102e13760e01b815260040160405180910390fd5b600380546001600160a01b03808a166001600160a01b031992831617909255600488905560058790556006869055845160075560028054928b169290911691909117905560005b83518110156200016957838181518110620000f057620000f0620004aa565b60200260200101516008600083815260200190815260200160002060000181905550818181518110620001275762000127620004aa565b60200260200101516008600083815260200190815260200160002060050190816200015391906200054f565b508062000160816200061b565b915050620000d1565b50505050505050505062000643565b600180546001600160a01b038381166001600160a01b0319831681179093556040519116919082907f8be0079c531659141344cd1fd0a4f28419497f9722a3daafe3b4186f6b6457e090600090a35050565b80516001600160a01b0381168114620001e257600080fd5b919050565b634e487b7160e01b600052604160045260246000fd5b604051601f8201601f191681016001600160401b0381118282101715620002285762000228620001e7565b604052919050565b60006001600160401b038211156200024c576200024c620001e7565b5060051b60200190565b600082601f8301126200026857600080fd5b81516020620002816200027b8362000230565b620001fd565b82815260059290921b84018101918181019086841115620002a157600080fd5b8286015b84811015620002be5780518352918301918301620002a5565b509695505050505050565b6000601f8381840112620002dc57600080fd5b82516020620002ef6200027b8362000230565b82815260059290921b850181019181810190878411156200030f57600080fd5b8287015b84811015620003c85780516001600160401b0380821115620003355760008081fd5b818a0191508a603f8301126200034b5760008081fd5b8582015181811115620003625762000362620001e7565b62000375818a01601f19168801620001fd565b915080825260408c818386010111156200038f5760008081fd5b60005b82811015620003af578481018201518482018a0152880162000392565b5050600090820187015284525091830191830162000313565b50979650505050505050565b600080600080600080600080610100898b031215620003f257600080fd5b620003fd89620001ca565b97506200040d60208a01620001ca565b60408a015160608b015160808c015160a08d0151939a50919850965094506001600160401b03808211156200044157600080fd5b6200044f8c838d0162000256565b945060c08b01519150808211156200046657600080fd5b620004748c838d0162000256565b935060e08b01519150808211156200048b57600080fd5b506200049a8b828c01620002c9565b9150509295985092959890939650565b634e487b7160e01b600052603260045260246000fd5b600181811c90821680620004d557607f821691505b602082108103620004f657634e487b7160e01b600052602260045260246000fd5b50919050565b601f8211156200054a57600081815260208120601f850160051c81016020861015620005255750805b601f850160051c820191505b81811015620005465782815560010162000531565b5050505b505050565b81516001600160401b038111156200056b576200056b620001e7565b62000583816200057c8454620004c0565b84620004fc565b602080601f831160018114620005bb5760008415620005a25750858301515b600019600386901b1c1916600185901b17855562000546565b600085815260208120601f198616915b82811015620005ec57888601518255948401946001909101908401620005cb565b50858210156200060b5787850151600019600388901b60f8161c191681555b5050505050600190811b01905550565b6000600182016200063c57634e487b7160e01b600052601160045260246000fd5b5060010190565b611e3380620006536000396000f3fe6080604052600436106100e85760003560e01c80638da5cb5b1161008a578063ca3e825711610059578063ca3e82571461031b578063d928e3361461033b578063ee9387de1461035b578063f2fde38b1461037d57600080fd5b80638da5cb5b1461021c578063a829f21d1461024e578063b0a880751461027e578063c01646cb146102fd57600080fd5b80634c70fb6d116100c65780634c70fb6d1461017d5780634fae32e71461019f5780636719fe6e146101f4578063715018a61461020757600080fd5b80630188d579146100ed578063061ff1f0146101305780631b5042ac14610150575b600080fd5b3480156100f957600080fd5b5061011d6101083660046116fb565b60009081526008602052604090206001015490565b6040519081526020015b60405180910390f35b34801561013c57600080fd5b5061011d61014b366004611730565b61039d565b34801561015c57600080fd5b5061017061016b3660046116fb565b6103c8565b60405161012791906117db565b34801561018957600080fd5b5061019d6101983660046118a5565b61057d565b005b6101b26101ad36600461190c565b61077d565b6040516101279190815160070b81526020808301516001600160401b03169082015260408083015160030b908201526060918201519181019190915260800190565b61019d610202366004611957565b61090b565b34801561021357600080fd5b5061019d610a59565b34801561022857600080fd5b506001546001600160a01b03165b6040516001600160a01b039091168152602001610127565b34801561025a57600080fd5b5061011d6102693660046116fb565b60009081526008602052604090206002015490565b34801561028a57600080fd5b5061029e6102993660046119c0565b610a6d565b6040516101279190600060e082019050825182526001600160401b03602084015116602083015260408301516040830152606083015160608301526080830151608083015260a083015160a083015260c083015160c083015292915050565b34801561030957600080fd5b506002546001600160a01b0316610236565b34801561032757600080fd5b5061011d6103363660046119c0565b610b3d565b34801561034757600080fd5b5061019d6103563660046119f3565b610c9f565b34801561036757600080fd5b50610370610e59565b6040516101279190611a45565b34801561038957600080fd5b5061019d610398366004611aa7565b610f8a565b6001600160a01b0382166000908152600a602090815260408083208484529091529020545b92915050565b6104046040518060c001604052806000801916815260200160008152602001600081526020016060815260200160608152602001606081525090565b600082815260086020908152604091829020825160c08101845281548152600182015481840152600282015481850152600382018054855181860281018601909652808652919492936060860193929083018282801561048357602002820191906000526020600020905b81548152602001906001019080831161046f575b50505050508152602001600482018054806020026020016040519081016040528092919081815260200182805480156104db57602002820191906000526020600020905b8154815260200190600101908083116104c7575b505050505081526020016005820180546104f490611ac2565b80601f016020809104026020016040519081016040528092919081815260200182805461052090611ac2565b801561056d5780601f106105425761010080835404028352916020019161056d565b820191906000526020600020905b81548152906001019060200180831161055057829003601f168201915b5050505050815250509050919050565b6001600160a01b038516600090815260096020908152604080832087845282528083208684529091528120600101548691869186916001600160401b0390911690036105dc57604051638177d6b960e01b815260040160405180910390fd5b6105e4611008565b6001600160a01b03881660009081526009602090815260408083208a845282528083208984528252808320815160e0810183528154815260018201546001600160401b0316938101939093526002810154918301919091526003810154606083015260048101546080830152600581015460a08301526006015460c08201529061067133838a8a8a611061565b90506000811361074e576001600160a01b038a1660008181526009602090815260408083208651845282528083208c8452825280832083815560018101805467ffffffffffffffff1916905560028101849055600381018490556004810184905560058101849055600601839055928252600a81528282208551835290529081208054916106fe83611b0c565b9091555050815160408051918252602082018390526001600160a01b038c16917f7b53f2d174e631910484a595481b3fa1241c3898438889011e61f81437492760910160405180910390a2610767565b60405163ae945bf560e01b815260040160405180910390fd5b50506107736001600055565b5050505050505050565b60408051608081018252600080825260208201819052918101829052606081019190915260025460405163d47eed4560e01b81526000916001600160a01b03169063d47eed45906107d49088908890600401611b4c565b602060405180830381865afa1580156107f1573d6000803e3d6000fd5b505050506040513d601f19601f820116820180604052508101906108159190611be7565b600254604051631df3cbc560e31b81529192506001600160a01b03169063ef9e5e2890839061084a9089908990600401611b4c565b6000604051808303818588803b15801561086357600080fd5b505af1158015610877573d6000803e3d6000fd5b5050600254600087815260086020526040908190205490516331d98b3f60e01b81526001600160a01b0390921694506331d98b3f93506108bf92509060040190815260200190565b608060405180830381865afa1580156108dc573d6000803e3d6000fd5b505050506040513d601f19601f820116820180604052508101906109009190611c3f565b9150505b9392505050565b8484811580610918575080155b1561093657604051637018737760e11b815260040160405180910390fd5b60008881526008602052604081205489910361096457604051621bca5160e61b815260040160405180910390fd5b336000818152600a602090815260408083208d84529091529020548a906003116109a1576040516306152e2f60e11b815260040160405180910390fd5b8860968111156109c457604051635694d08560e11b815260040160405180910390fd5b88801515806109d4575080600114155b156109f2576040516302763ae360e11b815260040160405180910390fd5b6109fa611008565b610a04338d6111a4565b610a13338e8e8e8e8e8e611247565b6040518d9033907f02c61321c808585dc6593befb37f9909ee37888b439a1990c568e475dddb765590600090a3610a4a6001600055565b50505050505050505050505050565b610a6161141e565b610a6b6000611478565b565b610ab66040518060e001604052806000815260200160006001600160401b0316815260200160008152602001600081526020016000815260200160008152602001600081525090565b506001600160a01b03929092166000908152600960209081526040808320938352928152828220938252928352819020815160e0810183528154815260018201546001600160401b0316938101939093526002810154918301919091526003810154606083015260048101546080830152600581015460a08301526006015460c082015290565b6001600160a01b038316600090815260096020908152604080832085845282528083208484528252808320815160e0810183528154815260018201546001600160401b0316938101939093526002810154918301919091526003810154606083015260048101546080830152600581015460a08301526006015460c082015281610bc88686866114ca565b9050600082606001518360400151610be09190611cce565b60a0840151610bef9042611ce5565b610bf99084611cf8565b610c039190611cf8565b90508260800151600003610c52578083602001516001600160401b0316610c2a9190611d28565b83606001518460400151610c3e9190611d4f565b610c489190611d28565b9350505050610904565b8260800151600103610c95578083602001516001600160401b0316610c779190611d28565b83606001518460400151610c8b9190611d4f565b610c489190611d71565b5050509392505050565b3360008181526009602090815260408083208884528252808320878452909152812060010154869186916001600160401b03169003610cf157604051638177d6b960e01b815260040160405180910390fd5b610cf9611008565b3360008181526009602090815260408083208b845282528083208a84528252808320815160e0810183528154815260018201546001600160401b0316938101939093526002810154918301919091526003810154606083015260048101546080830152600581015460a08301526006015460c082015291610d7d90838a8a8a611061565b3360008181526009602090815260408083208751845282528083208d8452825280832083815560018101805467ffffffffffffffff1916905560028101849055600381018490556004810184905560058101849055600601839055928252600a8152828220865183529052908120805492935090610dfa83611b0c565b919050555060008112610e145780610e1233826111a4565b505b815160405182919033907f0aeb415d14b250a0912d0b18da299753b6ff90cbeb9fa65f2d75b0dd3fe712b290600090a45050610e506001600055565b50505050505050565b606060006007546001600160401b03811115610e7757610e77611c00565b604051908082528060200260200182016040528015610eaa57816020015b6060815260200190600190039081610e955790505b50905060005b600754811015610f845760008181526008602052604090206005018054610ed690611ac2565b80601f0160208091040260200160405190810160405280929190818152602001828054610f0290611ac2565b8015610f4f5780601f10610f2457610100808354040283529160200191610f4f565b820191906000526020600020905b815481529060010190602001808311610f3257829003601f168201915b5050505050828281518110610f6657610f66611d99565b60200260200101819052508080610f7c90611daf565b915050610eb0565b50919050565b610f9261141e565b6001600160a01b038116610ffc5760405162461bcd60e51b815260206004820152602660248201527f4f776e61626c653a206e6577206f776e657220697320746865207a65726f206160448201526564647265737360d01b60648201526084015b60405180910390fd5b61100581611478565b50565b60026000540361105a5760405162461bcd60e51b815260206004820152601f60248201527f5265656e7472616e637947756172643a207265656e7472616e742063616c6c006044820152606401610ff3565b6002600055565b6000806110738484886000015161077d565b90506000611086888860000151886114ca565b905060008760a001514261109a9190611ce5565b604089015160608a01516110ae9085611cf8565b6110b89190611cf8565b6110c29190611cf8565b9050600080846000015160070b8a602001516001600160401b03166110e79190611d28565b90508960800151600003611131578960400151818b6060015161110a9190611cf8565b6111149190611cf8565b838b604001516111249190611d28565b61112e9190611d28565b91505b8960800151600103611179578960400151818b606001516111529190611cf8565b61115c9190611cf8565b838b6040015161116c9190611d28565b6111769190611d71565b91505b61118b8a604001518b60600151611666565b6111959083611d28565b9b9a5050505050505050505050565b6003546040516323b872dd60e01b81526001600160a01b0384811660048301523060248301526044820184905260009216906323b872dd906064016020604051808303816000875af11580156111fe573d6000803e3d6000fd5b505050506040513d601f19601f820116820180604052508101906112229190611dc8565b90508061124257604051630c74658f60e01b815260040160405180910390fd5b505050565b60006112538686611666565b61125d9087611ce5565b6001600160a01b0389166000908152600a602090815260408083208b8452909152812080549293509061128f83611daf565b909155506112a9905084886112a48885611cce565b611699565b6000878152600860209081526040822060048101805460018181018355918552928420429301929092559189905281015460028201546003909201916112ef9190611d4f565b8154600181018355600092835260208320015561130d84848a61077d565b90506040518060e0016040528089815260200182600001516001600160401b03168152602001838152602001878152602001868152602001826060015181526020016001600860008c8152602001908152602001600020600401805490506113759190611ce5565b90526001600160a01b039990991660008181526009602090815260408083208c84528252808320938352600a82528083209b83529a81528a82205482529182528990208a518155908a015160018201805467ffffffffffffffff19166001600160401b0390921691909117905597890151600289015550505060608601516003860155505050608083015160048301555060a0820151600582015560c090910151600690910155565b6001546001600160a01b03163314610a6b5760405162461bcd60e51b815260206004820181905260248201527f4f776e61626c653a2063616c6c6572206973206e6f7420746865206f776e65726044820152606401610ff3565b600180546001600160a01b038381166001600160a01b0319831681179093556040519116919082907f8be0079c531659141344cd1fd0a4f28419497f9722a3daafe3b4186f6b6457e090600090a35050565b60008060005b6000858152600860205260409020600401548110156115b057600085815260086020526040902060040180548290811061150c5761150c611d99565b600091825260208083209091015487835260089091526040909120600401611535836001611dea565b8154811061154557611545611d99565b906000526020600020015461155a9190611ce5565b600086815260086020526040902060030180548390811061157d5761157d611d99565b90600052602060002001546115929190611cce565b61159c9083611dea565b9150806115a881611daf565b9150506114d0565b506000848152600860205260408120600401546115cd9083611d4f565b6001600160a01b0387166000908152600960209081526040808320898452825280832088845290915281206004015491925081900361162b57611611826001611ce5565b60065461161e9190611cce565b600654610c489190611ce5565b806001036116585761163e826001611ce5565b60065461164b9190611cce565b600654610c489190611dea565b505060065495945050505050565b6000806116738385611cce565b9050620f4240600454826116879190611cce565b6116919190611d4f565b949350505050565b826000036116c857600082815260086020526040812060020180548392906116c2908490611dea565b90915550505b8260010361124257600082815260086020526040812060010180548392906116f1908490611dea565b9091555050505050565b60006020828403121561170d57600080fd5b5035919050565b80356001600160a01b038116811461172b57600080fd5b919050565b6000806040838503121561174357600080fd5b61174c83611714565b946020939093013593505050565b600081518084526020808501945080840160005b8381101561178a5781518752958201959082019060010161176e565b509495945050505050565b6000815180845260005b818110156117bb5760208185018101518683018201520161179f565b506000602082860101526020601f19601f83011685010191505092915050565b602081528151602082015260208201516040820152604082015160608201526000606083015160c0608084015261181560e084018261175a565b90506080840151601f19808584030160a0860152611833838361175a565b925060a08601519150808584030160c0860152506118518282611795565b95945050505050565b60008083601f84011261186c57600080fd5b5081356001600160401b0381111561188357600080fd5b6020830191508360208260051b850101111561189e57600080fd5b9250929050565b6000806000806000608086880312156118bd57600080fd5b6118c686611714565b9450602086013593506040860135925060608601356001600160401b038111156118ef57600080fd5b6118fb8882890161185a565b969995985093965092949392505050565b60008060006040848603121561192157600080fd5b83356001600160401b0381111561193757600080fd5b6119438682870161185a565b909790965060209590950135949350505050565b60008060008060008060a0878903121561197057600080fd5b8635955060208701359450604087013593506060870135925060808701356001600160401b038111156119a257600080fd5b6119ae89828a0161185a565b979a9699509497509295939492505050565b6000806000606084860312156119d557600080fd5b6119de84611714565b95602085013595506040909401359392505050565b60008060008060608587031215611a0957600080fd5b843593506020850135925060408501356001600160401b03811115611a2d57600080fd5b611a398782880161185a565b95989497509550505050565b6000602080830181845280855180835260408601915060408160051b870101925083870160005b82811015611a9a57603f19888603018452611a88858351611795565b94509285019290850190600101611a6c565b5092979650505050505050565b600060208284031215611ab957600080fd5b61090482611714565b600181811c90821680611ad657607f821691505b602082108103610f8457634e487b7160e01b600052602260045260246000fd5b634e487b7160e01b600052601160045260246000fd5b600081611b1b57611b1b611af6565b506000190190565b81835281816020850137506000828201602090810191909152601f909101601f19169091010190565b60208082528181018390526000906040600585901b8401810190840186845b87811015611bda57868403603f190183528135368a9003601e19018112611b9157600080fd5b890185810190356001600160401b03811115611bac57600080fd5b803603821315611bbb57600080fd5b611bc6868284611b23565b955050509184019190840190600101611b6b565b5091979650505050505050565b600060208284031215611bf957600080fd5b5051919050565b634e487b7160e01b600052604160045260246000fd5b80516001600160401b038116811461172b57600080fd5b8051600381900b811461172b57600080fd5b600060808284031215611c5157600080fd5b604051608081018181106001600160401b0382111715611c8157634e487b7160e01b600052604160045260246000fd5b6040528251600781900b8114611c9657600080fd5b8152611ca460208401611c16565b6020820152611cb560408401611c2d565b6040820152606083015160608201528091505092915050565b80820281158282048414176103c2576103c2611af6565b818103818111156103c2576103c2611af6565b80820260008212600160ff1b84141615611d1457611d14611af6565b81810583148215176103c2576103c2611af6565b8181036000831280158383131683831282161715611d4857611d48611af6565b5092915050565b600082611d6c57634e487b7160e01b600052601260045260246000fd5b500490565b8082018281126000831280158216821582161715611d9157611d91611af6565b505092915050565b634e487b7160e01b600052603260045260246000fd5b600060018201611dc157611dc1611af6565b5060010190565b600060208284031215611dda57600080fd5b8151801515811461090457600080fd5b808201808211156103c2576103c2611af656fea264697066735822122008b33282550b73f56e909430f8f4f76bb079d5a191f5405842de9d614244318364736f6c63430008130033",
    "linkReferences": {}
  },
  "methodIdentifiers": {
    "getAssetPairDetails(uint256)": "1b5042ac",
    "getAssetPairIndexSymbol()": "ee9387de",
    "getPythPriceFeedAddress()": "c01646cb",
    "getTotalLongAmount(uint256)": "a829f21d",
    "getTotalShortAmount(uint256)": "0188d579",
    "getTradingPairCurrentPrice(bytes[],uint256)": "4fae32e7",
    "getUserLiquidationPrice(address,uint256,uint256)": "ca3e8257",
    "getUserOpenTradesForAsset(address,uint256)": "061ff1f0",
    "getUserTradingPositionDetails(address,uint256,uint256)": "b0a88075",
    "liquidateUser(address,uint256,uint256,bytes[])": "4c70fb6d",
    "marketOrder(uint256,uint256,uint256,uint256,bytes[])": "6719fe6e",
    "orderClose(uint256,uint256,bytes[])": "d928e336",
    "owner()": "8da5cb5b",
    "renounceOwnership()": "715018a6",
    "transferOwnership(address)": "f2fde38b"
  },
  "id": 34
}