{
  "abi": [
    {
      "inputs": [
        {
          "internalType": "address",
          "name": "pythPriceFeedAddress",
          "type": "address"
        },
        {
          "internalType": "address",
          "name": "tokenCollateralAddress",
          "type": "address"
        },
        {
          "internalType": "bytes32[]",
          "name": "pairPriceFeedAddressId",
          "type": "bytes32[]"
        },
        {
          "internalType": "int256[]",
          "name": "maxOpenInterest",
          "type": "int256[]"
        },
        {
          "internalType": "uint256[]",
          "name": "pairIndex",
          "type": "uint256[]"
        },
        {
          "internalType": "string[]",
          "name": "pairSymbol",
          "type": "string[]"
        }
      ],
      "stateMutability": "nonpayable",
      "type": "constructor"
    },
    {
      "inputs": [],
      "name": "OrderBook__InvalidOrderType",
      "type": "error"
    },
    {
      "inputs": [],
      "name": "OrderBook__InvalidTradingPair",
      "type": "error"
    },
    {
      "inputs": [],
      "name": "OrderBook__MaxLeverageIs150",
      "type": "error"
    },
    {
      "inputs": [],
      "name": "OrderBook__MaxNumberOfOpenTrades3Reached",
      "type": "error"
    },
    {
      "inputs": [],
      "name": "OrderBook__MaxOpenInterestReachedLongs",
      "type": "error"
    },
    {
      "inputs": [],
      "name": "OrderBook__MaxOpenInterestShortsReached",
      "type": "error"
    },
    {
      "inputs": [],
      "name": "OrderBook__NeedsMoreThanZero",
      "type": "error"
    },
    {
      "inputs": [],
      "name": "OrderBook__NoBotRewards",
      "type": "error"
    },
    {
      "inputs": [],
      "name": "OrderBook__ParameterArraysMustBeTheSameLength",
      "type": "error"
    },
    {
      "inputs": [],
      "name": "OrderBook__TokenApprovalFailed",
      "type": "error"
    },
    {
      "inputs": [],
      "name": "OrderBook__TradeSizeTooSmall",
      "type": "error"
    },
    {
      "inputs": [],
      "name": "OrderBook__TransferFailed",
      "type": "error"
    },
    {
      "inputs": [],
      "name": "OrderBook__UserClosingNonExistingPosition",
      "type": "error"
    },
    {
      "inputs": [
        {
          "internalType": "int256",
          "name": "userPNL",
          "type": "int256"
        }
      ],
      "name": "OrderBook__UserPositionNotOpenForLiquidation",
      "type": "error"
    },
    {
      "anonymous": false,
      "inputs": [
        {
          "indexed": true,
          "internalType": "uint256",
          "name": "pairIndex",
          "type": "uint256"
        },
        {
          "indexed": true,
          "internalType": "int256",
          "name": "borrowFee",
          "type": "int256"
        },
        {
          "indexed": true,
          "internalType": "uint256",
          "name": "orderType",
          "type": "uint256"
        }
      ],
      "name": "AvgBorrowFeeCalculation",
      "type": "event"
    },
    {
      "anonymous": false,
      "inputs": [
        {
          "indexed": true,
          "internalType": "address",
          "name": "user",
          "type": "address"
        },
        {
          "indexed": true,
          "internalType": "int256",
          "name": "newBaseBorrowFeePercentage",
          "type": "int256"
        }
      ],
      "name": "BaseBorrowFeeChanged",
      "type": "event"
    },
    {
      "anonymous": false,
      "inputs": [
        {
          "indexed": true,
          "internalType": "address",
          "name": "user",
          "type": "address"
        },
        {
          "indexed": true,
          "internalType": "int256",
          "name": "newVariableBorrowFeePercentage",
          "type": "int256"
        }
      ],
      "name": "BaseVariableBorrowFeeChanged",
      "type": "event"
    },
    {
      "anonymous": false,
      "inputs": [
        {
          "indexed": true,
          "internalType": "uint256",
          "name": "pairIndex",
          "type": "uint256"
        },
        {
          "indexed": false,
          "internalType": "int256[]",
          "name": "borrowFees",
          "type": "int256[]"
        }
      ],
      "name": "BorrowFeeUpdated",
      "type": "event"
    },
    {
      "anonymous": false,
      "inputs": [
        {
          "indexed": true,
          "internalType": "address",
          "name": "user",
          "type": "address"
        },
        {
          "indexed": true,
          "internalType": "int256",
          "name": "newBotRewardsBase",
          "type": "int256"
        }
      ],
      "name": "BotRewardsBaseChanged",
      "type": "event"
    },
    {
      "anonymous": false,
      "inputs": [
        {
          "indexed": true,
          "internalType": "address",
          "name": "botAddress",
          "type": "address"
        },
        {
          "indexed": true,
          "internalType": "uint256",
          "name": "amount",
          "type": "uint256"
        }
      ],
      "name": "BotRewardsClaimed",
      "type": "event"
    },
    {
      "anonymous": false,
      "inputs": [
        {
          "indexed": true,
          "internalType": "address",
          "name": "user",
          "type": "address"
        },
        {
          "indexed": true,
          "internalType": "int256",
          "name": "newBotRewardsRate",
          "type": "int256"
        }
      ],
      "name": "BotRewardsRateChanged",
      "type": "event"
    },
    {
      "anonymous": false,
      "inputs": [
        {
          "indexed": true,
          "internalType": "address",
          "name": "user",
          "type": "address"
        },
        {
          "indexed": true,
          "internalType": "address",
          "name": "newTokenAddress",
          "type": "address"
        }
      ],
      "name": "CollateralTokenChanged",
      "type": "event"
    },
    {
      "anonymous": false,
      "inputs": [
        {
          "indexed": true,
          "internalType": "address",
          "name": "user",
          "type": "address"
        },
        {
          "indexed": true,
          "internalType": "uint256",
          "name": "pairIndex",
          "type": "uint256"
        }
      ],
      "name": "MarketTrade",
      "type": "event"
    },
    {
      "anonymous": false,
      "inputs": [
        {
          "indexed": true,
          "internalType": "address",
          "name": "user",
          "type": "address"
        },
        {
          "indexed": true,
          "internalType": "int256",
          "name": "newMaxBorrowInterestRate",
          "type": "int256"
        }
      ],
      "name": "MaxBorrowRateChanged",
      "type": "event"
    },
    {
      "anonymous": false,
      "inputs": [
        {
          "indexed": true,
          "internalType": "uint256",
          "name": "pairIndex",
          "type": "uint256"
        },
        {
          "indexed": true,
          "internalType": "int256",
          "name": "maxOpenInterest",
          "type": "int256"
        }
      ],
      "name": "MaxOpenInterestChanged",
      "type": "event"
    },
    {
      "anonymous": false,
      "inputs": [
        {
          "indexed": true,
          "internalType": "address",
          "name": "user",
          "type": "address"
        },
        {
          "indexed": true,
          "internalType": "int256",
          "name": "newMinTradeSize",
          "type": "int256"
        }
      ],
      "name": "MinTradeSizeChanged",
      "type": "event"
    },
    {
      "anonymous": false,
      "inputs": [
        {
          "indexed": false,
          "internalType": "int256",
          "name": "interestLongs",
          "type": "int256"
        },
        {
          "indexed": false,
          "internalType": "int256",
          "name": "interestShorts",
          "type": "int256"
        }
      ],
      "name": "OpenInterestUpdated",
      "type": "event"
    },
    {
      "anonymous": false,
      "inputs": [
        {
          "indexed": false,
          "internalType": "address",
          "name": "user",
          "type": "address"
        },
        {
          "indexed": false,
          "internalType": "int256",
          "name": "newOpeningFee",
          "type": "int256"
        }
      ],
      "name": "OpeningFeeChanged",
      "type": "event"
    },
    {
      "anonymous": false,
      "inputs": [
        {
          "indexed": true,
          "internalType": "address",
          "name": "newOwner",
          "type": "address"
        }
      ],
      "name": "OrderBookOwnerUpdated",
      "type": "event"
    },
    {
      "anonymous": false,
      "inputs": [
        {
          "indexed": true,
          "internalType": "address",
          "name": "user",
          "type": "address"
        },
        {
          "indexed": true,
          "internalType": "uint256",
          "name": "pairIndex",
          "type": "uint256"
        },
        {
          "indexed": false,
          "internalType": "uint256",
          "name": "userTradeIndex",
          "type": "uint256"
        }
      ],
      "name": "OrderClosed",
      "type": "event"
    },
    {
      "anonymous": false,
      "inputs": [
        {
          "indexed": true,
          "internalType": "address",
          "name": "userAddress",
          "type": "address"
        },
        {
          "indexed": true,
          "internalType": "uint256",
          "name": "pairIndex",
          "type": "uint256"
        },
        {
          "indexed": true,
          "internalType": "int256",
          "name": "userPNL",
          "type": "int256"
        }
      ],
      "name": "OrderClosedTradeDetails",
      "type": "event"
    },
    {
      "anonymous": false,
      "inputs": [
        {
          "indexed": true,
          "internalType": "address",
          "name": "previousOwner",
          "type": "address"
        },
        {
          "indexed": true,
          "internalType": "address",
          "name": "newOwner",
          "type": "address"
        }
      ],
      "name": "OwnershipTransferred",
      "type": "event"
    },
    {
      "anonymous": false,
      "inputs": [
        {
          "indexed": true,
          "internalType": "int256",
          "name": "priceChange",
          "type": "int256"
        }
      ],
      "name": "PriceChange",
      "type": "event"
    },
    {
      "anonymous": false,
      "inputs": [
        {
          "indexed": false,
          "internalType": "uint256",
          "name": "startIndex",
          "type": "uint256"
        }
      ],
      "name": "StartIndex",
      "type": "event"
    },
    {
      "anonymous": false,
      "inputs": [
        {
          "indexed": false,
          "internalType": "int256",
          "name": "sum",
          "type": "int256"
        }
      ],
      "name": "Sum",
      "type": "event"
    },
    {
      "anonymous": false,
      "inputs": [
        {
          "indexed": false,
          "internalType": "uint256",
          "name": "timeArrayLength",
          "type": "uint256"
        }
      ],
      "name": "TimeArrayLength",
      "type": "event"
    },
    {
      "anonymous": false,
      "inputs": [
        {
          "indexed": true,
          "internalType": "address",
          "name": "user",
          "type": "address"
        },
        {
          "indexed": true,
          "internalType": "uint256",
          "name": "pairIndex",
          "type": "uint256"
        },
        {
          "indexed": true,
          "internalType": "uint256",
          "name": "userPairTradeIndex",
          "type": "uint256"
        }
      ],
      "name": "TradeOpened",
      "type": "event"
    },
    {
      "anonymous": false,
      "inputs": [
        {
          "indexed": true,
          "internalType": "address",
          "name": "user",
          "type": "address"
        },
        {
          "indexed": false,
          "internalType": "uint256",
          "name": "pairIndex",
          "type": "uint256"
        },
        {
          "indexed": false,
          "internalType": "uint256",
          "name": "userTradeIndex",
          "type": "uint256"
        }
      ],
      "name": "UserLiquidated",
      "type": "event"
    },
    {
      "anonymous": false,
      "inputs": [
        {
          "indexed": true,
          "internalType": "address",
          "name": "userAddress",
          "type": "address"
        },
        {
          "indexed": true,
          "internalType": "uint256",
          "name": "pairIndex",
          "type": "uint256"
        },
        {
          "indexed": true,
          "internalType": "int256",
          "name": "userPNL",
          "type": "int256"
        }
      ],
      "name": "UserLiquidationDetails",
      "type": "event"
    },
    {
      "anonymous": false,
      "inputs": [
        {
          "indexed": true,
          "internalType": "int256",
          "name": "userPNl",
          "type": "int256"
        }
      ],
      "name": "UserPNL",
      "type": "event"
    },
    {
      "inputs": [
        {
          "internalType": "address",
          "name": "user",
          "type": "address"
        }
      ],
      "name": "getAllUserOpenTrades",
      "outputs": [
        {
          "components": [
            {
              "internalType": "uint256",
              "name": "pairNumber",
              "type": "uint256"
            },
            {
              "internalType": "int256",
              "name": "openPrice",
              "type": "int256"
            },
            {
              "internalType": "int256",
              "name": "collateralAfterFee",
              "type": "int256"
            },
            {
              "internalType": "int256",
              "name": "leverage",
              "type": "int256"
            },
            {
              "internalType": "uint256",
              "name": "longShort",
              "type": "uint256"
            },
            {
              "internalType": "uint256",
              "name": "openTime",
              "type": "uint256"
            },
            {
              "internalType": "uint256",
              "name": "indexBorrowPercentArray",
              "type": "uint256"
            }
          ],
          "internalType": "struct OrderBook.PositionDetails[15]",
          "name": "",
          "type": "tuple[15]"
        }
      ],
      "stateMutability": "view",
      "type": "function"
    },
    {
      "inputs": [
        {
          "internalType": "uint256",
          "name": "pairIndex",
          "type": "uint256"
        }
      ],
      "name": "getAssetPairDetails",
      "outputs": [
        {
          "components": [
            {
              "internalType": "bytes32",
              "name": "pythPriceFeedAddress",
              "type": "bytes32"
            },
            {
              "internalType": "int256",
              "name": "assetTotalShorts",
              "type": "int256"
            },
            {
              "internalType": "int256",
              "name": "assetTotalLongs",
              "type": "int256"
            },
            {
              "internalType": "int256",
              "name": "maxOpenInterest",
              "type": "int256"
            },
            {
              "internalType": "int256[]",
              "name": "borrowFee",
              "type": "int256[]"
            },
            {
              "internalType": "uint256[]",
              "name": "time",
              "type": "uint256[]"
            },
            {
              "internalType": "string",
              "name": "pairSymbol",
              "type": "string"
            }
          ],
          "internalType": "struct OrderBook.AssetPairDetails",
          "name": "",
          "type": "tuple"
        }
      ],
      "stateMutability": "view",
      "type": "function"
    },
    {
      "inputs": [],
      "name": "getAssetPairIndexSymbol",
      "outputs": [
        {
          "internalType": "string[]",
          "name": "",
          "type": "string[]"
        }
      ],
      "stateMutability": "view",
      "type": "function"
    },
    {
      "inputs": [],
      "name": "getBaseBorrowFee",
      "outputs": [
        {
          "internalType": "int256",
          "name": "baseBorrowFee",
          "type": "int256"
        }
      ],
      "stateMutability": "view",
      "type": "function"
    },
    {
      "inputs": [],
      "name": "getBotRewardBase",
      "outputs": [
        {
          "internalType": "int256",
          "name": "botRewardsBase",
          "type": "int256"
        }
      ],
      "stateMutability": "view",
      "type": "function"
    },
    {
      "inputs": [],
      "name": "getBotRewardRate",
      "outputs": [
        {
          "internalType": "int256",
          "name": "botRewardsRate",
          "type": "int256"
        }
      ],
      "stateMutability": "view",
      "type": "function"
    },
    {
      "inputs": [
        {
          "internalType": "uint256",
          "name": "pairIndex",
          "type": "uint256"
        }
      ],
      "name": "getCurrentBorrowRate",
      "outputs": [
        {
          "internalType": "int256",
          "name": "",
          "type": "int256"
        }
      ],
      "stateMutability": "view",
      "type": "function"
    },
    {
      "inputs": [],
      "name": "getPythPriceFeedAddress",
      "outputs": [
        {
          "internalType": "address",
          "name": "",
          "type": "address"
        }
      ],
      "stateMutability": "view",
      "type": "function"
    },
    {
      "inputs": [],
      "name": "getTokenCollateralAddress",
      "outputs": [
        {
          "internalType": "address",
          "name": "",
          "type": "address"
        }
      ],
      "stateMutability": "view",
      "type": "function"
    },
    {
      "inputs": [
        {
          "internalType": "uint256",
          "name": "pairIndex",
          "type": "uint256"
        }
      ],
      "name": "getTotalLongAmount",
      "outputs": [
        {
          "internalType": "int256",
          "name": "",
          "type": "int256"
        }
      ],
      "stateMutability": "view",
      "type": "function"
    },
    {
      "inputs": [
        {
          "internalType": "uint256",
          "name": "pairIndex",
          "type": "uint256"
        }
      ],
      "name": "getTotalShortAmount",
      "outputs": [
        {
          "internalType": "int256",
          "name": "",
          "type": "int256"
        }
      ],
      "stateMutability": "view",
      "type": "function"
    },
    {
      "inputs": [
        {
          "internalType": "address",
          "name": "user",
          "type": "address"
        },
        {
          "internalType": "uint256",
          "name": "assetPairIndex",
          "type": "uint256"
        },
        {
          "internalType": "uint256",
          "name": "openTradesIdForPair",
          "type": "uint256"
        }
      ],
      "name": "getTradePositionBorrowFees",
      "outputs": [
        {
          "internalType": "int256",
          "name": "borrowFeeAmount",
          "type": "int256"
        }
      ],
      "stateMutability": "view",
      "type": "function"
    },
    {
      "inputs": [
        {
          "internalType": "bytes[]",
          "name": "priceUpdateData",
          "type": "bytes[]"
        },
        {
          "internalType": "uint256",
          "name": "pairIndex",
          "type": "uint256"
        }
      ],
      "name": "getTradingPairCurrentPrice",
      "outputs": [
        {
          "components": [
            {
              "internalType": "int64",
              "name": "price",
              "type": "int64"
            },
            {
              "internalType": "uint64",
              "name": "conf",
              "type": "uint64"
            },
            {
              "internalType": "int32",
              "name": "expo",
              "type": "int32"
            },
            {
              "internalType": "uint256",
              "name": "publishTime",
              "type": "uint256"
            }
          ],
          "internalType": "struct PythStructs.Price",
          "name": "",
          "type": "tuple"
        }
      ],
      "stateMutability": "payable",
      "type": "function"
    },
    {
      "inputs": [
        {
          "internalType": "address",
          "name": "user",
          "type": "address"
        },
        {
          "internalType": "uint256",
          "name": "assetPairIndex",
          "type": "uint256"
        },
        {
          "internalType": "uint256",
          "name": "openTradesIdForPair",
          "type": "uint256"
        }
      ],
      "name": "getUserLiquidationPrice",
      "outputs": [
        {
          "internalType": "int256",
          "name": "liquidationPrice",
          "type": "int256"
        },
        {
          "internalType": "int256",
          "name": "borrowFeeAmount",
          "type": "int256"
        }
      ],
      "stateMutability": "view",
      "type": "function"
    },
    {
      "inputs": [
        {
          "internalType": "address",
          "name": "user",
          "type": "address"
        },
        {
          "internalType": "uint256",
          "name": "pairIndex",
          "type": "uint256"
        }
      ],
      "name": "getUserOpenTradesForAsset",
      "outputs": [
        {
          "internalType": "uint256[3]",
          "name": "",
          "type": "uint256[3]"
        }
      ],
      "stateMutability": "view",
      "type": "function"
    },
    {
      "inputs": [
        {
          "internalType": "address",
          "name": "user",
          "type": "address"
        },
        {
          "internalType": "uint256",
          "name": "pairIndex",
          "type": "uint256"
        },
        {
          "internalType": "uint256",
          "name": "openTradesIdForPair",
          "type": "uint256"
        }
      ],
      "name": "getUserTradingPositionDetails",
      "outputs": [
        {
          "components": [
            {
              "internalType": "uint256",
              "name": "pairNumber",
              "type": "uint256"
            },
            {
              "internalType": "int256",
              "name": "openPrice",
              "type": "int256"
            },
            {
              "internalType": "int256",
              "name": "collateralAfterFee",
              "type": "int256"
            },
            {
              "internalType": "int256",
              "name": "leverage",
              "type": "int256"
            },
            {
              "internalType": "uint256",
              "name": "longShort",
              "type": "uint256"
            },
            {
              "internalType": "uint256",
              "name": "openTime",
              "type": "uint256"
            },
            {
              "internalType": "uint256",
              "name": "indexBorrowPercentArray",
              "type": "uint256"
            }
          ],
          "internalType": "struct OrderBook.PositionDetails",
          "name": "",
          "type": "tuple"
        }
      ],
      "stateMutability": "view",
      "type": "function"
    },
    {
      "inputs": [
        {
          "internalType": "address",
          "name": "user",
          "type": "address"
        },
        {
          "internalType": "uint256",
          "name": "pairIndex",
          "type": "uint256"
        },
        {
          "internalType": "uint256",
          "name": "userTradesIdForPair",
          "type": "uint256"
        },
        {
          "internalType": "bytes[]",
          "name": "priceUpdateData",
          "type": "bytes[]"
        }
      ],
      "name": "liquidateUser",
      "outputs": [],
      "stateMutability": "payable",
      "type": "function"
    },
    {
      "inputs": [
        {
          "internalType": "uint256",
          "name": "pairIndex",
          "type": "uint256"
        },
        {
          "internalType": "int256",
          "name": "amountCollateral",
          "type": "int256"
        },
        {
          "internalType": "int256",
          "name": "leverage",
          "type": "int256"
        },
        {
          "internalType": "uint256",
          "name": "orderType",
          "type": "uint256"
        },
        {
          "internalType": "bytes[]",
          "name": "priceUpdateData",
          "type": "bytes[]"
        }
      ],
      "name": "marketOrder",
      "outputs": [],
      "stateMutability": "payable",
      "type": "function"
    },
    {
      "inputs": [
        {
          "internalType": "uint256",
          "name": "pairIndex",
          "type": "uint256"
        },
        {
          "internalType": "uint256",
          "name": "userTradesIdForPair",
          "type": "uint256"
        },
        {
          "internalType": "bytes[]",
          "name": "priceUpdateData",
          "type": "bytes[]"
        }
      ],
      "name": "orderClose",
      "outputs": [],
      "stateMutability": "payable",
      "type": "function"
    },
    {
      "inputs": [],
      "name": "owner",
      "outputs": [
        {
          "internalType": "address",
          "name": "",
          "type": "address"
        }
      ],
      "stateMutability": "view",
      "type": "function"
    },
    {
      "inputs": [],
      "name": "renounceOwnership",
      "outputs": [],
      "stateMutability": "nonpayable",
      "type": "function"
    },
    {
      "inputs": [
        {
          "internalType": "int256",
          "name": "newBaseBorrowFeePercentage",
          "type": "int256"
        }
      ],
      "name": "setBaseBorrowFeePercentage",
      "outputs": [],
      "stateMutability": "nonpayable",
      "type": "function"
    },
    {
      "inputs": [
        {
          "internalType": "int256",
          "name": "newBotRewardsRate",
          "type": "int256"
        }
      ],
      "name": "setBotRewardsRate",
      "outputs": [],
      "stateMutability": "nonpayable",
      "type": "function"
    },
    {
      "inputs": [
        {
          "internalType": "int256",
          "name": "newBotRewardsBase",
          "type": "int256"
        }
      ],
      "name": "setBotsRewardsBase",
      "outputs": [],
      "stateMutability": "nonpayable",
      "type": "function"
    },
    {
      "inputs": [
        {
          "internalType": "address",
          "name": "newCollateralTokenAddress",
          "type": "address"
        }
      ],
      "name": "setCollateralTokenAddress",
      "outputs": [],
      "stateMutability": "nonpayable",
      "type": "function"
    },
    {
      "inputs": [
        {
          "internalType": "int256",
          "name": "newMaxBorrowInterestRate",
          "type": "int256"
        }
      ],
      "name": "setMaxBorrowInterestRate",
      "outputs": [],
      "stateMutability": "nonpayable",
      "type": "function"
    },
    {
      "inputs": [
        {
          "internalType": "uint256",
          "name": "pairIndex",
          "type": "uint256"
        },
        {
          "internalType": "int256",
          "name": "newMaxOpenInterest",
          "type": "int256"
        }
      ],
      "name": "setMaxOpenInterestForPair",
      "outputs": [],
      "stateMutability": "nonpayable",
      "type": "function"
    },
    {
      "inputs": [
        {
          "internalType": "int256",
          "name": "newMinTradeSize",
          "type": "int256"
        }
      ],
      "name": "setMinTradeSize",
      "outputs": [],
      "stateMutability": "nonpayable",
      "type": "function"
    },
    {
      "inputs": [
        {
          "internalType": "int256",
          "name": "newOpeningFeePercent",
          "type": "int256"
        }
      ],
      "name": "setOpeningFee",
      "outputs": [],
      "stateMutability": "nonpayable",
      "type": "function"
    },
    {
      "inputs": [
        {
          "internalType": "int256",
          "name": "newVariableBorrowFeePercentage",
          "type": "int256"
        }
      ],
      "name": "setVariableBorrowFeePercentage",
      "outputs": [],
      "stateMutability": "nonpayable",
      "type": "function"
    },
    {
      "inputs": [
        {
          "internalType": "address",
          "name": "newOwner",
          "type": "address"
        }
      ],
      "name": "transferOwnership",
      "outputs": [],
      "stateMutability": "nonpayable",
      "type": "function"
    },
    {
      "inputs": [],
      "name": "withdrawBotRewards",
      "outputs": [],
      "stateMutability": "nonpayable",
      "type": "function"
    },
    {
      "inputs": [
        {
          "internalType": "address",
          "name": "tokenAddress",
          "type": "address"
        },
        {
          "internalType": "uint256",
          "name": "amount",
          "type": "uint256"
        }
      ],
      "name": "withdrawErc20Token",
      "outputs": [],
      "stateMutability": "nonpayable",
      "type": "function"
    },
    {
      "inputs": [
        {
          "internalType": "address payable",
          "name": "_to",
          "type": "address"
        }
      ],
      "name": "withdrawEth",
      "outputs": [],
      "stateMutability": "payable",
      "type": "function"
    }
  ],
  "bytecode": {
    "object": "0x6080604052611d4c6004556102586005556064600655612710600755685150ae84a8cdf00000600855671bc16d674ec800006009556000600a553480156200004657600080fd5b5060405162003d1338038062003d1383398101604081905262000069916200042c565b60016000556200007933620001d0565b81518451146200009c5760405163f102e13760e01b815260040160405180910390fd5b8051825114620000bf5760405163f102e13760e01b815260040160405180910390fd5b600380546001600160a01b038088166001600160a01b0319928316179092558551600b55600280549289169290911691909117905560005b8451811015620001c3578481815181106200011657620001166200050a565b6020026020010151600c6000838152602001908152602001600020600001819055508181815181106200014d576200014d6200050a565b6020026020010151600c60008381526020019081526020016000206006019081620001799190620005af565b508381815181106200018f576200018f6200050a565b6020908102919091018101516000838152600c90925260409091206003015580620001ba816200067b565b915050620000f7565b50505050505050620006a3565b600180546001600160a01b038381166001600160a01b0319831681179093556040519116919082907f8be0079c531659141344cd1fd0a4f28419497f9722a3daafe3b4186f6b6457e090600090a35050565b80516001600160a01b03811681146200023a57600080fd5b919050565b634e487b7160e01b600052604160045260246000fd5b604051601f8201601f191681016001600160401b03811182821017156200028057620002806200023f565b604052919050565b60006001600160401b03821115620002a457620002a46200023f565b5060051b60200190565b600082601f830112620002c057600080fd5b81516020620002d9620002d38362000288565b62000255565b82815260059290921b84018101918181019086841115620002f957600080fd5b8286015b84811015620003165780518352918301918301620002fd565b509695505050505050565b6000601f83818401126200033457600080fd5b8251602062000347620002d38362000288565b82815260059290921b850181019181810190878411156200036757600080fd5b8287015b84811015620004205780516001600160401b03808211156200038d5760008081fd5b818a0191508a603f830112620003a35760008081fd5b8582015181811115620003ba57620003ba6200023f565b620003cd818a01601f1916880162000255565b915080825260408c81838601011115620003e75760008081fd5b60005b8281101562000407578481018201518482018a01528801620003ea565b505060009082018701528452509183019183016200036b565b50979650505050505050565b60008060008060008060c087890312156200044657600080fd5b620004518762000222565b9550620004616020880162000222565b60408801519095506001600160401b03808211156200047f57600080fd5b6200048d8a838b01620002ae565b95506060890151915080821115620004a457600080fd5b620004b28a838b01620002ae565b94506080890151915080821115620004c957600080fd5b620004d78a838b01620002ae565b935060a0890151915080821115620004ee57600080fd5b50620004fd89828a0162000321565b9150509295509295509295565b634e487b7160e01b600052603260045260246000fd5b600181811c908216806200053557607f821691505b6020821081036200055657634e487b7160e01b600052602260045260246000fd5b50919050565b601f821115620005aa57600081815260208120601f850160051c81016020861015620005855750805b601f850160051c820191505b81811015620005a65782815560010162000591565b5050505b505050565b81516001600160401b03811115620005cb57620005cb6200023f565b620005e381620005dc845462000520565b846200055c565b602080601f8311600181146200061b5760008415620006025750858301515b600019600386901b1c1916600185901b178555620005a6565b600085815260208120601f198616915b828110156200064c578886015182559484019460019091019084016200062b565b50858210156200066b5787850151600019600388901b60f8161c191681555b5050505050600190811b01905550565b6000600182016200069c57634e487b7160e01b600052601160045260246000fd5b5060010190565b61366080620006b36000396000f3fe6080604052600436106101f95760003560e01c8063a829f21d1161010d578063d6ef8f82116100a0578063eee2b6761161006f578063eee2b676146105f9578063f2fde38b14610619578063fa79440314610639578063fb8fbe1f14610657578063fc5dac381461067757600080fd5b8063d6ef8f8214610584578063d928e336146105a4578063dfdc329f146105b7578063ee9387de146105d757600080fd5b8063b8ed2eb4116100dc578063b8ed2eb4146104f1578063c01646cb14610511578063c700b0aa1461052f578063ca3e82571461054f57600080fd5b8063a829f21d14610454578063ab48a23a14610484578063b0a88075146104a4578063b8a077a5146104d157600080fd5b80634b16d1bc116101905780636698f9881161015f5780636698f988146103c3578063715018a6146103d85780638da5cb5b146103ed57806399484b411461041f5780639ed6b9201461043457600080fd5b80634b16d1bc146103185780634c70fb6d1461032d5780634fae32e71461034057806350c3cdc31461039657600080fd5b806325e16063116101cc57806325e16063146102bd57806337855bb7146102d05780633eb0ef2c146102e357806343b3b908146102f857600080fd5b80630188d579146101fe578063061ff1f0146102415780631b5042ac1461026e5780631ec3cdc71461029b575b600080fd5b34801561020a57600080fd5b5061022e610219366004612d68565b6000908152600c602052604090206001015490565b6040519081526020015b60405180910390f35b34801561024d57600080fd5b5061026161025c366004612d96565b610697565b6040516102389190612dc2565b34801561027a57600080fd5b5061028e610289366004612d68565b6106f6565b6040516102389190612e74565b3480156102a757600080fd5b506102bb6102b6366004612f24565b6108bc565b005b6102bb6102cb366004612f46565b610906565b6102bb6102de366004612fb6565b610986565b3480156102ef57600080fd5b5060055461022e565b34801561030457600080fd5b506102bb610313366004612d68565b610bef565b34801561032457600080fd5b50600a5461022e565b6102bb61033b366004613020565b610c2c565b61035361034e36600461308a565b610f59565b6040516102389190815160070b815260208083015167ffffffffffffffff169082015260408083015160030b908201526060918201519181019190915260800190565b3480156103a257600080fd5b506103b66103b1366004612f46565b6110e5565b604051610238919061311a565b3480156103cf57600080fd5b506102bb61121a565b3480156103e457600080fd5b506102bb611340565b3480156103f957600080fd5b506001546001600160a01b03165b6040516001600160a01b039091168152602001610238565b34801561042b57600080fd5b5060095461022e565b34801561044057600080fd5b506102bb61044f366004612d96565b611354565b34801561046057600080fd5b5061022e61046f366004612d68565b6000908152600c602052604090206002015490565b34801561049057600080fd5b506102bb61049f366004612d68565b6113f5565b3480156104b057600080fd5b506104c46104bf36600461314e565b611432565b6040516102389190613183565b3480156104dd57600080fd5b5061022e6104ec366004612d68565b6114f0565b3480156104fd57600080fd5b506102bb61050c366004612d68565b6116ab565b34801561051d57600080fd5b506002546001600160a01b0316610407565b34801561053b57600080fd5b506102bb61054a366004612f46565b6116e8565b34801561055b57600080fd5b5061056f61056a36600461314e565b61173c565b60408051928352602083019190915201610238565b34801561059057600080fd5b506102bb61059f366004612d68565b611990565b6102bb6105b2366004613191565b6119cd565b3480156105c357600080fd5b5061022e6105d236600461314e565b611ca5565b3480156105e357600080fd5b506105ec611d99565b60405161023891906131e4565b34801561060557600080fd5b506102bb610614366004612d68565b611ecb565b34801561062557600080fd5b506102bb610634366004612f46565b611f14565b34801561064557600080fd5b506003546001600160a01b0316610407565b34801561066357600080fd5b506102bb610672366004612d68565b611f8a565b34801561068357600080fd5b506102bb610692366004612d68565b611fc7565b61069f612cb2565b6001600160a01b0383166000908152600e6020908152604080832085845290915290819020815160608101928390529160039082845b8154815260200190600101908083116106d557505050505090505b92915050565b6107396040518060e00160405280600080191681526020016000815260200160008152602001600081526020016060815260200160608152602001606081525090565b6000828152600c6020908152604091829020825160e081018452815481526001820154818401526002820154818501526003820154606082015260048201805485518186028101860190965280865291949293608086019392908301828280156107c257602002820191906000526020600020905b8154815260200190600101908083116107ae575b505050505081526020016005820180548060200260200160405190810160405280929190818152602001828054801561081a57602002820191906000526020600020905b815481526020019060010190808311610806575b5050505050815260200160068201805461083390613246565b80601f016020809104026020016040519081016040528092919081815260200182805461085f90613246565b80156108ac5780601f10610881576101008083540402835291602001916108ac565b820191906000526020600020905b81548152906001019060200180831161088f57829003601f168201915b5050505050815250509050919050565b6108c4612004565b6000828152600c602052604080822060030183905551829184917fc367f8e1d2bee7f280ba56fece7aca3231c37fff84e5338da9fe46d7bfa610e89190a35050565b61090e612004565b6000816001600160a01b03164760405160006040518083038185875af1925050503d806000811461095b576040519150601f19603f3d011682016040523d82523d6000602084013e610960565b606091505b505090508061098257604051630c74658f60e01b815260040160405180910390fd5b5050565b6000868152600c60205260408120543391879187918a918891036109bc57604051621bca5160e61b815260040160405180910390fd5b80158015906109cc575080600114155b156109ea576040516302763ae360e11b815260040160405180910390fd5b8315806109f5575082155b15610a1357604051637018737760e11b815260040160405180910390fd5b600854620f4240610a248587613290565b610a2e91906132c0565b1215610a4d57604051633af9eaa560e01b815260040160405180910390fd5b80158015610a9357506000828152600c602052604090206002810154600390910154610a7991906132fc565b620f4240610a878587613290565b610a9191906132c0565b135b15610ab15760405163e72486b360e01b815260040160405180910390fd5b806001148015610af957506000828152600c602052604090206001810154600390910154610adf91906132fc565b620f4240610aed8587613290565b610af791906132c0565b135b15610b1757604051630a7f135360e41b815260040160405180910390fd5b6001600160a01b0385166000908152600e602090815260408083208584529091529020600390610b469061205e565b10610b64576040516306152e2f60e11b815260040160405180910390fd5b6308f0d180831315610b8957604051635694d08560e11b815260040160405180910390fd5b610b9161209d565b610b9c33308c6120f6565b610bab338c8c8c8c8c8c61219c565b6040518b9033907f02c61321c808585dc6593befb37f9909ee37888b439a1990c568e475dddb765590600090a3610be26001600055565b5050505050505050505050565b610bf7612004565b600a819055604051819033907f09a08cd5853e458b94e9c3e2a7b740876d700bc31a743f9ee135a345ca3dfdf390600090a350565b6001600160a01b0385166000908152600d60209081526040808320878452825280832086845290915281206001015486918691869103610c7f57604051638177d6b960e01b815260040160405180910390fd5b610c8761209d565b6001600160a01b0388166000908152600d602090815260408083208a845282528083208984528252808320815160e081018352815481526001820154938101939093526002810154918301919091526003810154606083015260048101546080830152600581015460a08301526006015460c082015290610d0b8a838a8a8a61238f565b905060008113610f22576001600160a01b038a166000908152600d602090815260408083208551845282528083208b845290915280822082815560018101839055600281018390556003810183905560048101839055600581018390556006019190915560808301518351606085015192850151610da393620f424091610d929190613290565b610d9c91906132c0565b600061258c565b6000898152600c6020908152604082206005018054600181018255908352912042910155610dd0896126ac565b6001600160a01b038a166000908152600e602090815260408083208c845290915281208960038110610e0457610e0461331c565b01556001600160a01b038a166000908152600e602090815260408083208551845290915281208960038110610e3b57610e3b61331c565b015560608201516040830151600a54620f42409291610e5991613290565b610e639190613290565b610e6d91906132c0565b600954610e7a9190613332565b336000908152600f602052604081208054909190610e9990849061335a565b9091555050815160408051918252602082018a90526001600160a01b038c16917fc49f1669c07127f11fd504cf7a83840a741e5646b0106157f132141762372513910160405180910390a281516040518291906001600160a01b038d16907f6273f181fac9230780c36df1cc086e5607a2fb9efc370b4b505947cf6ea95ea690600090a4610f43565b6040516313d19c2b60e31b8152600481018290526024015b60405180910390fd5b5050610f4f6001600055565b5050505050505050565b60408051608081018252600080825260208201819052918101829052606081019190915260025460405163d47eed4560e01b81526000916001600160a01b03169063d47eed4590610fb09088908890600401613396565b602060405180830381865afa158015610fcd573d6000803e3d6000fd5b505050506040513d601f19601f82011682018060405250810190610ff19190613432565b600254604051631df3cbc560e31b81529192506001600160a01b03169063ef9e5e289083906110269089908990600401613396565b6000604051808303818588803b15801561103f57600080fd5b505af1158015611053573d6000803e3d6000fd5b50506002546000878152600c6020526040908190205490516331d98b3f60e01b81526001600160a01b0390921694506331d98b3f935061109b92509060040190815260200190565b608060405180830381865afa1580156110b8573d6000803e3d6000fd5b505050506040513d601f19601f820116820180604052508101906110dc9190613490565b95945050505050565b6110ed612cd0565b6110f5612cd0565b60005b60058110156112135760005b6003811015611200576001600160a01b0385166000908152600d602090815260408083208584528252808320848452909152902060030154156111ee5760008161114f846003613520565b611159919061335a565b6001600160a01b0387166000908152600d602090815260408083208784528252808320868452825291829020825160e081018452815481526001820154928101929092526002810154928201929092526003820154606082015260048201546080820152600582015460a082015260069091015460c08201529091508482600f81106111e7576111e761331c565b6020020152505b806111f881613537565b915050611104565b508061120b81613537565b9150506110f8565b5092915050565b336000818152600f60205260408120549003611249576040516321a5c60960e21b815260040160405180910390fd5b61125161209d565b336000818152600f602052604080822080549083905560035491516323b872dd60e01b8152306004820152602481019490945260448401819052926001600160a01b03909116906323b872dd906064016020604051808303816000875af11580156112c0573d6000803e3d6000fd5b505050506040513d601f19601f820116820180604052508101906112e49190613550565b90508061130457604051630c74658f60e01b815260040160405180910390fd5b604051829033907f76f16872f39a52b614b047175768d06df48efa19020f1d0e066515817f97aa6290600090a3505061133d6001600055565b50565b611348612004565b61135260006128e5565b565b61135c612004565b60405163a9059cbb60e01b8152336004820152602481018290526000906001600160a01b0384169063a9059cbb906044016020604051808303816000875af11580156113ac573d6000803e3d6000fd5b505050506040513d601f19601f820116820180604052508101906113d09190613550565b9050806113f057604051630c74658f60e01b815260040160405180910390fd5b505050565b6113fd612004565b6005819055604051819033907f4edf89908de270aa88947c979c2c8988831490f7da4fa3c2a85f63c591256dda90600090a350565b6114726040518060e00160405280600081526020016000815260200160008152602001600081526020016000815260200160008152602001600081525090565b506001600160a01b03929092166000908152600d60209081526040808320938352928152828220938252928352819020815160e081018352815481526001820154938101939093526002810154918301919091526003810154606083015260048101546080830152600581015460a08301526006015460c082015290565b6000818152600c60209081526040808320815160e08101835281548152600182015481850152600282015481840152600382015460608201526004820180548451818702810187019095528085528695929460808601939092919083018282801561157a57602002820191906000526020600020905b815481526020019060010190808311611566575b50505050508152602001600582018054806020026020016040519081016040528092919081815260200182805480156115d257602002820191906000526020600020905b8154815260200190600101908083116115be575b505050505081526020016006820180546115eb90613246565b80601f016020809104026020016040519081016040528092919081815260200182805461161790613246565b80156116645780601f1061163957610100808354040283529160200191611664565b820191906000526020600020905b81548152906001019060200180831161164757829003601f168201915b5050509190925250505060808101518051919250600090611686600184613572565b815181106116965761169661331c565b60200260200101519050809350505050919050565b6116b3612004565b6009819055604051819033907fdb7c774d897a6a77bf5d60cf960bf7bb323e10270b93345c1a63eba5205a880b90600090a350565b6116f0612004565b600380546001600160a01b0319166001600160a01b03831690811790915560405133907fa99c2dd2e7b321e9734aede5fc2a795ab9fc50063aad4d70060dfc01a35fa84790600090a350565b6001600160a01b0383166000908152600d6020908152604080832085845282528083208484529091528120600101548190859085908590840361179257604051638177d6b960e01b815260040160405180910390fd5b6001600160a01b0388166000908152600d602090815260408083208a845282528083208984528252808320815160e0810183528154815260018201549381019390935260028101549183019190915260038101546060830152600481015460808301819052600582015460a084015260069091015460c083015290919061181d908b908b908b612937565b9050610e1061183262989680620f4240613290565b61183c9190613290565b826060015183604001516118509190613290565b60a084015161185f9042613572565b6118699084613290565b6118739190613290565b61187d91906132c0565b9550816080015160000361190557606082015161189d620f424088613290565b6118a791906132c0565b620f424083606001516118ba91906132fc565b606084015160208501516118d190620f4240613290565b6118db91906132c0565b6118e59190613290565b6118f29062989680613290565b6118fc9190613332565b96505050611985565b8160800151600103611982576060820151611923620f424088613290565b61192d91906132c0565b620f424083606001516119409190613332565b6060840151602085015161195790620f4240613290565b61196191906132c0565b61196b9190613290565b6119789062989680613290565b6118fc91906132fc565b50505b505050935093915050565b611998612004565b6006819055604051819033907f279d43723892d10e0136d5738a51dd6e241ed079ed997fc0a9b66e6246dcd34890600090a350565b336000818152600d602090815260408083208884528252808320878452909152812060010154869186919003611a1657604051638177d6b960e01b815260040160405180910390fd5b611a1e61209d565b336000818152600d602090815260408083208b845282528083208a84528252808320815160e081018352815481526001820154938101939093526002810154918301919091526003810154606083015260048101546080830152600581015460a08301526006015460c082015291611a9990838a8a8a61238f565b9050611aad82604001518360600151612bb6565b611ab790826132fc565b336000818152600d602090815260408083208751845282528083208d845282528083208381556001810184905560028101849055600380820185905560048201859055600582018590556006909101849055938352600e82528083208e8452909152812092935091908a908110611b3057611b3061331c565b0181905550611b5682608001518a620f424085606001518660400151610d929190613290565b6000898152600c6020908152604082206005018054600181018255908352912042910155611b83896126ac565b6000811315611c295760035460405163a9059cbb60e01b81523360048201526024810183905282916000916001600160a01b039091169063a9059cbb906044016020604051808303816000875af1158015611be2573d6000803e3d6000fd5b505050506040513d601f19601f82011682018060405250810190611c069190613550565b905080611c2657604051630c74658f60e01b815260040160405180910390fd5b50505b815160405189815233907fdd1bdc77e3cc244141600de256428e5a4fa93f9ba200229891d49111390692229060200160405180910390a3815160405182919033907f753ff5afc7647ecd155d0b263a97dddd9f9fcd2a5feef19cdb4f28533cadf86990600090a45050611c9c6001600055565b50505050505050565b6001600160a01b0383166000908152600d6020908152604080832085845282528083208484528252808320815160e0810183528154815260018201549381019390935260028101549183019190915260038101546060830152600481015460808301819052600582015460a084015260069091015460c08301528290611d2f908790879087612937565b9050610e10611d4462989680620f4240613290565b611d4e9190613290565b82606001518360400151611d629190613290565b60a0840151611d719042613572565b611d7b9084613290565b611d859190613290565b611d8f91906132c0565b9695505050505050565b60606000600b5467ffffffffffffffff811115611db857611db861344b565b604051908082528060200260200182016040528015611deb57816020015b6060815260200190600190039081611dd65790505b50905060005b600b54811015611ec5576000818152600c602052604090206006018054611e1790613246565b80601f0160208091040260200160405190810160405280929190818152602001828054611e4390613246565b8015611e905780601f10611e6557610100808354040283529160200191611e90565b820191906000526020600020905b815481529060010190602001808311611e7357829003601f168201915b5050505050828281518110611ea757611ea761331c565b60200260200101819052508080611ebd90613537565b915050611df1565b50919050565b611ed3612004565b600481905560408051338152602081018390527fc9efb4e68e13bfdb30aeb0a7d43fae359a9de193cf2b71a9e35a287078a1ffe2910160405180910390a150565b611f1c612004565b6001600160a01b038116611f815760405162461bcd60e51b815260206004820152602660248201527f4f776e61626c653a206e6577206f776e657220697320746865207a65726f206160448201526564647265737360d01b6064820152608401610f3a565b61133d816128e5565b611f92612004565b6008819055604051819033907fbb9bc6316da017b8faa91999773f59fe52449c5bc016cee9ba81e12133b8c3fc90600090a350565b611fcf612004565b6007819055604051819033907faca235ebf6db7deecaf2994795c8d532afd1b2bec396708e78d8971f854e7d9990600090a350565b6001546001600160a01b031633146113525760405162461bcd60e51b815260206004820181905260248201527f4f776e61626c653a2063616c6c6572206973206e6f7420746865206f776e65726044820152606401610f3a565b6000805b6003811015611ec55782816003811061207d5761207d61331c565b0154612089908361335a565b91508061209581613537565b915050612062565b6002600054036120ef5760405162461bcd60e51b815260206004820152601f60248201527f5265656e7472616e637947756172643a207265656e7472616e742063616c6c006044820152606401610f3a565b6002600055565b6003546040516323b872dd60e01b81526001600160a01b03858116600483015284811660248301526044820184905260009216906323b872dd906064016020604051808303816000875af1158015612152573d6000803e3d6000fd5b505050506040513d601f19601f820116820180604052508101906121769190613550565b90508061219657604051630c74658f60e01b815260040160405180910390fd5b50505050565b60006121a88686612bb6565b6121b290876132fc565b6001600160a01b0389166000908152600e602090815260408083208b84529091528120919250906121e290612bef565b6001600160a01b038a166000908152600e602090815260408083208c84529091529020909150600190826003811061221c5761221c61331c565b01556122428589620f42406122318a87613290565b61223b91906132c0565b600161258c565b6000888152600c602090815260408220600501805460018101825590835291204291015561226f886126ac565b600061227c85858b610f59565b9050600061228c87836000612c2d565b60070b90506040518060e001604052808b8152602001828152602001858152602001898152602001888152602001836060015181526020016001600c60008e8152602001908152602001600020600501805490506122ea9190613572565b90526001600160a01b038c166000818152600d602090815260408083208f84528252808320888452825280832085518155918501516001830155848101516002830155606085015160038301556080850151600483015560a0850151600583015560c090940151600690910155915185928d92917f06815e86fb14e66bb1dc3a385520944e53d97411395ddb32ef15afe1178191fd9190a45050505050505050505050565b6000806123a184848860000151610f59565b905060006123b9888860000151896080015189612937565b905060006064610e106123d2620f424062989680613290565b6123dc9190613290565b6123e69190613290565b60648960a00151426123f89190613572565b60408b015160608c015161240c9087613290565b6124169190613290565b6124209190613290565b61242a9190613290565b61243491906132c0565b90506000806124498a60800151866001612c2d565b60070b8a6020015161245b91906132fc565b60405190915081907f7ffc13b25ce79fee35573354594e873bbe43761fc8ba593ed828116ab2a4523d90600090a289608001516000036124ee57620f42408a602001518b60400151838d606001516124b39190613290565b6124bd9190613290565b6124c791906132c0565b6124d191906132c0565b838b604001516124e191906132fc565b6124eb91906132fc565b91505b896080015160010361255357620f42408a602001518b60400151838d606001516125189190613290565b6125229190613290565b61252c91906132c0565b61253691906132c0565b838b6040015161254691906132fc565b6125509190613332565b91505b60405182907f516ea507b82ab198d7e651c9242f8a7aa3f5eabc5f35c803a27394c57cd8b24390600090a2509998505050505050505050565b836000036125ed5780156125c6576000838152600c6020526040812060020180548492906125bb908490613332565b909155506125ed9050565b6000838152600c6020526040812060020180548492906125e79084906132fc565b90915550505b8360010361264e578015612627576000838152600c60205260408120600101805484929061261c908490613332565b9091555061264e9050565b6000838152600c6020526040812060010180548492906126489084906132fc565b90915550505b6000838152600c602052604090819020600281015460019091015491517f942bc6d740ed3e211cd49465dc53eaab030a9245f4c31b365d2e355fa20b2e429261269e928252602082015260400190565b60405180910390a150505050565b6000818152600c60205260408120600201541580156126da57506000828152600c6020526040902060010154155b1561271e576000828152600c602052604081206126fc91600590910190612d36565b6000828152600c6020526040812061271991600490910190612d36565b61287d565b6000828152600c60205260408120600201549003612779576000828152600c60205260409020600381015460019091015460075461275e90600019613290565b6127689190613290565b61277291906132c0565b905061287d565b6000828152600c602052604081206001015490036127b7576000828152600c6020526040902060038101546002909101546007546127689190613290565b6000828152600c6020526040902060018181015460029092015490916127dc916132c0565b1315612808576000828152600c6020526040902060018101546002909101546006546127689190613290565b6000828152600c60205260409020600181810154600290920154909161282d916132c0565b121561285b576000828152600c60205260409020600281015460019091015460065461275e90600019613290565b6000828152600c6020526040902060018101546002909101540361287d575060005b6000828152600c60209081526040808320600401805460018101825581855292842090920184905591849052905183917f9b6e0867c2485b2217b074bced73d5217ac7fca2d555047bdf3c9b5016a43f3e916128d99190613585565b60405180910390a25050565b600180546001600160a01b038381166001600160a01b0319831681179093556040519116919082907f8be0079c531659141344cd1fd0a4f28419497f9722a3daafe3b4186f6b6457e090600090a35050565b6000838152600c60209081526040808320600501546001600160a01b0388168452600d8352818420878552835281842085855290925282206006015482815b6000888152600c602052604090206005015461299490600190613572565b811015612a62576000888152600c602052604090206005018054829081106129be576129be61331c565b60009182526020808320909101548a8352600c90915260409091206005016129e783600161335a565b815481106129f7576129f761331c565b9060005260206000200154612a0c9190613572565b6000898152600c60205260409020600401805483908110612a2f57612a2f61331c565b9060005260206000200154612a449190613290565b612a4e9083613332565b915080612a5a81613537565b915050612976565b506000878152600c60205260409020600501612a7f600185613572565b81548110612a8f57612a8f61331c565b906000526020600020015442612aa59190613572565b6000888152600c60205260409020600401612ac1600186613572565b81548110612ad157612ad161331c565b9060005260206000200154612ae69190613290565b612af09082613332565b6000888152600c602052604081206005018054929350909184908110612b1857612b1861331c565b9060005260206000200154426001612b30919061335a565b612b3a9190613572565b6000898152600c6020526040902060050154612b57908590613572565b612b619190613290565b612b6b90836132c0565b9050600087600003612b925781600554612b859190613332565b9550612bae945050505050565b87600103612ba85781600554612b8591906132fc565b50505050505b949350505050565b600080620f4240612bc78486613290565b612bd191906132c0565b90506298968060045482612be59190613290565b612bae91906132c0565b6000805b6003811015611ec557828160038110612c0e57612c0e61331c565b0154600003612c1b578091505b80612c2581613537565b915050612bf3565b60008084158015612c3c575082155b15612c595760208401518451612c5291906135cc565b9050612bae565b84158015612c675750826001145b15612c7d5760208401518451612c5291906135fb565b846001148015612c8b575082155b15612ca15760208401518451612c5291906135fb565b602084015184516110dc91906135cc565b60405180606001604052806003906020820280368337509192915050565b604051806101e00160405280600f905b612d206040518060e00160405280600081526020016000815260200160008152602001600081526020016000815260200160008152602001600081525090565b815260200190600190039081612ce05790505090565b508054600082559060005260206000209081019061133d91905b80821115612d645760008155600101612d50565b5090565b600060208284031215612d7a57600080fd5b5035919050565b6001600160a01b038116811461133d57600080fd5b60008060408385031215612da957600080fd5b8235612db481612d81565b946020939093013593505050565b60608101818360005b6003811015612dea578151835260209283019290910190600101612dcb565b50505092915050565b600081518084526020808501945080840160005b83811015612e2357815187529582019590820190600101612e07565b509495945050505050565b6000815180845260005b81811015612e5457602081850181015186830182015201612e38565b506000602082860101526020601f19601f83011685010191505092915050565b6000602080835261010083018451828501528185015160408501526040850151606085015260608501516080850152608085015160e060a0860152818151808452610120870191508483019350600092505b80831015612ee65783518252928401926001929092019190840190612ec6565b5060a08701519350601f199250828682030160c0870152612f078185612df3565b9350505060c0850151818584030160e0860152611d8f8382612e2e565b60008060408385031215612f3757600080fd5b50508035926020909101359150565b600060208284031215612f5857600080fd5b8135612f6381612d81565b9392505050565b60008083601f840112612f7c57600080fd5b50813567ffffffffffffffff811115612f9457600080fd5b6020830191508360208260051b8501011115612faf57600080fd5b9250929050565b60008060008060008060a08789031215612fcf57600080fd5b86359550602087013594506040870135935060608701359250608087013567ffffffffffffffff81111561300257600080fd5b61300e89828a01612f6a565b979a9699509497509295939492505050565b60008060008060006080868803121561303857600080fd5b853561304381612d81565b94506020860135935060408601359250606086013567ffffffffffffffff81111561306d57600080fd5b61307988828901612f6a565b969995985093965092949392505050565b60008060006040848603121561309f57600080fd5b833567ffffffffffffffff8111156130b657600080fd5b6130c286828701612f6a565b909790965060209590950135949350505050565b805182526020810151602083015260408101516040830152606081015160608301526080810151608083015260a081015160a083015260c081015160c08301525050565b610d208101818360005b600f811015612dea576131388383516130d6565b60e0929092019160209190910190600101613124565b60008060006060848603121561316357600080fd5b833561316e81612d81565b95602085013595506040909401359392505050565b60e081016106f082846130d6565b600080600080606085870312156131a757600080fd5b8435935060208501359250604085013567ffffffffffffffff8111156131cc57600080fd5b6131d887828801612f6a565b95989497509550505050565b6000602080830181845280855180835260408601915060408160051b870101925083870160005b8281101561323957603f19888603018452613227858351612e2e565b9450928501929085019060010161320b565b5092979650505050505050565b600181811c9082168061325a57607f821691505b602082108103611ec557634e487b7160e01b600052602260045260246000fd5b634e487b7160e01b600052601160045260246000fd5b80820260008212600160ff1b841416156132ac576132ac61327a565b81810583148215176106f0576106f061327a565b6000826132dd57634e487b7160e01b600052601260045260246000fd5b600160ff1b8214600019841416156132f7576132f761327a565b500590565b81810360008312801583831316838312821617156112135761121361327a565b634e487b7160e01b600052603260045260246000fd5b80820182811260008312801582168215821617156133525761335261327a565b505092915050565b808201808211156106f0576106f061327a565b81835281816020850137506000828201602090810191909152601f909101601f19169091010190565b60208082528181018390526000906040600585901b8401810190840186845b8781101561342557868403603f190183528135368a9003601e190181126133db57600080fd5b8901858101903567ffffffffffffffff8111156133f757600080fd5b80360382131561340657600080fd5b61341186828461336d565b9550505091840191908401906001016133b5565b5091979650505050505050565b60006020828403121561344457600080fd5b5051919050565b634e487b7160e01b600052604160045260246000fd5b805167ffffffffffffffff8116811461347957600080fd5b919050565b8051600381900b811461347957600080fd5b6000608082840312156134a257600080fd5b6040516080810181811067ffffffffffffffff821117156134d357634e487b7160e01b600052604160045260246000fd5b6040528251600781900b81146134e857600080fd5b81526134f660208401613461565b60208201526135076040840161347e565b6040820152606083015160608201528091505092915050565b80820281158282048414176106f0576106f061327a565b6000600182016135495761354961327a565b5060010190565b60006020828403121561356257600080fd5b81518015158114612f6357600080fd5b818103818111156106f0576106f061327a565b6020808252825482820181905260008481528281209092916040850190845b818110156135c0578354835260019384019392850192016135a4565b50909695505050505050565b600781810b9083900b01677fffffffffffffff8113677fffffffffffffff19821217156106f0576106f061327a565b600782810b9082900b03677fffffffffffffff198112677fffffffffffffff821317156106f0576106f061327a56fea264697066735822122096016318b899c3ea82380961b5a29643488d9b2b2e1c128c64d8c51187f3dd8864736f6c63430008130033",
    "linkReferences": {}
  },
  "methodIdentifiers": {
    "getAllUserOpenTrades(address)": "50c3cdc3",
    "getAssetPairDetails(uint256)": "1b5042ac",
    "getAssetPairIndexSymbol()": "ee9387de",
    "getBaseBorrowFee()": "3eb0ef2c",
    "getBotRewardBase()": "99484b41",
    "getBotRewardRate()": "4b16d1bc",
    "getCurrentBorrowRate(uint256)": "b8a077a5",
    "getPythPriceFeedAddress()": "c01646cb",
    "getTokenCollateralAddress()": "fa794403",
    "getTotalLongAmount(uint256)": "a829f21d",
    "getTotalShortAmount(uint256)": "0188d579",
    "getTradePositionBorrowFees(address,uint256,uint256)": "dfdc329f",
    "getTradingPairCurrentPrice(bytes[],uint256)": "4fae32e7",
    "getUserLiquidationPrice(address,uint256,uint256)": "ca3e8257",
    "getUserOpenTradesForAsset(address,uint256)": "061ff1f0",
    "getUserTradingPositionDetails(address,uint256,uint256)": "b0a88075",
    "liquidateUser(address,uint256,uint256,bytes[])": "4c70fb6d",
    "marketOrder(uint256,int256,int256,uint256,bytes[])": "37855bb7",
    "orderClose(uint256,uint256,bytes[])": "d928e336",
    "owner()": "8da5cb5b",
    "renounceOwnership()": "715018a6",
    "setBaseBorrowFeePercentage(int256)": "ab48a23a",
    "setBotRewardsRate(int256)": "43b3b908",
    "setBotsRewardsBase(int256)": "b8ed2eb4",
    "setCollateralTokenAddress(address)": "c700b0aa",
    "setMaxBorrowInterestRate(int256)": "fc5dac38",
    "setMaxOpenInterestForPair(uint256,int256)": "1ec3cdc7",
    "setMinTradeSize(int256)": "fb8fbe1f",
    "setOpeningFee(int256)": "eee2b676",
    "setVariableBorrowFeePercentage(int256)": "d6ef8f82",
    "transferOwnership(address)": "f2fde38b",
    "withdrawBotRewards()": "6698f988",
    "withdrawErc20Token(address,uint256)": "9ed6b920",
    "withdrawEth(address)": "25e16063"
  },
  "id": 34
}