{
  "abi": [
    {
      "inputs": [
        {
          "internalType": "address",
          "name": "pythPriceFeedAddress",
          "type": "address"
        },
        {
          "internalType": "address",
          "name": "tokenCollateralAddress",
          "type": "address"
        },
        {
          "internalType": "bytes32[]",
          "name": "pairPriceFeedAddressId",
          "type": "bytes32[]"
        },
        {
          "internalType": "int256[]",
          "name": "maxOpenInterest",
          "type": "int256[]"
        },
        {
          "internalType": "uint256[]",
          "name": "pairIndex",
          "type": "uint256[]"
        },
        {
          "internalType": "string[]",
          "name": "pairSymbol",
          "type": "string[]"
        }
      ],
      "stateMutability": "nonpayable",
      "type": "constructor"
    },
    {
      "inputs": [],
      "name": "OrderBook__InvalidOrderType",
      "type": "error"
    },
    {
      "inputs": [],
      "name": "OrderBook__InvalidTradingPair",
      "type": "error"
    },
    {
      "inputs": [],
      "name": "OrderBook__MaxLeverageIs150",
      "type": "error"
    },
    {
      "inputs": [],
      "name": "OrderBook__MaxNumberOfOpenTrades3Reached",
      "type": "error"
    },
    {
      "inputs": [],
      "name": "OrderBook__MaxOpenInterestReachedLongs",
      "type": "error"
    },
    {
      "inputs": [],
      "name": "OrderBook__MaxOpenInterestShortsReached",
      "type": "error"
    },
    {
      "inputs": [],
      "name": "OrderBook__NeedsMoreThanZero",
      "type": "error"
    },
    {
      "inputs": [],
      "name": "OrderBook__NoBotRewards",
      "type": "error"
    },
    {
      "inputs": [],
      "name": "OrderBook__ParameterArraysMustBeTheSameLength",
      "type": "error"
    },
    {
      "inputs": [],
      "name": "OrderBook__TokenApprovalFailed",
      "type": "error"
    },
    {
      "inputs": [],
      "name": "OrderBook__TradeSizeTooSmall",
      "type": "error"
    },
    {
      "inputs": [],
      "name": "OrderBook__TransferFailed",
      "type": "error"
    },
    {
      "inputs": [],
      "name": "OrderBook__UserClosingNonExistingPosition",
      "type": "error"
    },
    {
      "inputs": [
        {
          "internalType": "int256",
          "name": "userPNL",
          "type": "int256"
        }
      ],
      "name": "OrderBook__UserPositionNotOpenForLiquidation",
      "type": "error"
    },
    {
      "anonymous": false,
      "inputs": [
        {
          "indexed": false,
          "internalType": "bytes[]",
          "name": "priceUpdateData",
          "type": "bytes[]"
        }
      ],
      "name": "AdjustedPrice",
      "type": "event"
    },
    {
      "anonymous": false,
      "inputs": [
        {
          "indexed": true,
          "internalType": "uint256",
          "name": "pairIndex",
          "type": "uint256"
        },
        {
          "indexed": true,
          "internalType": "int256",
          "name": "borrowFee",
          "type": "int256"
        },
        {
          "indexed": true,
          "internalType": "uint256",
          "name": "orderType",
          "type": "uint256"
        }
      ],
      "name": "AvgBorrowFeeCalculation",
      "type": "event"
    },
    {
      "anonymous": false,
      "inputs": [
        {
          "indexed": true,
          "internalType": "address",
          "name": "user",
          "type": "address"
        },
        {
          "indexed": true,
          "internalType": "int256",
          "name": "newBaseBorrowFeePercentage",
          "type": "int256"
        }
      ],
      "name": "BaseBorrowFeeChanged",
      "type": "event"
    },
    {
      "anonymous": false,
      "inputs": [
        {
          "indexed": true,
          "internalType": "address",
          "name": "user",
          "type": "address"
        },
        {
          "indexed": true,
          "internalType": "int256",
          "name": "newVariableBorrowFeePercentage",
          "type": "int256"
        }
      ],
      "name": "BaseVariableBorrowFeeChanged",
      "type": "event"
    },
    {
      "anonymous": false,
      "inputs": [
        {
          "indexed": true,
          "internalType": "uint256",
          "name": "pairIndex",
          "type": "uint256"
        },
        {
          "indexed": false,
          "internalType": "int256[]",
          "name": "borrowFees",
          "type": "int256[]"
        }
      ],
      "name": "BorrowFeeUpdated",
      "type": "event"
    },
    {
      "anonymous": false,
      "inputs": [
        {
          "indexed": true,
          "internalType": "address",
          "name": "user",
          "type": "address"
        },
        {
          "indexed": true,
          "internalType": "int256",
          "name": "newBotRewardsBase",
          "type": "int256"
        }
      ],
      "name": "BotRewardsBaseChanged",
      "type": "event"
    },
    {
      "anonymous": false,
      "inputs": [
        {
          "indexed": true,
          "internalType": "address",
          "name": "botAddress",
          "type": "address"
        },
        {
          "indexed": true,
          "internalType": "uint256",
          "name": "amount",
          "type": "uint256"
        }
      ],
      "name": "BotRewardsClaimed",
      "type": "event"
    },
    {
      "anonymous": false,
      "inputs": [
        {
          "indexed": true,
          "internalType": "address",
          "name": "user",
          "type": "address"
        },
        {
          "indexed": true,
          "internalType": "int256",
          "name": "newBotRewardsRate",
          "type": "int256"
        }
      ],
      "name": "BotRewardsRateChanged",
      "type": "event"
    },
    {
      "anonymous": false,
      "inputs": [
        {
          "indexed": true,
          "internalType": "address",
          "name": "user",
          "type": "address"
        },
        {
          "indexed": true,
          "internalType": "address",
          "name": "newTokenAddress",
          "type": "address"
        }
      ],
      "name": "CollateralTokenChanged",
      "type": "event"
    },
    {
      "anonymous": false,
      "inputs": [
        {
          "indexed": true,
          "internalType": "address",
          "name": "user",
          "type": "address"
        },
        {
          "indexed": true,
          "internalType": "uint256",
          "name": "pairIndex",
          "type": "uint256"
        }
      ],
      "name": "MarketTrade",
      "type": "event"
    },
    {
      "anonymous": false,
      "inputs": [
        {
          "indexed": true,
          "internalType": "address",
          "name": "user",
          "type": "address"
        },
        {
          "indexed": true,
          "internalType": "int256",
          "name": "newMaxBorrowInterestRate",
          "type": "int256"
        }
      ],
      "name": "MaxBorrowRateChanged",
      "type": "event"
    },
    {
      "anonymous": false,
      "inputs": [
        {
          "indexed": true,
          "internalType": "uint256",
          "name": "pairIndex",
          "type": "uint256"
        },
        {
          "indexed": true,
          "internalType": "int256",
          "name": "maxOpenInterest",
          "type": "int256"
        }
      ],
      "name": "MaxOpenInterestChanged",
      "type": "event"
    },
    {
      "anonymous": false,
      "inputs": [
        {
          "indexed": true,
          "internalType": "address",
          "name": "user",
          "type": "address"
        },
        {
          "indexed": true,
          "internalType": "int256",
          "name": "newMinTradeSize",
          "type": "int256"
        }
      ],
      "name": "MinTradeSizeChanged",
      "type": "event"
    },
    {
      "anonymous": false,
      "inputs": [
        {
          "indexed": false,
          "internalType": "int256",
          "name": "interestLongs",
          "type": "int256"
        },
        {
          "indexed": false,
          "internalType": "int256",
          "name": "interestShorts",
          "type": "int256"
        }
      ],
      "name": "OpenInterestUpdated",
      "type": "event"
    },
    {
      "anonymous": false,
      "inputs": [
        {
          "indexed": false,
          "internalType": "address",
          "name": "user",
          "type": "address"
        },
        {
          "indexed": false,
          "internalType": "int256",
          "name": "newOpeningFee",
          "type": "int256"
        }
      ],
      "name": "OpeningFeeChanged",
      "type": "event"
    },
    {
      "anonymous": false,
      "inputs": [
        {
          "indexed": true,
          "internalType": "address",
          "name": "newOwner",
          "type": "address"
        }
      ],
      "name": "OrderBookOwnerUpdated",
      "type": "event"
    },
    {
      "anonymous": false,
      "inputs": [
        {
          "indexed": true,
          "internalType": "address",
          "name": "user",
          "type": "address"
        },
        {
          "indexed": true,
          "internalType": "uint256",
          "name": "pairIndex",
          "type": "uint256"
        },
        {
          "indexed": false,
          "internalType": "uint256",
          "name": "userTradeIndex",
          "type": "uint256"
        }
      ],
      "name": "OrderClosed",
      "type": "event"
    },
    {
      "anonymous": false,
      "inputs": [
        {
          "indexed": true,
          "internalType": "address",
          "name": "userAddress",
          "type": "address"
        },
        {
          "indexed": true,
          "internalType": "uint256",
          "name": "pairIndex",
          "type": "uint256"
        },
        {
          "indexed": true,
          "internalType": "int256",
          "name": "userPNL",
          "type": "int256"
        }
      ],
      "name": "OrderClosedTradeDetails",
      "type": "event"
    },
    {
      "anonymous": false,
      "inputs": [
        {
          "indexed": true,
          "internalType": "address",
          "name": "previousOwner",
          "type": "address"
        },
        {
          "indexed": true,
          "internalType": "address",
          "name": "newOwner",
          "type": "address"
        }
      ],
      "name": "OwnershipTransferred",
      "type": "event"
    },
    {
      "anonymous": false,
      "inputs": [
        {
          "indexed": true,
          "internalType": "int256",
          "name": "priceChange",
          "type": "int256"
        }
      ],
      "name": "PriceChange",
      "type": "event"
    },
    {
      "anonymous": false,
      "inputs": [
        {
          "indexed": false,
          "internalType": "uint256",
          "name": "startIndex",
          "type": "uint256"
        }
      ],
      "name": "StartIndex",
      "type": "event"
    },
    {
      "anonymous": false,
      "inputs": [
        {
          "indexed": false,
          "internalType": "int256",
          "name": "sum",
          "type": "int256"
        }
      ],
      "name": "Sum",
      "type": "event"
    },
    {
      "anonymous": false,
      "inputs": [
        {
          "indexed": false,
          "internalType": "uint256",
          "name": "timeArrayLength",
          "type": "uint256"
        }
      ],
      "name": "TimeArrayLength",
      "type": "event"
    },
    {
      "anonymous": false,
      "inputs": [
        {
          "indexed": true,
          "internalType": "address",
          "name": "user",
          "type": "address"
        },
        {
          "indexed": true,
          "internalType": "uint256",
          "name": "pairIndex",
          "type": "uint256"
        },
        {
          "indexed": true,
          "internalType": "uint256",
          "name": "userPairTradeIndex",
          "type": "uint256"
        }
      ],
      "name": "TradeOpened",
      "type": "event"
    },
    {
      "anonymous": false,
      "inputs": [
        {
          "indexed": true,
          "internalType": "address",
          "name": "user",
          "type": "address"
        },
        {
          "indexed": false,
          "internalType": "uint256",
          "name": "pairIndex",
          "type": "uint256"
        },
        {
          "indexed": false,
          "internalType": "uint256",
          "name": "userTradeIndex",
          "type": "uint256"
        }
      ],
      "name": "UserLiquidated",
      "type": "event"
    },
    {
      "anonymous": false,
      "inputs": [
        {
          "indexed": true,
          "internalType": "address",
          "name": "userAddress",
          "type": "address"
        },
        {
          "indexed": true,
          "internalType": "uint256",
          "name": "pairIndex",
          "type": "uint256"
        },
        {
          "indexed": true,
          "internalType": "int256",
          "name": "userPNL",
          "type": "int256"
        }
      ],
      "name": "UserLiquidationDetails",
      "type": "event"
    },
    {
      "anonymous": false,
      "inputs": [
        {
          "indexed": true,
          "internalType": "int256",
          "name": "userPNl",
          "type": "int256"
        }
      ],
      "name": "UserPNL",
      "type": "event"
    },
    {
      "inputs": [
        {
          "internalType": "address",
          "name": "user",
          "type": "address"
        }
      ],
      "name": "getAllUserOpenTrades",
      "outputs": [
        {
          "components": [
            {
              "internalType": "uint256",
              "name": "pairNumber",
              "type": "uint256"
            },
            {
              "internalType": "int256",
              "name": "openPrice",
              "type": "int256"
            },
            {
              "internalType": "int256",
              "name": "collateralAfterFee",
              "type": "int256"
            },
            {
              "internalType": "int256",
              "name": "leverage",
              "type": "int256"
            },
            {
              "internalType": "uint256",
              "name": "longShort",
              "type": "uint256"
            },
            {
              "internalType": "uint256",
              "name": "openTime",
              "type": "uint256"
            },
            {
              "internalType": "uint256",
              "name": "indexBorrowPercentArray",
              "type": "uint256"
            }
          ],
          "internalType": "struct OrderBook.PositionDetails[15]",
          "name": "",
          "type": "tuple[15]"
        }
      ],
      "stateMutability": "view",
      "type": "function"
    },
    {
      "inputs": [
        {
          "internalType": "uint256",
          "name": "pairIndex",
          "type": "uint256"
        }
      ],
      "name": "getAssetPairDetails",
      "outputs": [
        {
          "components": [
            {
              "internalType": "bytes32",
              "name": "pythPriceFeedAddress",
              "type": "bytes32"
            },
            {
              "internalType": "int256",
              "name": "assetTotalShorts",
              "type": "int256"
            },
            {
              "internalType": "int256",
              "name": "assetTotalLongs",
              "type": "int256"
            },
            {
              "internalType": "int256",
              "name": "maxOpenInterest",
              "type": "int256"
            },
            {
              "internalType": "int256[]",
              "name": "borrowFee",
              "type": "int256[]"
            },
            {
              "internalType": "uint256[]",
              "name": "time",
              "type": "uint256[]"
            },
            {
              "internalType": "string",
              "name": "pairSymbol",
              "type": "string"
            }
          ],
          "internalType": "struct OrderBook.AssetPairDetails",
          "name": "",
          "type": "tuple"
        }
      ],
      "stateMutability": "view",
      "type": "function"
    },
    {
      "inputs": [],
      "name": "getAssetPairIndexSymbol",
      "outputs": [
        {
          "internalType": "string[]",
          "name": "",
          "type": "string[]"
        }
      ],
      "stateMutability": "view",
      "type": "function"
    },
    {
      "inputs": [],
      "name": "getBaseBorrowFee",
      "outputs": [
        {
          "internalType": "int256",
          "name": "baseBorrowFee",
          "type": "int256"
        }
      ],
      "stateMutability": "view",
      "type": "function"
    },
    {
      "inputs": [],
      "name": "getBotRewardBase",
      "outputs": [
        {
          "internalType": "int256",
          "name": "botRewardsBase",
          "type": "int256"
        }
      ],
      "stateMutability": "view",
      "type": "function"
    },
    {
      "inputs": [],
      "name": "getBotRewardRate",
      "outputs": [
        {
          "internalType": "int256",
          "name": "botRewardsRate",
          "type": "int256"
        }
      ],
      "stateMutability": "view",
      "type": "function"
    },
    {
      "inputs": [
        {
          "internalType": "uint256",
          "name": "pairIndex",
          "type": "uint256"
        }
      ],
      "name": "getCurrentBorrowRate",
      "outputs": [
        {
          "internalType": "int256",
          "name": "",
          "type": "int256"
        }
      ],
      "stateMutability": "view",
      "type": "function"
    },
    {
      "inputs": [],
      "name": "getPythPriceFeedAddress",
      "outputs": [
        {
          "internalType": "address",
          "name": "",
          "type": "address"
        }
      ],
      "stateMutability": "view",
      "type": "function"
    },
    {
      "inputs": [],
      "name": "getTokenCollateralAddress",
      "outputs": [
        {
          "internalType": "address",
          "name": "",
          "type": "address"
        }
      ],
      "stateMutability": "view",
      "type": "function"
    },
    {
      "inputs": [
        {
          "internalType": "uint256",
          "name": "pairIndex",
          "type": "uint256"
        }
      ],
      "name": "getTotalLongAmount",
      "outputs": [
        {
          "internalType": "int256",
          "name": "",
          "type": "int256"
        }
      ],
      "stateMutability": "view",
      "type": "function"
    },
    {
      "inputs": [
        {
          "internalType": "uint256",
          "name": "pairIndex",
          "type": "uint256"
        }
      ],
      "name": "getTotalShortAmount",
      "outputs": [
        {
          "internalType": "int256",
          "name": "",
          "type": "int256"
        }
      ],
      "stateMutability": "view",
      "type": "function"
    },
    {
      "inputs": [
        {
          "internalType": "address",
          "name": "user",
          "type": "address"
        },
        {
          "internalType": "uint256",
          "name": "assetPairIndex",
          "type": "uint256"
        },
        {
          "internalType": "uint256",
          "name": "openTradesIdForPair",
          "type": "uint256"
        }
      ],
      "name": "getTradePositionBorrowFees",
      "outputs": [
        {
          "internalType": "int256",
          "name": "borrowFeeAmount",
          "type": "int256"
        }
      ],
      "stateMutability": "view",
      "type": "function"
    },
    {
      "inputs": [
        {
          "internalType": "bytes[]",
          "name": "priceUpdateData",
          "type": "bytes[]"
        },
        {
          "internalType": "uint256",
          "name": "pairIndex",
          "type": "uint256"
        }
      ],
      "name": "getTradingPairCurrentPrice",
      "outputs": [
        {
          "components": [
            {
              "internalType": "int64",
              "name": "price",
              "type": "int64"
            },
            {
              "internalType": "uint64",
              "name": "conf",
              "type": "uint64"
            },
            {
              "internalType": "int32",
              "name": "expo",
              "type": "int32"
            },
            {
              "internalType": "uint256",
              "name": "publishTime",
              "type": "uint256"
            }
          ],
          "internalType": "struct PythStructs.Price",
          "name": "",
          "type": "tuple"
        }
      ],
      "stateMutability": "payable",
      "type": "function"
    },
    {
      "inputs": [
        {
          "internalType": "address",
          "name": "user",
          "type": "address"
        },
        {
          "internalType": "uint256",
          "name": "assetPairIndex",
          "type": "uint256"
        },
        {
          "internalType": "uint256",
          "name": "openTradesIdForPair",
          "type": "uint256"
        }
      ],
      "name": "getUserLiquidationPrice",
      "outputs": [
        {
          "internalType": "int256",
          "name": "liquidationPrice",
          "type": "int256"
        },
        {
          "internalType": "int256",
          "name": "borrowFeeAmount",
          "type": "int256"
        }
      ],
      "stateMutability": "view",
      "type": "function"
    },
    {
      "inputs": [
        {
          "internalType": "address",
          "name": "user",
          "type": "address"
        },
        {
          "internalType": "uint256",
          "name": "pairIndex",
          "type": "uint256"
        }
      ],
      "name": "getUserOpenTradesForAsset",
      "outputs": [
        {
          "internalType": "uint256[3]",
          "name": "",
          "type": "uint256[3]"
        }
      ],
      "stateMutability": "view",
      "type": "function"
    },
    {
      "inputs": [
        {
          "internalType": "address",
          "name": "user",
          "type": "address"
        },
        {
          "internalType": "uint256",
          "name": "pairIndex",
          "type": "uint256"
        },
        {
          "internalType": "uint256",
          "name": "openTradesIdForPair",
          "type": "uint256"
        }
      ],
      "name": "getUserTradingPositionDetails",
      "outputs": [
        {
          "components": [
            {
              "internalType": "uint256",
              "name": "pairNumber",
              "type": "uint256"
            },
            {
              "internalType": "int256",
              "name": "openPrice",
              "type": "int256"
            },
            {
              "internalType": "int256",
              "name": "collateralAfterFee",
              "type": "int256"
            },
            {
              "internalType": "int256",
              "name": "leverage",
              "type": "int256"
            },
            {
              "internalType": "uint256",
              "name": "longShort",
              "type": "uint256"
            },
            {
              "internalType": "uint256",
              "name": "openTime",
              "type": "uint256"
            },
            {
              "internalType": "uint256",
              "name": "indexBorrowPercentArray",
              "type": "uint256"
            }
          ],
          "internalType": "struct OrderBook.PositionDetails",
          "name": "",
          "type": "tuple"
        }
      ],
      "stateMutability": "view",
      "type": "function"
    },
    {
      "inputs": [
        {
          "internalType": "address",
          "name": "user",
          "type": "address"
        },
        {
          "internalType": "uint256",
          "name": "pairIndex",
          "type": "uint256"
        },
        {
          "internalType": "uint256",
          "name": "userTradesIdForPair",
          "type": "uint256"
        },
        {
          "internalType": "bytes[]",
          "name": "priceUpdateData",
          "type": "bytes[]"
        }
      ],
      "name": "liquidateUser",
      "outputs": [],
      "stateMutability": "payable",
      "type": "function"
    },
    {
      "inputs": [
        {
          "internalType": "uint256",
          "name": "pairIndex",
          "type": "uint256"
        },
        {
          "internalType": "int256",
          "name": "amountCollateral",
          "type": "int256"
        },
        {
          "internalType": "int256",
          "name": "leverage",
          "type": "int256"
        },
        {
          "internalType": "uint256",
          "name": "orderType",
          "type": "uint256"
        },
        {
          "internalType": "bytes[]",
          "name": "priceUpdateData",
          "type": "bytes[]"
        }
      ],
      "name": "marketOrder",
      "outputs": [],
      "stateMutability": "payable",
      "type": "function"
    },
    {
      "inputs": [
        {
          "internalType": "uint256",
          "name": "pairIndex",
          "type": "uint256"
        },
        {
          "internalType": "uint256",
          "name": "userTradesIdForPair",
          "type": "uint256"
        },
        {
          "internalType": "bytes[]",
          "name": "priceUpdateData",
          "type": "bytes[]"
        }
      ],
      "name": "orderClose",
      "outputs": [],
      "stateMutability": "payable",
      "type": "function"
    },
    {
      "inputs": [],
      "name": "owner",
      "outputs": [
        {
          "internalType": "address",
          "name": "",
          "type": "address"
        }
      ],
      "stateMutability": "view",
      "type": "function"
    },
    {
      "inputs": [],
      "name": "renounceOwnership",
      "outputs": [],
      "stateMutability": "nonpayable",
      "type": "function"
    },
    {
      "inputs": [
        {
          "internalType": "int256",
          "name": "newBaseBorrowFeePercentage",
          "type": "int256"
        }
      ],
      "name": "setBaseBorrowFeePercentage",
      "outputs": [],
      "stateMutability": "nonpayable",
      "type": "function"
    },
    {
      "inputs": [
        {
          "internalType": "int256",
          "name": "newBotRewardsRate",
          "type": "int256"
        }
      ],
      "name": "setBotRewardsRate",
      "outputs": [],
      "stateMutability": "nonpayable",
      "type": "function"
    },
    {
      "inputs": [
        {
          "internalType": "int256",
          "name": "newBotRewardsBase",
          "type": "int256"
        }
      ],
      "name": "setBotsRewardsBase",
      "outputs": [],
      "stateMutability": "nonpayable",
      "type": "function"
    },
    {
      "inputs": [
        {
          "internalType": "address",
          "name": "newCollateralTokenAddress",
          "type": "address"
        }
      ],
      "name": "setCollateralTokenAddress",
      "outputs": [],
      "stateMutability": "nonpayable",
      "type": "function"
    },
    {
      "inputs": [
        {
          "internalType": "int256",
          "name": "newMaxBorrowInterestRate",
          "type": "int256"
        }
      ],
      "name": "setMaxBorrowInterestRate",
      "outputs": [],
      "stateMutability": "nonpayable",
      "type": "function"
    },
    {
      "inputs": [
        {
          "internalType": "uint256",
          "name": "pairIndex",
          "type": "uint256"
        },
        {
          "internalType": "int256",
          "name": "newMaxOpenInterest",
          "type": "int256"
        }
      ],
      "name": "setMaxOpenInterestForPair",
      "outputs": [],
      "stateMutability": "nonpayable",
      "type": "function"
    },
    {
      "inputs": [
        {
          "internalType": "int256",
          "name": "newMinTradeSize",
          "type": "int256"
        }
      ],
      "name": "setMinTradeSize",
      "outputs": [],
      "stateMutability": "nonpayable",
      "type": "function"
    },
    {
      "inputs": [
        {
          "internalType": "int256",
          "name": "newOpeningFeePercent",
          "type": "int256"
        }
      ],
      "name": "setOpeningFee",
      "outputs": [],
      "stateMutability": "nonpayable",
      "type": "function"
    },
    {
      "inputs": [
        {
          "internalType": "int256",
          "name": "newVariableBorrowFeePercentage",
          "type": "int256"
        }
      ],
      "name": "setVariableBorrowFeePercentage",
      "outputs": [],
      "stateMutability": "nonpayable",
      "type": "function"
    },
    {
      "inputs": [
        {
          "internalType": "address",
          "name": "newOwner",
          "type": "address"
        }
      ],
      "name": "transferOwnership",
      "outputs": [],
      "stateMutability": "nonpayable",
      "type": "function"
    },
    {
      "inputs": [],
      "name": "withdrawBotRewards",
      "outputs": [],
      "stateMutability": "nonpayable",
      "type": "function"
    },
    {
      "inputs": [
        {
          "internalType": "address",
          "name": "tokenAddress",
          "type": "address"
        },
        {
          "internalType": "uint256",
          "name": "amount",
          "type": "uint256"
        }
      ],
      "name": "withdrawErc20Token",
      "outputs": [],
      "stateMutability": "nonpayable",
      "type": "function"
    },
    {
      "inputs": [
        {
          "internalType": "address payable",
          "name": "_to",
          "type": "address"
        }
      ],
      "name": "withdrawEth",
      "outputs": [],
      "stateMutability": "payable",
      "type": "function"
    }
  ],
  "bytecode": {
    "object": "0x6080604052611d4c6004556102586005556064600655612710600755685150ae84a8cdf00000600855671bc16d674ec800006009556000600a553480156200004657600080fd5b5060405162003eb938038062003eb983398101604081905262000069916200042c565b60016000556200007933620001d0565b81518451146200009c5760405163f102e13760e01b815260040160405180910390fd5b8051825114620000bf5760405163f102e13760e01b815260040160405180910390fd5b600380546001600160a01b038088166001600160a01b0319928316179092558551600b55600280549289169290911691909117905560005b8451811015620001c3578481815181106200011657620001166200050a565b6020026020010151600c6000838152602001908152602001600020600001819055508181815181106200014d576200014d6200050a565b6020026020010151600c60008381526020019081526020016000206006019081620001799190620005af565b508381815181106200018f576200018f6200050a565b6020908102919091018101516000838152600c90925260409091206003015580620001ba816200067b565b915050620000f7565b50505050505050620006a3565b600180546001600160a01b038381166001600160a01b0319831681179093556040519116919082907f8be0079c531659141344cd1fd0a4f28419497f9722a3daafe3b4186f6b6457e090600090a35050565b80516001600160a01b03811681146200023a57600080fd5b919050565b634e487b7160e01b600052604160045260246000fd5b604051601f8201601f191681016001600160401b03811182821017156200028057620002806200023f565b604052919050565b60006001600160401b03821115620002a457620002a46200023f565b5060051b60200190565b600082601f830112620002c057600080fd5b81516020620002d9620002d38362000288565b62000255565b82815260059290921b84018101918181019086841115620002f957600080fd5b8286015b84811015620003165780518352918301918301620002fd565b509695505050505050565b6000601f83818401126200033457600080fd5b8251602062000347620002d38362000288565b82815260059290921b850181019181810190878411156200036757600080fd5b8287015b84811015620004205780516001600160401b03808211156200038d5760008081fd5b818a0191508a603f830112620003a35760008081fd5b8582015181811115620003ba57620003ba6200023f565b620003cd818a01601f1916880162000255565b915080825260408c81838601011115620003e75760008081fd5b60005b8281101562000407578481018201518482018a01528801620003ea565b505060009082018701528452509183019183016200036b565b50979650505050505050565b60008060008060008060c087890312156200044657600080fd5b620004518762000222565b9550620004616020880162000222565b60408801519095506001600160401b03808211156200047f57600080fd5b6200048d8a838b01620002ae565b95506060890151915080821115620004a457600080fd5b620004b28a838b01620002ae565b94506080890151915080821115620004c957600080fd5b620004d78a838b01620002ae565b935060a0890151915080821115620004ee57600080fd5b50620004fd89828a0162000321565b9150509295509295509295565b634e487b7160e01b600052603260045260246000fd5b600181811c908216806200053557607f821691505b6020821081036200055657634e487b7160e01b600052602260045260246000fd5b50919050565b601f821115620005aa57600081815260208120601f850160051c81016020861015620005855750805b601f850160051c820191505b81811015620005a65782815560010162000591565b5050505b505050565b81516001600160401b03811115620005cb57620005cb6200023f565b620005e381620005dc845462000520565b846200055c565b602080601f8311600181146200061b5760008415620006025750858301515b600019600386901b1c1916600185901b178555620005a6565b600085815260208120601f198616915b828110156200064c578886015182559484019460019091019084016200062b565b50858210156200066b5787850151600019600388901b60f8161c191681555b5050505050600190811b01905550565b6000600182016200069c57634e487b7160e01b600052601160045260246000fd5b5060010190565b61380680620006b36000396000f3fe6080604052600436106101f95760003560e01c8063a829f21d1161010d578063d6ef8f82116100a0578063eee2b6761161006f578063eee2b676146105f8578063f2fde38b14610618578063fa79440314610638578063fb8fbe1f14610656578063fc5dac381461067657600080fd5b8063d6ef8f8214610583578063d928e336146105a3578063dfdc329f146105b6578063ee9387de146105d657600080fd5b8063b8ed2eb4116100dc578063b8ed2eb4146104f0578063c01646cb14610510578063c700b0aa1461052e578063ca3e82571461054e57600080fd5b8063a829f21d14610453578063ab48a23a14610483578063b0a88075146104a3578063b8a077a5146104d057600080fd5b80634b16d1bc116101905780636698f9881161015f5780636698f988146103c2578063715018a6146103d75780638da5cb5b146103ec57806399484b411461041e5780639ed6b9201461043357600080fd5b80634b16d1bc146103185780634c70fb6d1461032d5780634fae32e71461034057806350c3cdc31461039557600080fd5b806325e16063116101cc57806325e16063146102bd57806337855bb7146102d05780633eb0ef2c146102e357806343b3b908146102f857600080fd5b80630188d579146101fe578063061ff1f0146102415780631b5042ac1461026e5780631ec3cdc71461029b575b600080fd5b34801561020a57600080fd5b5061022e610219366004612de8565b6000908152600c602052604090206001015490565b6040519081526020015b60405180910390f35b34801561024d57600080fd5b5061026161025c366004612e16565b610696565b6040516102389190612e42565b34801561027a57600080fd5b5061028e610289366004612de8565b6106f5565b6040516102389190612ef4565b3480156102a757600080fd5b506102bb6102b6366004612fa4565b6108bb565b005b6102bb6102cb366004612fc6565b610905565b6102bb6102de36600461302e565b610985565b3480156102ef57600080fd5b5060055461022e565b34801561030457600080fd5b506102bb610313366004612de8565b610bee565b34801561032457600080fd5b50600a5461022e565b6102bb61033b366004613097565b610c2b565b61035361034e366004613100565b610f58565b6040516102389190815160070b81526020808301516001600160401b03169082015260408083015160030b908201526060918201519181019190915260800190565b3480156103a157600080fd5b506103b56103b0366004612fc6565b6110e2565b604051610238919061318f565b3480156103ce57600080fd5b506102bb611217565b3480156103e357600080fd5b506102bb61133d565b3480156103f857600080fd5b506001546001600160a01b03165b6040516001600160a01b039091168152602001610238565b34801561042a57600080fd5b5060095461022e565b34801561043f57600080fd5b506102bb61044e366004612e16565b611351565b34801561045f57600080fd5b5061022e61046e366004612de8565b6000908152600c602052604090206002015490565b34801561048f57600080fd5b506102bb61049e366004612de8565b6113f2565b3480156104af57600080fd5b506104c36104be3660046131c3565b61142f565b60405161023891906131f8565b3480156104dc57600080fd5b5061022e6104eb366004612de8565b6114ed565b3480156104fc57600080fd5b506102bb61050b366004612de8565b6116a8565b34801561051c57600080fd5b506002546001600160a01b0316610406565b34801561053a57600080fd5b506102bb610549366004612fc6565b6116e5565b34801561055a57600080fd5b5061056e6105693660046131c3565b611739565b60408051928352602083019190915201610238565b34801561058f57600080fd5b506102bb61059e366004612de8565b61198b565b6102bb6105b1366004613206565b6119c8565b3480156105c257600080fd5b5061022e6105d13660046131c3565b611ca0565b3480156105e257600080fd5b506105eb611d94565b6040516102389190613258565b34801561060457600080fd5b506102bb610613366004612de8565b611ec5565b34801561062457600080fd5b506102bb610633366004612fc6565b611f0e565b34801561064457600080fd5b506003546001600160a01b0316610406565b34801561066257600080fd5b506102bb610671366004612de8565b611f84565b34801561068257600080fd5b506102bb610691366004612de8565b611fc1565b61069e612d32565b6001600160a01b0383166000908152600e6020908152604080832085845290915290819020815160608101928390529160039082845b8154815260200190600101908083116106d457505050505090505b92915050565b6107386040518060e00160405280600080191681526020016000815260200160008152602001600081526020016060815260200160608152602001606081525090565b6000828152600c6020908152604091829020825160e081018452815481526001820154818401526002820154818501526003820154606082015260048201805485518186028101860190965280865291949293608086019392908301828280156107c157602002820191906000526020600020905b8154815260200190600101908083116107ad575b505050505081526020016005820180548060200260200160405190810160405280929190818152602001828054801561081957602002820191906000526020600020905b815481526020019060010190808311610805575b50505050508152602001600682018054610832906132ba565b80601f016020809104026020016040519081016040528092919081815260200182805461085e906132ba565b80156108ab5780601f10610880576101008083540402835291602001916108ab565b820191906000526020600020905b81548152906001019060200180831161088e57829003601f168201915b5050505050815250509050919050565b6108c3611ffe565b6000828152600c602052604080822060030183905551829184917fc367f8e1d2bee7f280ba56fece7aca3231c37fff84e5338da9fe46d7bfa610e89190a35050565b61090d611ffe565b6000816001600160a01b03164760405160006040518083038185875af1925050503d806000811461095a576040519150601f19603f3d011682016040523d82523d6000602084013e61095f565b606091505b505090508061098157604051630c74658f60e01b815260040160405180910390fd5b5050565b6000868152600c60205260408120543391879187918a918891036109bb57604051621bca5160e61b815260040160405180910390fd5b80158015906109cb575080600114155b156109e9576040516302763ae360e11b815260040160405180910390fd5b8315806109f4575082155b15610a1257604051637018737760e11b815260040160405180910390fd5b600854620f4240610a238587613304565b610a2d919061334a565b1215610a4c57604051633af9eaa560e01b815260040160405180910390fd5b80158015610a9257506000828152600c602052604090206002810154600390910154610a789190613378565b620f4240610a868587613304565b610a90919061334a565b135b15610ab05760405163e72486b360e01b815260040160405180910390fd5b806001148015610af857506000828152600c602052604090206001810154600390910154610ade9190613378565b620f4240610aec8587613304565b610af6919061334a565b135b15610b1657604051630a7f135360e41b815260040160405180910390fd5b6001600160a01b0385166000908152600e602090815260408083208584529091529020600390610b4590612058565b10610b63576040516306152e2f60e11b815260040160405180910390fd5b6308f0d180831315610b8857604051635694d08560e11b815260040160405180910390fd5b610b90612097565b610b9b33308c6120f0565b610baa338c8c8c8c8c8c612196565b6040518b9033907f02c61321c808585dc6593befb37f9909ee37888b439a1990c568e475dddb765590600090a3610be16001600055565b5050505050505050505050565b610bf6611ffe565b600a819055604051819033907f09a08cd5853e458b94e9c3e2a7b740876d700bc31a743f9ee135a345ca3dfdf390600090a350565b6001600160a01b0385166000908152600d60209081526040808320878452825280832086845290915281206001015486918691869103610c7e57604051638177d6b960e01b815260040160405180910390fd5b610c86612097565b6001600160a01b0388166000908152600d602090815260408083208a845282528083208984528252808320815160e081018352815481526001820154938101939093526002810154918301919091526003810154606083015260048101546080830152600581015460a08301526006015460c082015290610d0a8a838a8a8a612386565b905060008113610f21576001600160a01b038a166000908152600d602090815260408083208551845282528083208b845290915280822082815560018101839055600281018390556003810183905560048101839055600581018390556006019190915560808301518351606085015192850151610da293620f424091610d919190613304565b610d9b919061334a565b6000612580565b6000898152600c6020908152604082206005018054600181018255908352912042910155610dcf896126a0565b6001600160a01b038a166000908152600e602090815260408083208c845290915281208960038110610e0357610e03613398565b01556001600160a01b038a166000908152600e602090815260408083208551845290915281208960038110610e3a57610e3a613398565b015560608201516040830151600a54620f42409291610e5891613304565b610e629190613304565b610e6c919061334a565b600954610e7991906133ae565b336000908152600f602052604081208054909190610e989084906133d6565b9091555050815160408051918252602082018a90526001600160a01b038c16917fc49f1669c07127f11fd504cf7a83840a741e5646b0106157f132141762372513910160405180910390a281516040518291906001600160a01b038d16907f6273f181fac9230780c36df1cc086e5607a2fb9efc370b4b505947cf6ea95ea690600090a4610f42565b6040516313d19c2b60e31b8152600481018290526024015b60405180910390fd5b5050610f4e6001600055565b5050505050505050565b60408051608081018252600080825260208201819052918101829052606081019190915260025460405163d47eed4560e01b81526000916001600160a01b03169063d47eed4590610faf9088908890600401613412565b602060405180830381865afa158015610fcc573d6000803e3d6000fd5b505050506040513d601f19601f82011682018060405250810190610ff091906134ad565b600254604051631df3cbc560e31b81529192506001600160a01b03169063ef9e5e289083906110259089908990600401613412565b6000604051808303818588803b15801561103e57600080fd5b505af1158015611052573d6000803e3d6000fd5b50506002546000878152600c60205260408082205490516331d98b3f60e01b815260048101919091529094506001600160a01b0390911692506331d98b3f9150602401608060405180830381865afa1580156110b2573d6000803e3d6000fd5b505050506040513d601f19601f820116820180604052508101906110d6919061350a565b925050505b9392505050565b6110ea612d50565b6110f2612d50565b60005b60058110156112105760005b60038110156111fd576001600160a01b0385166000908152600d602090815260408083208584528252808320848452909152902060030154156111eb5760008161114c846003613599565b61115691906133d6565b6001600160a01b0387166000908152600d602090815260408083208784528252808320868452825291829020825160e081018452815481526001820154928101929092526002810154928201929092526003820154606082015260048201546080820152600582015460a082015260069091015460c08201529091508482600f81106111e4576111e4613398565b6020020152505b806111f5816135b0565b915050611101565b5080611208816135b0565b9150506110f5565b5092915050565b336000818152600f60205260408120549003611246576040516321a5c60960e21b815260040160405180910390fd5b61124e612097565b336000818152600f602052604080822080549083905560035491516323b872dd60e01b8152306004820152602481019490945260448401819052926001600160a01b03909116906323b872dd906064016020604051808303816000875af11580156112bd573d6000803e3d6000fd5b505050506040513d601f19601f820116820180604052508101906112e191906135c9565b90508061130157604051630c74658f60e01b815260040160405180910390fd5b604051829033907f76f16872f39a52b614b047175768d06df48efa19020f1d0e066515817f97aa6290600090a3505061133a6001600055565b50565b611345611ffe565b61134f60006128d9565b565b611359611ffe565b60405163a9059cbb60e01b8152336004820152602481018290526000906001600160a01b0384169063a9059cbb906044016020604051808303816000875af11580156113a9573d6000803e3d6000fd5b505050506040513d601f19601f820116820180604052508101906113cd91906135c9565b9050806113ed57604051630c74658f60e01b815260040160405180910390fd5b505050565b6113fa611ffe565b6005819055604051819033907f4edf89908de270aa88947c979c2c8988831490f7da4fa3c2a85f63c591256dda90600090a350565b61146f6040518060e00160405280600081526020016000815260200160008152602001600081526020016000815260200160008152602001600081525090565b506001600160a01b03929092166000908152600d60209081526040808320938352928152828220938252928352819020815160e081018352815481526001820154938101939093526002810154918301919091526003810154606083015260048101546080830152600581015460a08301526006015460c082015290565b6000818152600c60209081526040808320815160e08101835281548152600182015481850152600282015481840152600382015460608201526004820180548451818702810187019095528085528695929460808601939092919083018282801561157757602002820191906000526020600020905b815481526020019060010190808311611563575b50505050508152602001600582018054806020026020016040519081016040528092919081815260200182805480156115cf57602002820191906000526020600020905b8154815260200190600101908083116115bb575b505050505081526020016006820180546115e8906132ba565b80601f0160208091040260200160405190810160405280929190818152602001828054611614906132ba565b80156116615780601f1061163657610100808354040283529160200191611661565b820191906000526020600020905b81548152906001019060200180831161164457829003601f168201915b50505091909252505050608081015180519192506000906116836001846135eb565b8151811061169357611693613398565b60200260200101519050809350505050919050565b6116b0611ffe565b6009819055604051819033907fdb7c774d897a6a77bf5d60cf960bf7bb323e10270b93345c1a63eba5205a880b90600090a350565b6116ed611ffe565b600380546001600160a01b0319166001600160a01b03831690811790915560405133907fa99c2dd2e7b321e9734aede5fc2a795ab9fc50063aad4d70060dfc01a35fa84790600090a350565b6001600160a01b0383166000908152600d6020908152604080832085845282528083208484529091528120600101548190859085908590840361178f57604051638177d6b960e01b815260040160405180910390fd5b6001600160a01b0388166000908152600d602090815260408083208a845282528083208984528252808320815160e0810183528154815260018201549381019390935260028101549183019190915260038101546060830152600481015460808301819052600582015460a084015260069091015460c083015290919061181a908b908b908b61292b565b9050610e1061182f62989680620f4240613304565b6118399190613304565b8260600151836040015161184d9190613304565b60a084015161185c90426135eb565b6118669084613304565b6118709190613304565b61187a919061334a565b9550816080015160000361190157606082015161189a620f424088613304565b6118a4919061334a565b620f424083606001516118b79190613378565b606084015160208501516118ce90620f4240613304565b6118d8919061334a565b6118e29190613304565b6118ee90612710613304565b6118f891906133ae565b96505050611980565b816080015160010361197d57606082015161191f620f424088613304565b611929919061334a565b620f4240836060015161193c91906133ae565b6060840151602085015161195390620f4240613304565b61195d919061334a565b6119679190613304565b61197390612710613304565b6118f89190613378565b50505b505050935093915050565b611993611ffe565b6006819055604051819033907f279d43723892d10e0136d5738a51dd6e241ed079ed997fc0a9b66e6246dcd34890600090a350565b336000818152600d602090815260408083208884528252808320878452909152812060010154869186919003611a1157604051638177d6b960e01b815260040160405180910390fd5b611a19612097565b336000818152600d602090815260408083208b845282528083208a84528252808320815160e081018352815481526001820154938101939093526002810154918301919091526003810154606083015260048101546080830152600581015460a08301526006015460c082015291611a9490838a8a8a612386565b9050611aa882604001518360600151612baa565b611ab29082613378565b336000818152600d602090815260408083208751845282528083208d845282528083208381556001810184905560028101849055600380820185905560048201859055600582018590556006909101849055938352600e82528083208e8452909152812092935091908a908110611b2b57611b2b613398565b0181905550611b5182608001518a620f424085606001518660400151610d919190613304565b6000898152600c6020908152604082206005018054600181018255908352912042910155611b7e896126a0565b6000811315611c245760035460405163a9059cbb60e01b81523360048201526024810183905282916000916001600160a01b039091169063a9059cbb906044016020604051808303816000875af1158015611bdd573d6000803e3d6000fd5b505050506040513d601f19601f82011682018060405250810190611c0191906135c9565b905080611c2157604051630c74658f60e01b815260040160405180910390fd5b50505b815160405189815233907fdd1bdc77e3cc244141600de256428e5a4fa93f9ba200229891d49111390692229060200160405180910390a3815160405182919033907f753ff5afc7647ecd155d0b263a97dddd9f9fcd2a5feef19cdb4f28533cadf86990600090a45050611c976001600055565b50505050505050565b6001600160a01b0383166000908152600d6020908152604080832085845282528083208484528252808320815160e0810183528154815260018201549381019390935260028101549183019190915260038101546060830152600481015460808301819052600582015460a084015260069091015460c08301528290611d2a90879087908761292b565b9050610e10611d3f62989680620f4240613304565b611d499190613304565b82606001518360400151611d5d9190613304565b60a0840151611d6c90426135eb565b611d769084613304565b611d809190613304565b611d8a919061334a565b9695505050505050565b60606000600b546001600160401b03811115611db257611db26134c6565b604051908082528060200260200182016040528015611de557816020015b6060815260200190600190039081611dd05790505b50905060005b600b54811015611ebf576000818152600c602052604090206006018054611e11906132ba565b80601f0160208091040260200160405190810160405280929190818152602001828054611e3d906132ba565b8015611e8a5780601f10611e5f57610100808354040283529160200191611e8a565b820191906000526020600020905b815481529060010190602001808311611e6d57829003601f168201915b5050505050828281518110611ea157611ea1613398565b60200260200101819052508080611eb7906135b0565b915050611deb565b50919050565b611ecd611ffe565b600481905560408051338152602081018390527fc9efb4e68e13bfdb30aeb0a7d43fae359a9de193cf2b71a9e35a287078a1ffe2910160405180910390a150565b611f16611ffe565b6001600160a01b038116611f7b5760405162461bcd60e51b815260206004820152602660248201527f4f776e61626c653a206e6577206f776e657220697320746865207a65726f206160448201526564647265737360d01b6064820152608401610f39565b61133a816128d9565b611f8c611ffe565b6008819055604051819033907fbb9bc6316da017b8faa91999773f59fe52449c5bc016cee9ba81e12133b8c3fc90600090a350565b611fc9611ffe565b6007819055604051819033907faca235ebf6db7deecaf2994795c8d532afd1b2bec396708e78d8971f854e7d9990600090a350565b6001546001600160a01b0316331461134f5760405162461bcd60e51b815260206004820181905260248201527f4f776e61626c653a2063616c6c6572206973206e6f7420746865206f776e65726044820152606401610f39565b6000805b6003811015611ebf5782816003811061207757612077613398565b015461208390836133d6565b91508061208f816135b0565b91505061205c565b6002600054036120e95760405162461bcd60e51b815260206004820152601f60248201527f5265656e7472616e637947756172643a207265656e7472616e742063616c6c006044820152606401610f39565b6002600055565b6003546040516323b872dd60e01b81526001600160a01b03858116600483015284811660248301526044820184905260009216906323b872dd906064016020604051808303816000875af115801561214c573d6000803e3d6000fd5b505050506040513d601f19601f8201168201806040525081019061217091906135c9565b90508061219057604051630c74658f60e01b815260040160405180910390fd5b50505050565b60006121a28686612baa565b6121ac9087613378565b6001600160a01b0389166000908152600e602090815260408083208b84529091528120919250906121dc90612be3565b6001600160a01b038a166000908152600e602090815260408083208c84529091529020909150600190826003811061221657612216613398565b015561223c8589620f424061222b8a87613304565b612235919061334a565b6001612580565b6000888152600c6020908152604082206005018054600181018255908352912042910155612269886126a0565b600061227685858b610f58565b9050600061228687836000612c21565b90506040518060e001604052808b8152602001828152602001858152602001898152602001888152602001836060015181526020016001600c60008e8152602001908152602001600020600501805490506122e191906135eb565b90526001600160a01b038c166000818152600d602090815260408083208f84528252808320888452825280832085518155918501516001830155848101516002830155606085015160038301556080850151600483015560a0850151600583015560c090940151600690910155915185928d92917f06815e86fb14e66bb1dc3a385520944e53d97411395ddb32ef15afe1178191fd9190a45050505050505050505050565b60008061239884848860000151610f58565b905060006123b088886000015189608001518961292b565b905060006064610e106123c9620f424062989680613304565b6123d39190613304565b6123dd9190613304565b60648960a00151426123ef91906135eb565b60408b015160608c01516124039087613304565b61240d9190613304565b6124179190613304565b6124219190613304565b61242b919061334a565b90506000806124408a60800151866001612c21565b8a6020015161244f9190613378565b60405190915081907f7ffc13b25ce79fee35573354594e873bbe43761fc8ba593ed828116ab2a4523d90600090a289608001516000036124e257620f42408a602001518b60400151838d606001516124a79190613304565b6124b19190613304565b6124bb919061334a565b6124c5919061334a565b838b604001516124d59190613378565b6124df9190613378565b91505b896080015160010361254757620f42408a602001518b60400151838d6060015161250c9190613304565b6125169190613304565b612520919061334a565b61252a919061334a565b838b6040015161253a9190613378565b61254491906133ae565b91505b60405182907f516ea507b82ab198d7e651c9242f8a7aa3f5eabc5f35c803a27394c57cd8b24390600090a2509998505050505050505050565b836000036125e15780156125ba576000838152600c6020526040812060020180548492906125af9084906133ae565b909155506125e19050565b6000838152600c6020526040812060020180548492906125db908490613378565b90915550505b8360010361264257801561261b576000838152600c6020526040812060010180548492906126109084906133ae565b909155506126429050565b6000838152600c60205260408120600101805484929061263c908490613378565b90915550505b6000838152600c602052604090819020600281015460019091015491517f942bc6d740ed3e211cd49465dc53eaab030a9245f4c31b365d2e355fa20b2e4292612692928252602082015260400190565b60405180910390a150505050565b6000818152600c60205260408120600201541580156126ce57506000828152600c6020526040902060010154155b15612712576000828152600c602052604081206126f091600590910190612db6565b6000828152600c6020526040812061270d91600490910190612db6565b612871565b6000828152600c6020526040812060020154900361276d576000828152600c60205260409020600381015460019091015460075461275290600019613304565b61275c9190613304565b612766919061334a565b9050612871565b6000828152600c602052604081206001015490036127ab576000828152600c60205260409020600381015460029091015460075461275c9190613304565b6000828152600c6020526040902060018181015460029092015490916127d09161334a565b13156127fc576000828152600c60205260409020600181015460029091015460065461275c9190613304565b6000828152600c6020526040902060018181015460029092015490916128219161334a565b121561284f576000828152600c60205260409020600281015460019091015460065461275290600019613304565b6000828152600c60205260409020600181015460029091015403612871575060005b6000828152600c60209081526040808320600401805460018101825581855292842090920184905591849052905183917f9b6e0867c2485b2217b074bced73d5217ac7fca2d555047bdf3c9b5016a43f3e916128cd91906135fe565b60405180910390a25050565b600180546001600160a01b038381166001600160a01b0319831681179093556040519116919082907f8be0079c531659141344cd1fd0a4f28419497f9722a3daafe3b4186f6b6457e090600090a35050565b6000838152600c60209081526040808320600501546001600160a01b0388168452600d8352818420878552835281842085855290925282206006015482815b6000888152600c6020526040902060050154612988906001906135eb565b811015612a56576000888152600c602052604090206005018054829081106129b2576129b2613398565b60009182526020808320909101548a8352600c90915260409091206005016129db8360016133d6565b815481106129eb576129eb613398565b9060005260206000200154612a0091906135eb565b6000898152600c60205260409020600401805483908110612a2357612a23613398565b9060005260206000200154612a389190613304565b612a4290836133ae565b915080612a4e816135b0565b91505061296a565b506000878152600c60205260409020600501612a736001856135eb565b81548110612a8357612a83613398565b906000526020600020015442612a9991906135eb565b6000888152600c60205260409020600401612ab56001866135eb565b81548110612ac557612ac5613398565b9060005260206000200154612ada9190613304565b612ae490826133ae565b6000888152600c602052604081206005018054929350909184908110612b0c57612b0c613398565b9060005260206000200154426001612b2491906133d6565b612b2e91906135eb565b6000898152600c6020526040902060050154612b4b9085906135eb565b612b559190613304565b612b5f908361334a565b9050600087600003612b865781600554612b7991906133ae565b9550612ba2945050505050565b87600103612b9c5781600554612b799190613378565b50505050505b949350505050565b600080620f4240612bbb8486613304565b612bc5919061334a565b90506298968060045482612bd99190613304565b612ba2919061334a565b6000805b6003811015611ebf57828160038110612c0257612c02613398565b0154600003612c0f578091505b80612c19816135b0565b915050612be7565b600080600885158015612c32575083155b15612c525760208501518551612c489190613645565b60070b9150612cb1565b85158015612c605750836001145b15612c765760208501518551612c489190613674565b856001148015612c84575083155b15612c9a5760208501518551612c489190613674565b60208501518551612cab9190613645565b60070b91505b60008560400151600019612cc591906136a3565b60030b90508060070b8260070b12612d0a57612ce18183613674565b612cec90600a6137a7565b612cff906001600160401b038516613599565b93506110db92505050565b612d148282613674565b612d1f90600a6137a7565b612cff906001600160401b0385166137bc565b60405180606001604052806003906020820280368337509192915050565b604051806101e00160405280600f905b612da06040518060e00160405280600081526020016000815260200160008152602001600081526020016000815260200160008152602001600081525090565b815260200190600190039081612d605790505090565b508054600082559060005260206000209081019061133a91905b80821115612de45760008155600101612dd0565b5090565b600060208284031215612dfa57600080fd5b5035919050565b6001600160a01b038116811461133a57600080fd5b60008060408385031215612e2957600080fd5b8235612e3481612e01565b946020939093013593505050565b60608101818360005b6003811015612e6a578151835260209283019290910190600101612e4b565b50505092915050565b600081518084526020808501945080840160005b83811015612ea357815187529582019590820190600101612e87565b509495945050505050565b6000815180845260005b81811015612ed457602081850181015186830182015201612eb8565b506000602082860101526020601f19601f83011685010191505092915050565b6000602080835261010083018451828501528185015160408501526040850151606085015260608501516080850152608085015160e060a0860152818151808452610120870191508483019350600092505b80831015612f665783518252928401926001929092019190840190612f46565b5060a08701519350601f199250828682030160c0870152612f878185612e73565b9350505060c0850151818584030160e0860152611d8a8382612eae565b60008060408385031215612fb757600080fd5b50508035926020909101359150565b600060208284031215612fd857600080fd5b81356110db81612e01565b60008083601f840112612ff557600080fd5b5081356001600160401b0381111561300c57600080fd5b6020830191508360208260051b850101111561302757600080fd5b9250929050565b60008060008060008060a0878903121561304757600080fd5b8635955060208701359450604087013593506060870135925060808701356001600160401b0381111561307957600080fd5b61308589828a01612fe3565b979a9699509497509295939492505050565b6000806000806000608086880312156130af57600080fd5b85356130ba81612e01565b9450602086013593506040860135925060608601356001600160401b038111156130e357600080fd5b6130ef88828901612fe3565b969995985093965092949392505050565b60008060006040848603121561311557600080fd5b83356001600160401b0381111561312b57600080fd5b61313786828701612fe3565b909790965060209590950135949350505050565b805182526020810151602083015260408101516040830152606081015160608301526080810151608083015260a081015160a083015260c081015160c08301525050565b610d208101818360005b600f811015612e6a576131ad83835161314b565b60e0929092019160209190910190600101613199565b6000806000606084860312156131d857600080fd5b83356131e381612e01565b95602085013595506040909401359392505050565b60e081016106ef828461314b565b6000806000806060858703121561321c57600080fd5b843593506020850135925060408501356001600160401b0381111561324057600080fd5b61324c87828801612fe3565b95989497509550505050565b6000602080830181845280855180835260408601915060408160051b870101925083870160005b828110156132ad57603f1988860301845261329b858351612eae565b9450928501929085019060010161327f565b5092979650505050505050565b600181811c908216806132ce57607f821691505b602082108103611ebf57634e487b7160e01b600052602260045260246000fd5b634e487b7160e01b600052601160045260246000fd5b80820260008212600160ff1b84141615613320576133206132ee565b81810583148215176106ef576106ef6132ee565b634e487b7160e01b600052601260045260246000fd5b60008261335957613359613334565b600160ff1b821460001984141615613373576133736132ee565b500590565b8181036000831280158383131683831282161715611210576112106132ee565b634e487b7160e01b600052603260045260246000fd5b80820182811260008312801582168215821617156133ce576133ce6132ee565b505092915050565b808201808211156106ef576106ef6132ee565b81835281816020850137506000828201602090810191909152601f909101601f19169091010190565b60208082528181018390526000906040600585901b8401810190840186845b878110156134a057868403603f190183528135368a9003601e1901811261345757600080fd5b890185810190356001600160401b0381111561347257600080fd5b80360382131561348157600080fd5b61348c8682846133e9565b955050509184019190840190600101613431565b5091979650505050505050565b6000602082840312156134bf57600080fd5b5051919050565b634e487b7160e01b600052604160045260246000fd5b80516001600160401b03811681146134f357600080fd5b919050565b8051600381900b81146134f357600080fd5b60006080828403121561351c57600080fd5b604051608081018181106001600160401b038211171561354c57634e487b7160e01b600052604160045260246000fd5b6040528251600781900b811461356157600080fd5b815261356f602084016134dc565b6020820152613580604084016134f8565b6040820152606083015160608201528091505092915050565b80820281158282048414176106ef576106ef6132ee565b6000600182016135c2576135c26132ee565b5060010190565b6000602082840312156135db57600080fd5b815180151581146110db57600080fd5b818103818111156106ef576106ef6132ee565b6020808252825482820181905260008481528281209092916040850190845b818110156136395783548352600193840193928501920161361d565b50909695505050505050565b600781810b9083900b01677fffffffffffffff8113677fffffffffffffff19821217156106ef576106ef6132ee565b600782810b9082900b03677fffffffffffffff198112677fffffffffffffff821317156106ef576106ef6132ee565b60008260030b8260030b028060030b9150808214611210576112106132ee565b600181815b808511156136fe5781600019048211156136e4576136e46132ee565b808516156136f157918102915b93841c93908002906136c8565b509250929050565b600082613715575060016106ef565b81613722575060006106ef565b816001811461373857600281146137425761375e565b60019150506106ef565b60ff841115613753576137536132ee565b50506001821b6106ef565b5060208310610133831016604e8410600b8410161715613781575081810a6106ef565b61378b83836136c3565b806000190482111561379f5761379f6132ee565b029392505050565b60006110db6001600160401b03841683613706565b6000826137cb576137cb613334565b50049056fea2646970667358221220e844034190ec2f239e2861cf423e79ae52de882b69815d1387844ebcd26e6d3b64736f6c63430008130033",
    "linkReferences": {}
  },
  "methodIdentifiers": {
    "getAllUserOpenTrades(address)": "50c3cdc3",
    "getAssetPairDetails(uint256)": "1b5042ac",
    "getAssetPairIndexSymbol()": "ee9387de",
    "getBaseBorrowFee()": "3eb0ef2c",
    "getBotRewardBase()": "99484b41",
    "getBotRewardRate()": "4b16d1bc",
    "getCurrentBorrowRate(uint256)": "b8a077a5",
    "getPythPriceFeedAddress()": "c01646cb",
    "getTokenCollateralAddress()": "fa794403",
    "getTotalLongAmount(uint256)": "a829f21d",
    "getTotalShortAmount(uint256)": "0188d579",
    "getTradePositionBorrowFees(address,uint256,uint256)": "dfdc329f",
    "getTradingPairCurrentPrice(bytes[],uint256)": "4fae32e7",
    "getUserLiquidationPrice(address,uint256,uint256)": "ca3e8257",
    "getUserOpenTradesForAsset(address,uint256)": "061ff1f0",
    "getUserTradingPositionDetails(address,uint256,uint256)": "b0a88075",
    "liquidateUser(address,uint256,uint256,bytes[])": "4c70fb6d",
    "marketOrder(uint256,int256,int256,uint256,bytes[])": "37855bb7",
    "orderClose(uint256,uint256,bytes[])": "d928e336",
    "owner()": "8da5cb5b",
    "renounceOwnership()": "715018a6",
    "setBaseBorrowFeePercentage(int256)": "ab48a23a",
    "setBotRewardsRate(int256)": "43b3b908",
    "setBotsRewardsBase(int256)": "b8ed2eb4",
    "setCollateralTokenAddress(address)": "c700b0aa",
    "setMaxBorrowInterestRate(int256)": "fc5dac38",
    "setMaxOpenInterestForPair(uint256,int256)": "1ec3cdc7",
    "setMinTradeSize(int256)": "fb8fbe1f",
    "setOpeningFee(int256)": "eee2b676",
    "setVariableBorrowFeePercentage(int256)": "d6ef8f82",
    "transferOwnership(address)": "f2fde38b",
    "withdrawBotRewards()": "6698f988",
    "withdrawErc20Token(address,uint256)": "9ed6b920",
    "withdrawEth(address)": "25e16063"
  },
  "id": 35
}