{
  "abi": [
    {
      "inputs": [
        {
          "internalType": "address",
          "name": "pythPriceFeedAddress",
          "type": "address"
        },
        {
          "internalType": "address",
          "name": "tokenCollateralAddress",
          "type": "address"
        },
        {
          "internalType": "bytes32[]",
          "name": "pairPriceFeedAddressId",
          "type": "bytes32[]"
        },
        {
          "internalType": "int256[]",
          "name": "maxOpenInterest",
          "type": "int256[]"
        },
        {
          "internalType": "uint256[]",
          "name": "pairIndex",
          "type": "uint256[]"
        },
        {
          "internalType": "string[]",
          "name": "pairSymbol",
          "type": "string[]"
        }
      ],
      "stateMutability": "nonpayable",
      "type": "constructor"
    },
    {
      "inputs": [],
      "name": "OrderBook__InvalidOrderType",
      "type": "error"
    },
    {
      "inputs": [],
      "name": "OrderBook__InvalidTradingPair",
      "type": "error"
    },
    {
      "inputs": [],
      "name": "OrderBook__MaxLeverageIs150",
      "type": "error"
    },
    {
      "inputs": [],
      "name": "OrderBook__MaxNumberOfOpenTrades3Reached",
      "type": "error"
    },
    {
      "inputs": [],
      "name": "OrderBook__MaxOpenInterestReachedLongs",
      "type": "error"
    },
    {
      "inputs": [],
      "name": "OrderBook__MaxOpenInterestShortsReached",
      "type": "error"
    },
    {
      "inputs": [],
      "name": "OrderBook__NeedsMoreThanZero",
      "type": "error"
    },
    {
      "inputs": [],
      "name": "OrderBook__NoBotRewards",
      "type": "error"
    },
    {
      "inputs": [],
      "name": "OrderBook__ParameterArraysMustBeTheSameLength",
      "type": "error"
    },
    {
      "inputs": [],
      "name": "OrderBook__TradeSizeTooSmall",
      "type": "error"
    },
    {
      "inputs": [],
      "name": "OrderBook__TransferFailed",
      "type": "error"
    },
    {
      "inputs": [],
      "name": "OrderBook__UserClosingNonExistingPosition",
      "type": "error"
    },
    {
      "inputs": [
        {
          "internalType": "int256",
          "name": "userPNL",
          "type": "int256"
        }
      ],
      "name": "OrderBook__UserPositionNotOpenForLiquidation",
      "type": "error"
    },
    {
      "anonymous": false,
      "inputs": [
        {
          "indexed": true,
          "internalType": "uint256",
          "name": "pairIndex",
          "type": "uint256"
        },
        {
          "indexed": true,
          "internalType": "int256",
          "name": "borrowFee",
          "type": "int256"
        },
        {
          "indexed": true,
          "internalType": "uint256",
          "name": "orderType",
          "type": "uint256"
        }
      ],
      "name": "AvgBorrowFeeCalculation",
      "type": "event"
    },
    {
      "anonymous": false,
      "inputs": [
        {
          "indexed": true,
          "internalType": "address",
          "name": "user",
          "type": "address"
        },
        {
          "indexed": true,
          "internalType": "int256",
          "name": "newBaseBorrowFeePercentage",
          "type": "int256"
        }
      ],
      "name": "BaseBorrowFeeChanged",
      "type": "event"
    },
    {
      "anonymous": false,
      "inputs": [
        {
          "indexed": true,
          "internalType": "address",
          "name": "user",
          "type": "address"
        },
        {
          "indexed": true,
          "internalType": "int256",
          "name": "newVariableBorrowFeePercentage",
          "type": "int256"
        }
      ],
      "name": "BaseVariableBorrowFeeChanged",
      "type": "event"
    },
    {
      "anonymous": false,
      "inputs": [
        {
          "indexed": true,
          "internalType": "uint256",
          "name": "pairIndex",
          "type": "uint256"
        },
        {
          "indexed": false,
          "internalType": "int256[]",
          "name": "borrowFees",
          "type": "int256[]"
        }
      ],
      "name": "BorrowFeeUpdated",
      "type": "event"
    },
    {
      "anonymous": false,
      "inputs": [
        {
          "indexed": true,
          "internalType": "address",
          "name": "botAddress",
          "type": "address"
        },
        {
          "indexed": true,
          "internalType": "uint256",
          "name": "amount",
          "type": "uint256"
        }
      ],
      "name": "BotRewardsClaimed",
      "type": "event"
    },
    {
      "anonymous": false,
      "inputs": [
        {
          "indexed": true,
          "internalType": "address",
          "name": "user",
          "type": "address"
        },
        {
          "indexed": true,
          "internalType": "uint256",
          "name": "pairIndex",
          "type": "uint256"
        }
      ],
      "name": "MarketTrade",
      "type": "event"
    },
    {
      "anonymous": false,
      "inputs": [
        {
          "indexed": true,
          "internalType": "address",
          "name": "user",
          "type": "address"
        },
        {
          "indexed": true,
          "internalType": "int256",
          "name": "newMaxBorrowInterestRate",
          "type": "int256"
        }
      ],
      "name": "MaxBorrowRateChanged",
      "type": "event"
    },
    {
      "anonymous": false,
      "inputs": [
        {
          "indexed": true,
          "internalType": "address",
          "name": "user",
          "type": "address"
        },
        {
          "indexed": true,
          "internalType": "int256",
          "name": "newMinTradeSize",
          "type": "int256"
        }
      ],
      "name": "MinTradeSizeChanged",
      "type": "event"
    },
    {
      "anonymous": false,
      "inputs": [
        {
          "indexed": false,
          "internalType": "int256",
          "name": "interestLongs",
          "type": "int256"
        },
        {
          "indexed": false,
          "internalType": "int256",
          "name": "interestShorts",
          "type": "int256"
        }
      ],
      "name": "OpenInterestUpdated",
      "type": "event"
    },
    {
      "anonymous": false,
      "inputs": [
        {
          "indexed": false,
          "internalType": "address",
          "name": "user",
          "type": "address"
        },
        {
          "indexed": false,
          "internalType": "int256",
          "name": "newOpeningFee",
          "type": "int256"
        }
      ],
      "name": "OpeningFeeChanged",
      "type": "event"
    },
    {
      "anonymous": false,
      "inputs": [
        {
          "indexed": true,
          "internalType": "address",
          "name": "user",
          "type": "address"
        },
        {
          "indexed": true,
          "internalType": "uint256",
          "name": "pairIndex",
          "type": "uint256"
        },
        {
          "indexed": false,
          "internalType": "uint256",
          "name": "userTradeIndex",
          "type": "uint256"
        }
      ],
      "name": "OrderClosed",
      "type": "event"
    },
    {
      "anonymous": false,
      "inputs": [
        {
          "indexed": true,
          "internalType": "address",
          "name": "userAddress",
          "type": "address"
        },
        {
          "indexed": true,
          "internalType": "uint256",
          "name": "pairIndex",
          "type": "uint256"
        },
        {
          "indexed": true,
          "internalType": "int256",
          "name": "userPNL",
          "type": "int256"
        }
      ],
      "name": "OrderClosedTradeDetails",
      "type": "event"
    },
    {
      "anonymous": false,
      "inputs": [
        {
          "indexed": true,
          "internalType": "address",
          "name": "previousOwner",
          "type": "address"
        },
        {
          "indexed": true,
          "internalType": "address",
          "name": "newOwner",
          "type": "address"
        }
      ],
      "name": "OwnershipTransferred",
      "type": "event"
    },
    {
      "anonymous": false,
      "inputs": [
        {
          "indexed": true,
          "internalType": "int256",
          "name": "priceChange",
          "type": "int256"
        }
      ],
      "name": "PriceChange",
      "type": "event"
    },
    {
      "anonymous": false,
      "inputs": [
        {
          "indexed": false,
          "internalType": "uint256",
          "name": "startIndex",
          "type": "uint256"
        }
      ],
      "name": "StartIndex",
      "type": "event"
    },
    {
      "anonymous": false,
      "inputs": [
        {
          "indexed": false,
          "internalType": "int256",
          "name": "sum",
          "type": "int256"
        }
      ],
      "name": "Sum",
      "type": "event"
    },
    {
      "anonymous": false,
      "inputs": [
        {
          "indexed": false,
          "internalType": "uint256",
          "name": "timeArrayLength",
          "type": "uint256"
        }
      ],
      "name": "TimeArrayLength",
      "type": "event"
    },
    {
      "anonymous": false,
      "inputs": [
        {
          "indexed": true,
          "internalType": "address",
          "name": "user",
          "type": "address"
        },
        {
          "indexed": true,
          "internalType": "uint256",
          "name": "pairIndex",
          "type": "uint256"
        },
        {
          "indexed": true,
          "internalType": "uint256",
          "name": "userPairTradeIndex",
          "type": "uint256"
        }
      ],
      "name": "TradeOpened",
      "type": "event"
    },
    {
      "anonymous": false,
      "inputs": [
        {
          "indexed": true,
          "internalType": "address",
          "name": "user",
          "type": "address"
        },
        {
          "indexed": false,
          "internalType": "uint256",
          "name": "pairIndex",
          "type": "uint256"
        },
        {
          "indexed": false,
          "internalType": "uint256",
          "name": "userTradeIndex",
          "type": "uint256"
        }
      ],
      "name": "UserLiquidated",
      "type": "event"
    },
    {
      "anonymous": false,
      "inputs": [
        {
          "indexed": true,
          "internalType": "address",
          "name": "userAddress",
          "type": "address"
        },
        {
          "indexed": true,
          "internalType": "uint256",
          "name": "pairIndex",
          "type": "uint256"
        },
        {
          "indexed": true,
          "internalType": "int256",
          "name": "userPNL",
          "type": "int256"
        }
      ],
      "name": "UserLiquidationDetails",
      "type": "event"
    },
    {
      "anonymous": false,
      "inputs": [
        {
          "indexed": true,
          "internalType": "int256",
          "name": "userPNl",
          "type": "int256"
        }
      ],
      "name": "UserPNL",
      "type": "event"
    },
    {
      "inputs": [
        {
          "internalType": "address",
          "name": "user",
          "type": "address"
        }
      ],
      "name": "getAllUserOpenTrades",
      "outputs": [
        {
          "components": [
            {
              "internalType": "uint256",
              "name": "pairNumber",
              "type": "uint256"
            },
            {
              "internalType": "int256",
              "name": "openPrice",
              "type": "int256"
            },
            {
              "internalType": "int256",
              "name": "collateralAfterFee",
              "type": "int256"
            },
            {
              "internalType": "int256",
              "name": "leverage",
              "type": "int256"
            },
            {
              "internalType": "uint256",
              "name": "longShort",
              "type": "uint256"
            },
            {
              "internalType": "uint256",
              "name": "openTime",
              "type": "uint256"
            },
            {
              "internalType": "uint256",
              "name": "indexBorrowPercentArray",
              "type": "uint256"
            }
          ],
          "internalType": "struct OrderBook.PositionDetails[15]",
          "name": "",
          "type": "tuple[15]"
        }
      ],
      "stateMutability": "view",
      "type": "function"
    },
    {
      "inputs": [
        {
          "internalType": "uint256",
          "name": "pairIndex",
          "type": "uint256"
        }
      ],
      "name": "getAssetPairDetails",
      "outputs": [
        {
          "components": [
            {
              "internalType": "bytes32",
              "name": "pythPriceFeedAddress",
              "type": "bytes32"
            },
            {
              "internalType": "int256",
              "name": "assetTotalShorts",
              "type": "int256"
            },
            {
              "internalType": "int256",
              "name": "assetTotalLongs",
              "type": "int256"
            },
            {
              "internalType": "int256",
              "name": "maxOpenInterest",
              "type": "int256"
            },
            {
              "internalType": "int256[]",
              "name": "borrowFee",
              "type": "int256[]"
            },
            {
              "internalType": "uint256[]",
              "name": "time",
              "type": "uint256[]"
            },
            {
              "internalType": "string",
              "name": "pairSymbol",
              "type": "string"
            }
          ],
          "internalType": "struct OrderBook.AssetPairDetails",
          "name": "",
          "type": "tuple"
        }
      ],
      "stateMutability": "view",
      "type": "function"
    },
    {
      "inputs": [],
      "name": "getAssetPairIndexSymbol",
      "outputs": [
        {
          "internalType": "string[]",
          "name": "",
          "type": "string[]"
        }
      ],
      "stateMutability": "view",
      "type": "function"
    },
    {
      "inputs": [
        {
          "internalType": "uint256",
          "name": "pairIndex",
          "type": "uint256"
        }
      ],
      "name": "getCurrentBorrowRate",
      "outputs": [
        {
          "internalType": "int256",
          "name": "",
          "type": "int256"
        }
      ],
      "stateMutability": "view",
      "type": "function"
    },
    {
      "inputs": [],
      "name": "getPythPriceFeedAddress",
      "outputs": [
        {
          "internalType": "address",
          "name": "",
          "type": "address"
        }
      ],
      "stateMutability": "view",
      "type": "function"
    },
    {
      "inputs": [],
      "name": "getTokenCollateralAddress",
      "outputs": [
        {
          "internalType": "address",
          "name": "",
          "type": "address"
        }
      ],
      "stateMutability": "view",
      "type": "function"
    },
    {
      "inputs": [
        {
          "internalType": "uint256",
          "name": "pairIndex",
          "type": "uint256"
        }
      ],
      "name": "getTotalLongAmount",
      "outputs": [
        {
          "internalType": "int256",
          "name": "",
          "type": "int256"
        }
      ],
      "stateMutability": "view",
      "type": "function"
    },
    {
      "inputs": [
        {
          "internalType": "uint256",
          "name": "pairIndex",
          "type": "uint256"
        }
      ],
      "name": "getTotalShortAmount",
      "outputs": [
        {
          "internalType": "int256",
          "name": "",
          "type": "int256"
        }
      ],
      "stateMutability": "view",
      "type": "function"
    },
    {
      "inputs": [
        {
          "internalType": "bytes[]",
          "name": "priceUpdateData",
          "type": "bytes[]"
        },
        {
          "internalType": "uint256",
          "name": "pairIndex",
          "type": "uint256"
        }
      ],
      "name": "getTradingPairCurrentPrice",
      "outputs": [
        {
          "components": [
            {
              "internalType": "int64",
              "name": "price",
              "type": "int64"
            },
            {
              "internalType": "uint64",
              "name": "conf",
              "type": "uint64"
            },
            {
              "internalType": "int32",
              "name": "expo",
              "type": "int32"
            },
            {
              "internalType": "uint256",
              "name": "publishTime",
              "type": "uint256"
            }
          ],
          "internalType": "struct PythStructs.Price",
          "name": "",
          "type": "tuple"
        }
      ],
      "stateMutability": "payable",
      "type": "function"
    },
    {
      "inputs": [
        {
          "internalType": "address",
          "name": "user",
          "type": "address"
        },
        {
          "internalType": "uint256",
          "name": "assetPairIndex",
          "type": "uint256"
        },
        {
          "internalType": "uint256",
          "name": "openTradesIdForPair",
          "type": "uint256"
        }
      ],
      "name": "getUserLiquidationPrice",
      "outputs": [
        {
          "internalType": "int256",
          "name": "liquidationPrice",
          "type": "int256"
        },
        {
          "internalType": "int256",
          "name": "borrowFeeAmount",
          "type": "int256"
        }
      ],
      "stateMutability": "view",
      "type": "function"
    },
    {
      "inputs": [
        {
          "internalType": "address",
          "name": "user",
          "type": "address"
        },
        {
          "internalType": "uint256",
          "name": "pairIndex",
          "type": "uint256"
        }
      ],
      "name": "getUserOpenTradesForAsset",
      "outputs": [
        {
          "internalType": "uint256[3]",
          "name": "",
          "type": "uint256[3]"
        }
      ],
      "stateMutability": "view",
      "type": "function"
    },
    {
      "inputs": [
        {
          "internalType": "address",
          "name": "user",
          "type": "address"
        },
        {
          "internalType": "uint256",
          "name": "pairIndex",
          "type": "uint256"
        },
        {
          "internalType": "uint256",
          "name": "openTradesIdForPair",
          "type": "uint256"
        }
      ],
      "name": "getUserTradingPositionDetails",
      "outputs": [
        {
          "components": [
            {
              "internalType": "uint256",
              "name": "pairNumber",
              "type": "uint256"
            },
            {
              "internalType": "int256",
              "name": "openPrice",
              "type": "int256"
            },
            {
              "internalType": "int256",
              "name": "collateralAfterFee",
              "type": "int256"
            },
            {
              "internalType": "int256",
              "name": "leverage",
              "type": "int256"
            },
            {
              "internalType": "uint256",
              "name": "longShort",
              "type": "uint256"
            },
            {
              "internalType": "uint256",
              "name": "openTime",
              "type": "uint256"
            },
            {
              "internalType": "uint256",
              "name": "indexBorrowPercentArray",
              "type": "uint256"
            }
          ],
          "internalType": "struct OrderBook.PositionDetails",
          "name": "",
          "type": "tuple"
        }
      ],
      "stateMutability": "view",
      "type": "function"
    },
    {
      "inputs": [
        {
          "internalType": "address",
          "name": "user",
          "type": "address"
        },
        {
          "internalType": "uint256",
          "name": "pairIndex",
          "type": "uint256"
        },
        {
          "internalType": "uint256",
          "name": "userTradesIdForPair",
          "type": "uint256"
        },
        {
          "internalType": "bytes[]",
          "name": "priceUpdateData",
          "type": "bytes[]"
        }
      ],
      "name": "liquidateUser",
      "outputs": [],
      "stateMutability": "payable",
      "type": "function"
    },
    {
      "inputs": [
        {
          "internalType": "uint256",
          "name": "pairIndex",
          "type": "uint256"
        },
        {
          "internalType": "int256",
          "name": "amountCollateral",
          "type": "int256"
        },
        {
          "internalType": "int256",
          "name": "leverage",
          "type": "int256"
        },
        {
          "internalType": "uint256",
          "name": "orderType",
          "type": "uint256"
        },
        {
          "internalType": "bytes[]",
          "name": "priceUpdateData",
          "type": "bytes[]"
        }
      ],
      "name": "marketOrder",
      "outputs": [],
      "stateMutability": "payable",
      "type": "function"
    },
    {
      "inputs": [
        {
          "internalType": "uint256",
          "name": "pairIndex",
          "type": "uint256"
        },
        {
          "internalType": "uint256",
          "name": "userTradesIdForPair",
          "type": "uint256"
        },
        {
          "internalType": "bytes[]",
          "name": "priceUpdateData",
          "type": "bytes[]"
        }
      ],
      "name": "orderClose",
      "outputs": [],
      "stateMutability": "payable",
      "type": "function"
    },
    {
      "inputs": [],
      "name": "owner",
      "outputs": [
        {
          "internalType": "address",
          "name": "",
          "type": "address"
        }
      ],
      "stateMutability": "view",
      "type": "function"
    },
    {
      "inputs": [],
      "name": "renounceOwnership",
      "outputs": [],
      "stateMutability": "nonpayable",
      "type": "function"
    },
    {
      "inputs": [
        {
          "internalType": "int256",
          "name": "newBaseBorrowFeePercentage",
          "type": "int256"
        }
      ],
      "name": "setBaseBorrowFeePercentage",
      "outputs": [],
      "stateMutability": "nonpayable",
      "type": "function"
    },
    {
      "inputs": [
        {
          "internalType": "int256",
          "name": "newMaxBorrowInterestRate",
          "type": "int256"
        }
      ],
      "name": "setMaxBorrowInterestRate",
      "outputs": [],
      "stateMutability": "nonpayable",
      "type": "function"
    },
    {
      "inputs": [
        {
          "internalType": "int256",
          "name": "newMinTradeSize",
          "type": "int256"
        }
      ],
      "name": "setMinTradeSize",
      "outputs": [],
      "stateMutability": "nonpayable",
      "type": "function"
    },
    {
      "inputs": [
        {
          "internalType": "int256",
          "name": "newOpeningFeePercent",
          "type": "int256"
        }
      ],
      "name": "setOpeningFee",
      "outputs": [],
      "stateMutability": "nonpayable",
      "type": "function"
    },
    {
      "inputs": [
        {
          "internalType": "int256",
          "name": "newVariableBorrowFeePercentage",
          "type": "int256"
        }
      ],
      "name": "setVariableBorrowFeePercentage",
      "outputs": [],
      "stateMutability": "nonpayable",
      "type": "function"
    },
    {
      "inputs": [
        {
          "internalType": "address",
          "name": "newOwner",
          "type": "address"
        }
      ],
      "name": "transferOwnership",
      "outputs": [],
      "stateMutability": "nonpayable",
      "type": "function"
    },
    {
      "inputs": [],
      "name": "withdrawBotRewards",
      "outputs": [],
      "stateMutability": "nonpayable",
      "type": "function"
    },
    {
      "inputs": [
        {
          "internalType": "address",
          "name": "tokenAddress",
          "type": "address"
        },
        {
          "internalType": "uint256",
          "name": "amount",
          "type": "uint256"
        }
      ],
      "name": "withdrawErc20Token",
      "outputs": [],
      "stateMutability": "nonpayable",
      "type": "function"
    },
    {
      "inputs": [
        {
          "internalType": "address payable",
          "name": "_to",
          "type": "address"
        }
      ],
      "name": "withdrawEth",
      "outputs": [],
      "stateMutability": "payable",
      "type": "function"
    }
  ],
  "bytecode": {
    "object": "0x6080604052611d4c6004556102586005556064600655612710600755685150ae84a8cdf00000600855671bc16d674ec800006009553480156200004157600080fd5b506040516200385a3803806200385a833981016040819052620000649162000427565b60016000556200007433620001cb565b8151845114620000975760405163f102e13760e01b815260040160405180910390fd5b8051825114620000ba5760405163f102e13760e01b815260040160405180910390fd5b600380546001600160a01b038088166001600160a01b0319928316179092558551600a55600280549289169290911691909117905560005b8451811015620001be5784818151811062000111576200011162000505565b6020026020010151600b60008381526020019081526020016000206000018190555081818151811062000148576200014862000505565b6020026020010151600b60008381526020019081526020016000206006019081620001749190620005aa565b508381815181106200018a576200018a62000505565b6020908102919091018101516000838152600b90925260409091206003015580620001b58162000676565b915050620000f2565b505050505050506200069e565b600180546001600160a01b038381166001600160a01b0319831681179093556040519116919082907f8be0079c531659141344cd1fd0a4f28419497f9722a3daafe3b4186f6b6457e090600090a35050565b80516001600160a01b03811681146200023557600080fd5b919050565b634e487b7160e01b600052604160045260246000fd5b604051601f8201601f191681016001600160401b03811182821017156200027b576200027b6200023a565b604052919050565b60006001600160401b038211156200029f576200029f6200023a565b5060051b60200190565b600082601f830112620002bb57600080fd5b81516020620002d4620002ce8362000283565b62000250565b82815260059290921b84018101918181019086841115620002f457600080fd5b8286015b84811015620003115780518352918301918301620002f8565b509695505050505050565b6000601f83818401126200032f57600080fd5b8251602062000342620002ce8362000283565b82815260059290921b850181019181810190878411156200036257600080fd5b8287015b848110156200041b5780516001600160401b0380821115620003885760008081fd5b818a0191508a603f8301126200039e5760008081fd5b8582015181811115620003b557620003b56200023a565b620003c8818a01601f1916880162000250565b915080825260408c81838601011115620003e25760008081fd5b60005b8281101562000402578481018201518482018a01528801620003e5565b5050600090820187015284525091830191830162000366565b50979650505050505050565b60008060008060008060c087890312156200044157600080fd5b6200044c876200021d565b95506200045c602088016200021d565b60408801519095506001600160401b03808211156200047a57600080fd5b620004888a838b01620002a9565b955060608901519150808211156200049f57600080fd5b620004ad8a838b01620002a9565b94506080890151915080821115620004c457600080fd5b620004d28a838b01620002a9565b935060a0890151915080821115620004e957600080fd5b50620004f889828a016200031c565b9150509295509295509295565b634e487b7160e01b600052603260045260246000fd5b600181811c908216806200053057607f821691505b6020821081036200055157634e487b7160e01b600052602260045260246000fd5b50919050565b601f821115620005a557600081815260208120601f850160051c81016020861015620005805750805b601f850160051c820191505b81811015620005a1578281556001016200058c565b5050505b505050565b81516001600160401b03811115620005c657620005c66200023a565b620005de81620005d784546200051b565b8462000557565b602080601f831160018114620006165760008415620005fd5750858301515b600019600386901b1c1916600185901b178555620005a1565b600085815260208120601f198616915b82811015620006475788860151825594840194600190910190840162000626565b5085821015620006665787850151600019600388901b60f8161c191681555b5050505050600190811b01905550565b6000600182016200069757634e487b7160e01b600052601160045260246000fd5b5060010190565b6131ac80620006ae6000396000f3fe6080604052600436106101815760003560e01c8063ab48a23a116100d1578063d928e3361161008a578063f2fde38b11610064578063f2fde38b146104c2578063fa794403146104e2578063fb8fbe1f14610500578063fc5dac381461052057600080fd5b8063d928e3361461046d578063ee9387de14610480578063eee2b676146104a257600080fd5b8063ab48a23a1461038d578063b0a88075146103ad578063b8a077a5146103da578063c01646cb146103fa578063ca3e825714610418578063d6ef8f821461044d57600080fd5b80634fae32e71161013e578063715018a611610118578063715018a6146102f65780638da5cb5b1461030b5780639ed6b9201461033d578063a829f21d1461035d57600080fd5b80634fae32e71461025e57806350c3cdc3146102b45780636698f988146102e157600080fd5b80630188d57914610186578063061ff1f0146101c95780631b5042ac146101f657806325e160631461022357806337855bb7146102385780634c70fb6d1461024b575b600080fd5b34801561019257600080fd5b506101b66101a13660046128cc565b6000908152600b602052604090206001015490565b6040519081526020015b60405180910390f35b3480156101d557600080fd5b506101e96101e43660046128fa565b610540565b6040516101c09190612926565b34801561020257600080fd5b506102166102113660046128cc565b61059f565b6040516101c091906129d8565b610236610231366004612a92565b610765565b005b610236610246366004612b02565b6107e8565b610236610259366004612b6c565b610a50565b61027161026c366004612bd6565b610d43565b6040516101c09190815160070b815260208083015167ffffffffffffffff169082015260408083015160030b908201526060918201519181019190915260800190565b3480156102c057600080fd5b506102d46102cf366004612a92565b610ecf565b6040516101c09190612c66565b3480156102ed57600080fd5b50610236611004565b34801561030257600080fd5b5061023661112a565b34801561031757600080fd5b506001546001600160a01b03165b6040516001600160a01b0390911681526020016101c0565b34801561034957600080fd5b506102366103583660046128fa565b61113e565b34801561036957600080fd5b506101b66103783660046128cc565b6000908152600b602052604090206002015490565b34801561039957600080fd5b506102366103a83660046128cc565b6111e1565b3480156103b957600080fd5b506103cd6103c8366004612c9a565b61121e565b6040516101c09190612ccf565b3480156103e657600080fd5b506101b66103f53660046128cc565b6112dc565b34801561040657600080fd5b506002546001600160a01b0316610325565b34801561042457600080fd5b50610438610433366004612c9a565b611497565b604080519283526020830191909152016101c0565b34801561045957600080fd5b506102366104683660046128cc565b6116eb565b61023661047b366004612cdd565b611728565b34801561048c57600080fd5b5061049561196f565b6040516101c09190612d30565b3480156104ae57600080fd5b506102366104bd3660046128cc565b611aa1565b3480156104ce57600080fd5b506102366104dd366004612a92565b611aea565b3480156104ee57600080fd5b506003546001600160a01b0316610325565b34801561050c57600080fd5b5061023661051b3660046128cc565b611b60565b34801561052c57600080fd5b5061023661053b3660046128cc565b611b9d565b610548612816565b6001600160a01b0383166000908152600d6020908152604080832085845290915290819020815160608101928390529160039082845b81548152602001906001019080831161057e57505050505090505b92915050565b6105e26040518060e00160405280600080191681526020016000815260200160008152602001600081526020016060815260200160608152602001606081525090565b6000828152600b6020908152604091829020825160e0810184528154815260018201548184015260028201548185015260038201546060820152600482018054855181860281018601909652808652919492936080860193929083018282801561066b57602002820191906000526020600020905b815481526020019060010190808311610657575b50505050508152602001600582018054806020026020016040519081016040528092919081815260200182805480156106c357602002820191906000526020600020905b8154815260200190600101908083116106af575b505050505081526020016006820180546106dc90612d92565b80601f016020809104026020016040519081016040528092919081815260200182805461070890612d92565b80156107555780601f1061072a57610100808354040283529160200191610755565b820191906000526020600020905b81548152906001019060200180831161073857829003601f168201915b5050505050815250509050919050565b61076d611bda565b600080826001600160a01b03164760405160006040518083038185875af1925050503d80600081146107bb576040519150601f19603f3d011682016040523d82523d6000602084013e6107c0565b606091505b5091509150816107e357604051630c74658f60e01b815260040160405180910390fd5b505050565b6000868152600b60205260408120543391879187918a9188910361081e57604051621bca5160e61b815260040160405180910390fd5b801580159061082e575080600114155b1561084c576040516302763ae360e11b815260040160405180910390fd5b831580610857575082155b1561087557604051637018737760e11b815260040160405180910390fd5b600854620f42406108868587612ddc565b6108909190612e0c565b12156108af57604051633af9eaa560e01b815260040160405180910390fd5b801580156108f557506000828152600b6020526040902060028101546003909101546108db9190612e48565b620f42406108e98587612ddc565b6108f39190612e0c565b135b156109135760405163e72486b360e01b815260040160405180910390fd5b80600114801561095b57506000828152600b6020526040902060018101546003909101546109419190612e48565b620f424061094f8587612ddc565b6109599190612e0c565b135b1561097957604051630a7f135360e41b815260040160405180910390fd5b6001600160a01b0385166000908152600d6020908152604080832085845290915290206003906109a890611c34565b106109c6576040516306152e2f60e11b815260040160405180910390fd5b6308f0d1808313156109eb57604051635694d08560e11b815260040160405180910390fd5b6109f3611c73565b6109fd338b611ccc565b610a0c338c8c8c8c8c8c611d0c565b6040518b9033907f02c61321c808585dc6593befb37f9909ee37888b439a1990c568e475dddb765590600090a3610a436001600055565b5050505050505050505050565b6001600160a01b0385166000908152600c60209081526040808320878452825280832086845290915281206001015486918691869103610aa357604051638177d6b960e01b815260040160405180910390fd5b610aab611c73565b6001600160a01b0388166000908152600c602090815260408083208a845282528083208984528252808320815160e081018352815481526001820154938101939093526002810154918301919091526003810154606083015260048101546080830152600581015460a08301526006015460c082015290610b2f8a838a8a8a611eff565b905060008113610d0c576001600160a01b038a166000908152600c602090815260408083208551845282528083208b845290915280822082815560018101839055600281018390556003810183905560048101839055600581018390556006019190915560808301518351606085015192850151610bc793620f424091610bb69190612ddc565b610bc09190612e0c565b60006120fc565b6000898152600b6020908152604082206005018054600181018255908352912042910155610bf48961221c565b6001600160a01b038a166000908152600d602090815260408083208c845290915281208960038110610c2857610c28612e68565b01556001600160a01b038a166000908152600d602090815260408083208551845290915281208960038110610c5f57610c5f612e68565b0155600954336000908152600e602052604081208054909190610c83908490612e7e565b9091555050815160408051918252602082018a90526001600160a01b038c16917fc49f1669c07127f11fd504cf7a83840a741e5646b0106157f132141762372513910160405180910390a281516040518291906001600160a01b038d16907f6273f181fac9230780c36df1cc086e5607a2fb9efc370b4b505947cf6ea95ea690600090a4610d2d565b6040516313d19c2b60e31b8152600481018290526024015b60405180910390fd5b5050610d396001600055565b5050505050505050565b60408051608081018252600080825260208201819052918101829052606081019190915260025460405163d47eed4560e01b81526000916001600160a01b03169063d47eed4590610d9a9088908890600401612eba565b602060405180830381865afa158015610db7573d6000803e3d6000fd5b505050506040513d601f19601f82011682018060405250810190610ddb9190612f56565b600254604051631df3cbc560e31b81529192506001600160a01b03169063ef9e5e28908390610e109089908990600401612eba565b6000604051808303818588803b158015610e2957600080fd5b505af1158015610e3d573d6000803e3d6000fd5b50506002546000878152600b6020526040908190205490516331d98b3f60e01b81526001600160a01b0390921694506331d98b3f9350610e8592509060040190815260200190565b608060405180830381865afa158015610ea2573d6000803e3d6000fd5b505050506040513d601f19601f82011682018060405250810190610ec69190612fb4565b95945050505050565b610ed7612834565b610edf612834565b60005b6005811015610ffd5760005b6003811015610fea576001600160a01b0385166000908152600c60209081526040808320858452825280832084845290915290206003015415610fd857600081610f39846003613044565b610f439190612e7e565b6001600160a01b0387166000908152600c602090815260408083208784528252808320868452825291829020825160e081018452815481526001820154928101929092526002810154928201929092526003820154606082015260048201546080820152600582015460a082015260069091015460c08201529091508482600f8110610fd157610fd1612e68565b6020020152505b80610fe28161305b565b915050610eee565b5080610ff58161305b565b915050610ee2565b5092915050565b336000818152600e60205260408120549003611033576040516321a5c60960e21b815260040160405180910390fd5b61103b611c73565b336000818152600e602052604080822080549083905560035491516323b872dd60e01b8152306004820152602481019490945260448401819052926001600160a01b03909116906323b872dd906064016020604051808303816000875af11580156110aa573d6000803e3d6000fd5b505050506040513d601f19601f820116820180604052508101906110ce9190613074565b9050806110ee57604051630c74658f60e01b815260040160405180910390fd5b604051829033907f76f16872f39a52b614b047175768d06df48efa19020f1d0e066515817f97aa6290600090a350506111276001600055565b50565b611132611bda565b61113c6000612455565b565b611146611bda565b6040516323b872dd60e01b8152306004820152336024820152604481018290526000906001600160a01b038416906323b872dd906064015b6020604051808303816000875af115801561119d573d6000803e3d6000fd5b505050506040513d601f19601f820116820180604052508101906111c19190613074565b9050806107e357604051630c74658f60e01b815260040160405180910390fd5b6111e9611bda565b6005819055604051819033907f4edf89908de270aa88947c979c2c8988831490f7da4fa3c2a85f63c591256dda90600090a350565b61125e6040518060e00160405280600081526020016000815260200160008152602001600081526020016000815260200160008152602001600081525090565b506001600160a01b03929092166000908152600c60209081526040808320938352928152828220938252928352819020815160e081018352815481526001820154938101939093526002810154918301919091526003810154606083015260048101546080830152600581015460a08301526006015460c082015290565b6000818152600b60209081526040808320815160e08101835281548152600182015481850152600282015481840152600382015460608201526004820180548451818702810187019095528085528695929460808601939092919083018282801561136657602002820191906000526020600020905b815481526020019060010190808311611352575b50505050508152602001600582018054806020026020016040519081016040528092919081815260200182805480156113be57602002820191906000526020600020905b8154815260200190600101908083116113aa575b505050505081526020016006820180546113d790612d92565b80601f016020809104026020016040519081016040528092919081815260200182805461140390612d92565b80156114505780601f1061142557610100808354040283529160200191611450565b820191906000526020600020905b81548152906001019060200180831161143357829003601f168201915b5050509190925250505060808101518051919250600090611472600184613096565b8151811061148257611482612e68565b60200260200101519050809350505050919050565b6001600160a01b0383166000908152600c602090815260408083208584528252808320848452909152812060010154819085908590859084036114ed57604051638177d6b960e01b815260040160405180910390fd5b6001600160a01b0388166000908152600c602090815260408083208a845282528083208984528252808320815160e0810183528154815260018201549381019390935260028101549183019190915260038101546060830152600481015460808301819052600582015460a084015260069091015460c0830152909190611578908b908b908b6124a7565b9050610e1061158d62989680620f4240612ddc565b6115979190612ddc565b826060015183604001516115ab9190612ddc565b60a08401516115ba9042613096565b6115c49084612ddc565b6115ce9190612ddc565b6115d89190612e0c565b955081608001516000036116605760608201516115f8620f424088612ddc565b6116029190612e0c565b620f424083606001516116159190612e48565b6060840151602085015161162c90620f4240612ddc565b6116369190612e0c565b6116409190612ddc565b61164d9062989680612ddc565b61165791906130a9565b965050506116e0565b81608001516001036116dd57606082015161167e620f424088612ddc565b6116889190612e0c565b620f4240836060015161169b91906130a9565b606084015160208501516116b290620f4240612ddc565b6116bc9190612e0c565b6116c69190612ddc565b6116d39062989680612ddc565b6116579190612e48565b50505b505050935093915050565b6116f3611bda565b6006819055604051819033907f279d43723892d10e0136d5738a51dd6e241ed079ed997fc0a9b66e6246dcd34890600090a350565b336000818152600c60209081526040808320888452825280832087845290915281206001015486918691900361177157604051638177d6b960e01b815260040160405180910390fd5b611779611c73565b336000818152600c602090815260408083208b845282528083208a84528252808320815160e081018352815481526001820154938101939093526002810154918301919091526003810154606083015260048101546080830152600581015460a08301526006015460c0820152916117f490838a8a8a611eff565b90506118088260400151836060015161271a565b6118129082612e48565b336000818152600c602090815260408083208751845282528083208d845282528083208381556001810184905560028101849055600380820185905560048201859055600582018590556006909101849055938352600d82528083208e8452909152812092935091908a90811061188b5761188b612e68565b01819055506118b182608001518a620f424085606001518660400151610bb69190612ddc565b6000898152600b60209081526040822060050180546001810182559083529120429101556118de8961221c565b600081126118f357806118f13382611ccc565b505b815160405189815233907fdd1bdc77e3cc244141600de256428e5a4fa93f9ba200229891d49111390692229060200160405180910390a3815160405182919033907f753ff5afc7647ecd155d0b263a97dddd9f9fcd2a5feef19cdb4f28533cadf86990600090a450506119666001600055565b50505050505050565b60606000600a5467ffffffffffffffff81111561198e5761198e612f6f565b6040519080825280602002602001820160405280156119c157816020015b60608152602001906001900390816119ac5790505b50905060005b600a54811015611a9b576000818152600b6020526040902060060180546119ed90612d92565b80601f0160208091040260200160405190810160405280929190818152602001828054611a1990612d92565b8015611a665780601f10611a3b57610100808354040283529160200191611a66565b820191906000526020600020905b815481529060010190602001808311611a4957829003601f168201915b5050505050828281518110611a7d57611a7d612e68565b60200260200101819052508080611a939061305b565b9150506119c7565b50919050565b611aa9611bda565b600481905560408051338152602081018390527fc9efb4e68e13bfdb30aeb0a7d43fae359a9de193cf2b71a9e35a287078a1ffe2910160405180910390a150565b611af2611bda565b6001600160a01b038116611b575760405162461bcd60e51b815260206004820152602660248201527f4f776e61626c653a206e6577206f776e657220697320746865207a65726f206160448201526564647265737360d01b6064820152608401610d24565b61112781612455565b611b68611bda565b6008819055604051819033907fbb9bc6316da017b8faa91999773f59fe52449c5bc016cee9ba81e12133b8c3fc90600090a350565b611ba5611bda565b6007819055604051819033907faca235ebf6db7deecaf2994795c8d532afd1b2bec396708e78d8971f854e7d9990600090a350565b6001546001600160a01b0316331461113c5760405162461bcd60e51b815260206004820181905260248201527f4f776e61626c653a2063616c6c6572206973206e6f7420746865206f776e65726044820152606401610d24565b6000805b6003811015611a9b57828160038110611c5357611c53612e68565b0154611c5f9083612e7e565b915080611c6b8161305b565b915050611c38565b600260005403611cc55760405162461bcd60e51b815260206004820152601f60248201527f5265656e7472616e637947756172643a207265656e7472616e742063616c6c006044820152606401610d24565b6002600055565b6003546040516323b872dd60e01b81526001600160a01b0384811660048301523060248301526044820184905260009216906323b872dd9060640161117e565b6000611d18868661271a565b611d229087612e48565b6001600160a01b0389166000908152600d602090815260408083208b8452909152812091925090611d5290612753565b6001600160a01b038a166000908152600d602090815260408083208c845290915290209091506001908260038110611d8c57611d8c612e68565b0155611db28589620f4240611da18a87612ddc565b611dab9190612e0c565b60016120fc565b6000888152600b6020908152604082206005018054600181018255908352912042910155611ddf8861221c565b6000611dec85858b610d43565b90506000611dfc87836000612791565b60070b90506040518060e001604052808b8152602001828152602001858152602001898152602001888152602001836060015181526020016001600b60008e815260200190815260200160002060050180549050611e5a9190613096565b90526001600160a01b038c166000818152600c602090815260408083208f84528252808320888452825280832085518155918501516001830155848101516002830155606085015160038301556080850151600483015560a0850151600583015560c090940151600690910155915185928d92917f06815e86fb14e66bb1dc3a385520944e53d97411395ddb32ef15afe1178191fd9190a45050505050505050505050565b600080611f1184848860000151610d43565b90506000611f298888600001518960800151896124a7565b905060006064610e10611f42620f424062989680612ddc565b611f4c9190612ddc565b611f569190612ddc565b60648960a0015142611f689190613096565b60408b015160608c0151611f7c9087612ddc565b611f869190612ddc565b611f909190612ddc565b611f9a9190612ddc565b611fa49190612e0c565b9050600080611fb98a60800151866001612791565b60070b8a60200151611fcb9190612e48565b60405190915081907f7ffc13b25ce79fee35573354594e873bbe43761fc8ba593ed828116ab2a4523d90600090a2896080015160000361205e57620f42408a602001518b60400151838d606001516120239190612ddc565b61202d9190612ddc565b6120379190612e0c565b6120419190612e0c565b838b604001516120519190612e48565b61205b9190612e48565b91505b89608001516001036120c357620f42408a602001518b60400151838d606001516120889190612ddc565b6120929190612ddc565b61209c9190612e0c565b6120a69190612e0c565b838b604001516120b69190612e48565b6120c091906130a9565b91505b60405182907f516ea507b82ab198d7e651c9242f8a7aa3f5eabc5f35c803a27394c57cd8b24390600090a2509998505050505050505050565b8360000361215d578015612136576000838152600b60205260408120600201805484929061212b9084906130a9565b9091555061215d9050565b6000838152600b602052604081206002018054849290612157908490612e48565b90915550505b836001036121be578015612197576000838152600b60205260408120600101805484929061218c9084906130a9565b909155506121be9050565b6000838152600b6020526040812060010180548492906121b8908490612e48565b90915550505b6000838152600b602052604090819020600281015460019091015491517f942bc6d740ed3e211cd49465dc53eaab030a9245f4c31b365d2e355fa20b2e429261220e928252602082015260400190565b60405180910390a150505050565b6000818152600b602052604081206002015415801561224a57506000828152600b6020526040902060010154155b1561228e576000828152600b6020526040812061226c9160059091019061289a565b6000828152600b602052604081206122899160049091019061289a565b6123ed565b6000828152600b602052604081206002015490036122e9576000828152600b6020526040902060038101546001909101546007546122ce90600019612ddc565b6122d89190612ddc565b6122e29190612e0c565b90506123ed565b6000828152600b60205260408120600101549003612327576000828152600b6020526040902060038101546002909101546007546122d89190612ddc565b6000828152600b60205260409020600181810154600290920154909161234c91612e0c565b1315612378576000828152600b6020526040902060018101546002909101546006546122d89190612ddc565b6000828152600b60205260409020600181810154600290920154909161239d91612e0c565b12156123cb576000828152600b6020526040902060028101546001909101546006546122ce90600019612ddc565b6000828152600b602052604090206001810154600290910154036123ed575060005b6000828152600b60209081526040808320600401805460018101825581855292842090920184905591849052905183917f9b6e0867c2485b2217b074bced73d5217ac7fca2d555047bdf3c9b5016a43f3e9161244991906130d1565b60405180910390a25050565b600180546001600160a01b038381166001600160a01b0319831681179093556040519116919082907f8be0079c531659141344cd1fd0a4f28419497f9722a3daafe3b4186f6b6457e090600090a35050565b6000838152600b60209081526040808320600501546001600160a01b0388168452600c8352818420878552835281842085855290925282206006015482815b6000888152600b602052604090206005015461250490600190613096565b8110156125d2576000888152600b6020526040902060050180548290811061252e5761252e612e68565b60009182526020808320909101548a8352600b9091526040909120600501612557836001612e7e565b8154811061256757612567612e68565b906000526020600020015461257c9190613096565b6000898152600b6020526040902060040180548390811061259f5761259f612e68565b90600052602060002001546125b49190612ddc565b6125be90836130a9565b9150806125ca8161305b565b9150506124e6565b506000878152600b602052604090206005016125ef600185613096565b815481106125ff576125ff612e68565b9060005260206000200154426126159190613096565b6000888152600b60205260409020600401612631600186613096565b8154811061264157612641612e68565b90600052602060002001546126569190612ddc565b61266090826130a9565b6000888152600b60205260408120600501805492935090918490811061268857612688612e68565b90600052602060002001544261269e9190613096565b6000898152600b60205260409020600501546126bb908590613096565b6126c59190612ddc565b6126cf9083612e0c565b90506000876000036126f657816005546126e991906130a9565b9550612712945050505050565b8760010361270c57816005546126e99190612e48565b50505050505b949350505050565b600080620f424061272b8486612ddc565b6127359190612e0c565b905062989680600454826127499190612ddc565b6127129190612e0c565b6000805b6003811015611a9b5782816003811061277257612772612e68565b015460000361277f578091505b806127898161305b565b915050612757565b600080841580156127a0575082155b156127bd57602084015184516127b69190613118565b9050612712565b841580156127cb5750826001145b156127e157602084015184516127b69190613147565b8460011480156127ef575082155b1561280557602084015184516127b69190613147565b60208401518451610ec69190613118565b60405180606001604052806003906020820280368337509192915050565b604051806101e00160405280600f905b6128846040518060e00160405280600081526020016000815260200160008152602001600081526020016000815260200160008152602001600081525090565b8152602001906001900390816128445790505090565b508054600082559060005260206000209081019061112791905b808211156128c857600081556001016128b4565b5090565b6000602082840312156128de57600080fd5b5035919050565b6001600160a01b038116811461112757600080fd5b6000806040838503121561290d57600080fd5b8235612918816128e5565b946020939093013593505050565b60608101818360005b600381101561294e57815183526020928301929091019060010161292f565b50505092915050565b600081518084526020808501945080840160005b838110156129875781518752958201959082019060010161296b565b509495945050505050565b6000815180845260005b818110156129b85760208185018101518683018201520161299c565b506000602082860101526020601f19601f83011685010191505092915050565b6000602080835261010083018451828501528185015160408501526040850151606085015260608501516080850152608085015160e060a0860152818151808452610120870191508483019350600092505b80831015612a4a5783518252928401926001929092019190840190612a2a565b5060a08701519350601f199250828682030160c0870152612a6b8185612957565b9350505060c0850151818584030160e0860152612a888382612992565b9695505050505050565b600060208284031215612aa457600080fd5b8135612aaf816128e5565b9392505050565b60008083601f840112612ac857600080fd5b50813567ffffffffffffffff811115612ae057600080fd5b6020830191508360208260051b8501011115612afb57600080fd5b9250929050565b60008060008060008060a08789031215612b1b57600080fd5b86359550602087013594506040870135935060608701359250608087013567ffffffffffffffff811115612b4e57600080fd5b612b5a89828a01612ab6565b979a9699509497509295939492505050565b600080600080600060808688031215612b8457600080fd5b8535612b8f816128e5565b94506020860135935060408601359250606086013567ffffffffffffffff811115612bb957600080fd5b612bc588828901612ab6565b969995985093965092949392505050565b600080600060408486031215612beb57600080fd5b833567ffffffffffffffff811115612c0257600080fd5b612c0e86828701612ab6565b909790965060209590950135949350505050565b805182526020810151602083015260408101516040830152606081015160608301526080810151608083015260a081015160a083015260c081015160c08301525050565b610d208101818360005b600f81101561294e57612c84838351612c22565b60e0929092019160209190910190600101612c70565b600080600060608486031215612caf57600080fd5b8335612cba816128e5565b95602085013595506040909401359392505050565b60e081016105998284612c22565b60008060008060608587031215612cf357600080fd5b8435935060208501359250604085013567ffffffffffffffff811115612d1857600080fd5b612d2487828801612ab6565b95989497509550505050565b6000602080830181845280855180835260408601915060408160051b870101925083870160005b82811015612d8557603f19888603018452612d73858351612992565b94509285019290850190600101612d57565b5092979650505050505050565b600181811c90821680612da657607f821691505b602082108103611a9b57634e487b7160e01b600052602260045260246000fd5b634e487b7160e01b600052601160045260246000fd5b80820260008212600160ff1b84141615612df857612df8612dc6565b818105831482151761059957610599612dc6565b600082612e2957634e487b7160e01b600052601260045260246000fd5b600160ff1b821460001984141615612e4357612e43612dc6565b500590565b8181036000831280158383131683831282161715610ffd57610ffd612dc6565b634e487b7160e01b600052603260045260246000fd5b8082018082111561059957610599612dc6565b81835281816020850137506000828201602090810191909152601f909101601f19169091010190565b60208082528181018390526000906040600585901b8401810190840186845b87811015612f4957868403603f190183528135368a9003601e19018112612eff57600080fd5b8901858101903567ffffffffffffffff811115612f1b57600080fd5b803603821315612f2a57600080fd5b612f35868284612e91565b955050509184019190840190600101612ed9565b5091979650505050505050565b600060208284031215612f6857600080fd5b5051919050565b634e487b7160e01b600052604160045260246000fd5b805167ffffffffffffffff81168114612f9d57600080fd5b919050565b8051600381900b8114612f9d57600080fd5b600060808284031215612fc657600080fd5b6040516080810181811067ffffffffffffffff82111715612ff757634e487b7160e01b600052604160045260246000fd5b6040528251600781900b811461300c57600080fd5b815261301a60208401612f85565b602082015261302b60408401612fa2565b6040820152606083015160608201528091505092915050565b808202811582820484141761059957610599612dc6565b60006001820161306d5761306d612dc6565b5060010190565b60006020828403121561308657600080fd5b81518015158114612aaf57600080fd5b8181038181111561059957610599612dc6565b80820182811260008312801582168215821617156130c9576130c9612dc6565b505092915050565b6020808252825482820181905260008481528281209092916040850190845b8181101561310c578354835260019384019392850192016130f0565b50909695505050505050565b600781810b9083900b01677fffffffffffffff8113677fffffffffffffff198212171561059957610599612dc6565b600782810b9082900b03677fffffffffffffff198112677fffffffffffffff8213171561059957610599612dc656fea26469706673582212202041d73c2d5258e10a0630d92ff5475cea8c5b35f227fc0e522de57ae4668f8a64736f6c63430008130033",
    "linkReferences": {}
  },
  "methodIdentifiers": {
    "getAllUserOpenTrades(address)": "50c3cdc3",
    "getAssetPairDetails(uint256)": "1b5042ac",
    "getAssetPairIndexSymbol()": "ee9387de",
    "getCurrentBorrowRate(uint256)": "b8a077a5",
    "getPythPriceFeedAddress()": "c01646cb",
    "getTokenCollateralAddress()": "fa794403",
    "getTotalLongAmount(uint256)": "a829f21d",
    "getTotalShortAmount(uint256)": "0188d579",
    "getTradingPairCurrentPrice(bytes[],uint256)": "4fae32e7",
    "getUserLiquidationPrice(address,uint256,uint256)": "ca3e8257",
    "getUserOpenTradesForAsset(address,uint256)": "061ff1f0",
    "getUserTradingPositionDetails(address,uint256,uint256)": "b0a88075",
    "liquidateUser(address,uint256,uint256,bytes[])": "4c70fb6d",
    "marketOrder(uint256,int256,int256,uint256,bytes[])": "37855bb7",
    "orderClose(uint256,uint256,bytes[])": "d928e336",
    "owner()": "8da5cb5b",
    "renounceOwnership()": "715018a6",
    "setBaseBorrowFeePercentage(int256)": "ab48a23a",
    "setMaxBorrowInterestRate(int256)": "fc5dac38",
    "setMinTradeSize(int256)": "fb8fbe1f",
    "setOpeningFee(int256)": "eee2b676",
    "setVariableBorrowFeePercentage(int256)": "d6ef8f82",
    "transferOwnership(address)": "f2fde38b",
    "withdrawBotRewards()": "6698f988",
    "withdrawErc20Token(address,uint256)": "9ed6b920",
    "withdrawEth(address)": "25e16063"
  },
  "id": 34
}