{
  "abi": [
    {
      "inputs": [
        {
          "internalType": "address",
          "name": "pythPriceFeedAddress",
          "type": "address"
        },
        {
          "internalType": "address",
          "name": "tokenCollateralAddress",
          "type": "address"
        },
        {
          "internalType": "uint256",
          "name": "openFeePercentage",
          "type": "uint256"
        },
        {
          "internalType": "uint256",
          "name": "closingFeePercentage",
          "type": "uint256"
        },
        {
          "internalType": "uint256",
          "name": "baseBorrowFeePercentage",
          "type": "uint256"
        },
        {
          "internalType": "bytes32[]",
          "name": "pairPriceFeedAddressId",
          "type": "bytes32[]"
        },
        {
          "internalType": "uint256[]",
          "name": "pairIndex",
          "type": "uint256[]"
        },
        {
          "internalType": "string[]",
          "name": "pairSymbol",
          "type": "string[]"
        }
      ],
      "stateMutability": "nonpayable",
      "type": "constructor"
    },
    {
      "inputs": [],
      "name": "OrderBook__InvalidOrderType",
      "type": "error"
    },
    {
      "inputs": [],
      "name": "OrderBook__InvalidTradingPair",
      "type": "error"
    },
    {
      "inputs": [],
      "name": "OrderBook__MaxLeverageIs150",
      "type": "error"
    },
    {
      "inputs": [],
      "name": "OrderBook__MaxNumberOfOpenTrades3Reached",
      "type": "error"
    },
    {
      "inputs": [],
      "name": "OrderBook__NeedsMoreThanZero",
      "type": "error"
    },
    {
      "inputs": [],
      "name": "OrderBook__ParameterArraysMustBeTheSameLength",
      "type": "error"
    },
    {
      "inputs": [],
      "name": "OrderBook__TransferFailed",
      "type": "error"
    },
    {
      "inputs": [],
      "name": "OrderBook__UserClosingNonExistingPosition",
      "type": "error"
    },
    {
      "inputs": [],
      "name": "OrderBook__UserPositionNotOpenForLiquidation",
      "type": "error"
    },
    {
      "anonymous": false,
      "inputs": [
        {
          "indexed": true,
          "internalType": "address",
          "name": "user",
          "type": "address"
        },
        {
          "indexed": true,
          "internalType": "uint256",
          "name": "pairIndex",
          "type": "uint256"
        }
      ],
      "name": "MarketTrade",
      "type": "event"
    },
    {
      "anonymous": false,
      "inputs": [
        {
          "indexed": true,
          "internalType": "address",
          "name": "user",
          "type": "address"
        },
        {
          "indexed": true,
          "internalType": "uint256",
          "name": "pairIndex",
          "type": "uint256"
        },
        {
          "indexed": true,
          "internalType": "int256",
          "name": "userPNL",
          "type": "int256"
        }
      ],
      "name": "OrderClosed",
      "type": "event"
    },
    {
      "anonymous": false,
      "inputs": [
        {
          "indexed": true,
          "internalType": "address",
          "name": "previousOwner",
          "type": "address"
        },
        {
          "indexed": true,
          "internalType": "address",
          "name": "newOwner",
          "type": "address"
        }
      ],
      "name": "OwnershipTransferred",
      "type": "event"
    },
    {
      "anonymous": false,
      "inputs": [
        {
          "indexed": true,
          "internalType": "address",
          "name": "user",
          "type": "address"
        },
        {
          "indexed": false,
          "internalType": "uint256",
          "name": "pairIndex",
          "type": "uint256"
        },
        {
          "indexed": false,
          "internalType": "int256",
          "name": "userPNL",
          "type": "int256"
        }
      ],
      "name": "UserLiquidated",
      "type": "event"
    },
    {
      "inputs": [
        {
          "internalType": "uint256",
          "name": "pairIndex",
          "type": "uint256"
        }
      ],
      "name": "getAssetPairDetails",
      "outputs": [
        {
          "components": [
            {
              "internalType": "bytes32",
              "name": "pythPriceFeedAddress",
              "type": "bytes32"
            },
            {
              "internalType": "uint256",
              "name": "assetTotalShorts",
              "type": "uint256"
            },
            {
              "internalType": "uint256",
              "name": "assetTotalLongs",
              "type": "uint256"
            },
            {
              "internalType": "uint256[]",
              "name": "longShortRatio",
              "type": "uint256[]"
            },
            {
              "internalType": "uint256[]",
              "name": "time",
              "type": "uint256[]"
            },
            {
              "internalType": "string",
              "name": "pairSymbol",
              "type": "string"
            }
          ],
          "internalType": "struct OrderBook.AssetPairDetails",
          "name": "",
          "type": "tuple"
        }
      ],
      "stateMutability": "view",
      "type": "function"
    },
    {
      "inputs": [],
      "name": "getAssetPairIndexSymbol",
      "outputs": [
        {
          "internalType": "string[]",
          "name": "",
          "type": "string[]"
        }
      ],
      "stateMutability": "view",
      "type": "function"
    },
    {
      "inputs": [
        {
          "internalType": "uint256",
          "name": "pairIndex",
          "type": "uint256"
        }
      ],
      "name": "getTotalLongAmount",
      "outputs": [
        {
          "internalType": "uint256",
          "name": "",
          "type": "uint256"
        }
      ],
      "stateMutability": "view",
      "type": "function"
    },
    {
      "inputs": [
        {
          "internalType": "uint256",
          "name": "pairIndex",
          "type": "uint256"
        }
      ],
      "name": "getTotalShortAmount",
      "outputs": [
        {
          "internalType": "uint256",
          "name": "",
          "type": "uint256"
        }
      ],
      "stateMutability": "view",
      "type": "function"
    },
    {
      "inputs": [
        {
          "internalType": "bytes[]",
          "name": "priceUpdateData",
          "type": "bytes[]"
        },
        {
          "internalType": "uint256",
          "name": "pairIndex",
          "type": "uint256"
        }
      ],
      "name": "getTradingPairCurrentPrice",
      "outputs": [
        {
          "components": [
            {
              "internalType": "int64",
              "name": "price",
              "type": "int64"
            },
            {
              "internalType": "uint64",
              "name": "conf",
              "type": "uint64"
            },
            {
              "internalType": "int32",
              "name": "expo",
              "type": "int32"
            },
            {
              "internalType": "uint256",
              "name": "publishTime",
              "type": "uint256"
            }
          ],
          "internalType": "struct PythStructs.Price",
          "name": "",
          "type": "tuple"
        }
      ],
      "stateMutability": "payable",
      "type": "function"
    },
    {
      "inputs": [
        {
          "internalType": "address",
          "name": "user",
          "type": "address"
        },
        {
          "internalType": "uint256",
          "name": "assetPairIndex",
          "type": "uint256"
        },
        {
          "internalType": "uint256",
          "name": "openTradeIdForPair",
          "type": "uint256"
        }
      ],
      "name": "getUserLiquidationPrice",
      "outputs": [
        {
          "internalType": "int256",
          "name": "liquidationPrice",
          "type": "int256"
        }
      ],
      "stateMutability": "view",
      "type": "function"
    },
    {
      "inputs": [
        {
          "internalType": "address",
          "name": "user",
          "type": "address"
        },
        {
          "internalType": "uint256",
          "name": "pairIndex",
          "type": "uint256"
        }
      ],
      "name": "getUserOpenTradesForAsset",
      "outputs": [
        {
          "internalType": "uint256",
          "name": "",
          "type": "uint256"
        }
      ],
      "stateMutability": "view",
      "type": "function"
    },
    {
      "inputs": [
        {
          "internalType": "address",
          "name": "user",
          "type": "address"
        },
        {
          "internalType": "uint256",
          "name": "tradeIndex",
          "type": "uint256"
        },
        {
          "internalType": "uint256",
          "name": "openTradesIdForPair",
          "type": "uint256"
        }
      ],
      "name": "getUserTradingPositionDetails",
      "outputs": [
        {
          "components": [
            {
              "internalType": "uint256",
              "name": "pairNumber",
              "type": "uint256"
            },
            {
              "internalType": "uint64",
              "name": "openPrice",
              "type": "uint64"
            },
            {
              "internalType": "uint256",
              "name": "collateralAfterFee",
              "type": "uint256"
            },
            {
              "internalType": "uint256",
              "name": "leverage",
              "type": "uint256"
            },
            {
              "internalType": "uint256",
              "name": "longShort",
              "type": "uint256"
            },
            {
              "internalType": "uint256",
              "name": "openTime",
              "type": "uint256"
            },
            {
              "internalType": "uint256",
              "name": "indexBorrowPercentArray",
              "type": "uint256"
            }
          ],
          "internalType": "struct OrderBook.PositionDetails",
          "name": "",
          "type": "tuple"
        }
      ],
      "stateMutability": "view",
      "type": "function"
    },
    {
      "inputs": [
        {
          "internalType": "address",
          "name": "user",
          "type": "address"
        },
        {
          "internalType": "uint256",
          "name": "tradeIndex",
          "type": "uint256"
        },
        {
          "internalType": "uint256",
          "name": "userTradesIdForPair",
          "type": "uint256"
        },
        {
          "internalType": "bytes[]",
          "name": "priceUpdateData",
          "type": "bytes[]"
        }
      ],
      "name": "liquidateUser",
      "outputs": [],
      "stateMutability": "nonpayable",
      "type": "function"
    },
    {
      "inputs": [
        {
          "internalType": "uint256",
          "name": "pairIndex",
          "type": "uint256"
        },
        {
          "internalType": "uint256",
          "name": "amountCollateral",
          "type": "uint256"
        },
        {
          "internalType": "uint256",
          "name": "leverage",
          "type": "uint256"
        },
        {
          "internalType": "uint256",
          "name": "orderType",
          "type": "uint256"
        },
        {
          "internalType": "bytes[]",
          "name": "priceUpdateData",
          "type": "bytes[]"
        }
      ],
      "name": "marketOrder",
      "outputs": [],
      "stateMutability": "payable",
      "type": "function"
    },
    {
      "inputs": [
        {
          "internalType": "uint256",
          "name": "tradeIndex",
          "type": "uint256"
        },
        {
          "internalType": "uint256",
          "name": "userTradesIdForPair",
          "type": "uint256"
        },
        {
          "internalType": "bytes[]",
          "name": "priceUpdateData",
          "type": "bytes[]"
        }
      ],
      "name": "orderClose",
      "outputs": [],
      "stateMutability": "nonpayable",
      "type": "function"
    },
    {
      "inputs": [],
      "name": "owner",
      "outputs": [
        {
          "internalType": "address",
          "name": "",
          "type": "address"
        }
      ],
      "stateMutability": "view",
      "type": "function"
    },
    {
      "inputs": [],
      "name": "renounceOwnership",
      "outputs": [],
      "stateMutability": "nonpayable",
      "type": "function"
    },
    {
      "inputs": [
        {
          "internalType": "address",
          "name": "newOwner",
          "type": "address"
        }
      ],
      "name": "transferOwnership",
      "outputs": [],
      "stateMutability": "nonpayable",
      "type": "function"
    }
  ],
  "bytecode": {
    "object": "0x60806040523480156200001157600080fd5b50604051620023ec380380620023ec8339810160408190526200003491620003d4565b6001600055620000443362000178565b8151835114620000675760405163f102e13760e01b815260040160405180910390fd5b80518251146200008a5760405163f102e13760e01b815260040160405180910390fd5b600380546001600160a01b03808a166001600160a01b031992831617909255600488905560058790556006869055845160075560028054928b169290911691909117905560005b83518110156200016957838181518110620000f057620000f0620004aa565b60200260200101516008600083815260200190815260200160002060000181905550818181518110620001275762000127620004aa565b60200260200101516008600083815260200190815260200160002060050190816200015391906200054f565b508062000160816200061b565b915050620000d1565b50505050505050505062000643565b600180546001600160a01b038381166001600160a01b0319831681179093556040519116919082907f8be0079c531659141344cd1fd0a4f28419497f9722a3daafe3b4186f6b6457e090600090a35050565b80516001600160a01b0381168114620001e257600080fd5b919050565b634e487b7160e01b600052604160045260246000fd5b604051601f8201601f191681016001600160401b0381118282101715620002285762000228620001e7565b604052919050565b60006001600160401b038211156200024c576200024c620001e7565b5060051b60200190565b600082601f8301126200026857600080fd5b81516020620002816200027b8362000230565b620001fd565b82815260059290921b84018101918181019086841115620002a157600080fd5b8286015b84811015620002be5780518352918301918301620002a5565b509695505050505050565b6000601f8381840112620002dc57600080fd5b82516020620002ef6200027b8362000230565b82815260059290921b850181019181810190878411156200030f57600080fd5b8287015b84811015620003c85780516001600160401b0380821115620003355760008081fd5b818a0191508a603f8301126200034b5760008081fd5b8582015181811115620003625762000362620001e7565b62000375818a01601f19168801620001fd565b915080825260408c818386010111156200038f5760008081fd5b60005b82811015620003af578481018201518482018a0152880162000392565b5050600090820187015284525091830191830162000313565b50979650505050505050565b600080600080600080600080610100898b031215620003f257600080fd5b620003fd89620001ca565b97506200040d60208a01620001ca565b60408a015160608b015160808c015160a08d0151939a50919850965094506001600160401b03808211156200044157600080fd5b6200044f8c838d0162000256565b945060c08b01519150808211156200046657600080fd5b620004748c838d0162000256565b935060e08b01519150808211156200048b57600080fd5b506200049a8b828c01620002c9565b9150509295985092959890939650565b634e487b7160e01b600052603260045260246000fd5b600181811c90821680620004d557607f821691505b602082108103620004f657634e487b7160e01b600052602260045260246000fd5b50919050565b601f8211156200054a57600081815260208120601f850160051c81016020861015620005255750805b601f850160051c820191505b81811015620005465782815560010162000531565b5050505b505050565b81516001600160401b038111156200056b576200056b620001e7565b62000583816200057c8454620004c0565b84620004fc565b602080601f831160018114620005bb5760008415620005a25750858301515b600019600386901b1c1916600185901b17855562000546565b600085815260208120601f198616915b82811015620005ec57888601518255948401946001909101908401620005cb565b50858210156200060b5787850151600019600388901b60f8161c191681555b5050505050600190811b01905550565b6000600182016200063c57634e487b7160e01b600052601160045260246000fd5b5060010190565b611d9980620006536000396000f3fe6080604052600436106100dd5760003560e01c80638da5cb5b1161007f578063ca3e825711610059578063ca3e8257146102e8578063d928e33614610308578063ee9387de14610328578063f2fde38b1461034a57600080fd5b80638da5cb5b14610211578063a829f21d14610239578063b0a880751461026957600080fd5b80634c70fb6d116100bb5780634c70fb6d146101725780634fae32e7146101945780636719fe6e146101e9578063715018a6146101fc57600080fd5b80630188d579146100e2578063061ff1f0146101255780631b5042ac14610145575b600080fd5b3480156100ee57600080fd5b506101126100fd366004611677565b60009081526008602052604090206001015490565b6040519081526020015b60405180910390f35b34801561013157600080fd5b506101126101403660046116ac565b61036a565b34801561015157600080fd5b50610165610160366004611677565b610395565b60405161011c9190611757565b34801561017e57600080fd5b5061019261018d366004611821565b61054a565b005b6101a76101a2366004611888565b61074a565b60405161011c9190815160070b81526020808301516001600160401b03169082015260408083015160030b908201526060918201519181019190915260800190565b6101926101f73660046118d3565b6108d8565b34801561020857600080fd5b50610192610a26565b34801561021d57600080fd5b506001546040516001600160a01b03909116815260200161011c565b34801561024557600080fd5b50610112610254366004611677565b60009081526008602052604090206002015490565b34801561027557600080fd5b5061028961028436600461193c565b610a3a565b60405161011c9190600060e082019050825182526001600160401b03602084015116602083015260408301516040830152606083015160608301526080830151608083015260a083015160a083015260c083015160c083015292915050565b3480156102f457600080fd5b5061011261030336600461193c565b610b0a565b34801561031457600080fd5b5061019261032336600461196f565b610c6c565b34801561033457600080fd5b5061033d610e26565b60405161011c91906119c1565b34801561035657600080fd5b50610192610365366004611a23565b610f06565b6001600160a01b0382166000908152600a602090815260408083208484529091529020545b92915050565b6103d16040518060c001604052806000801916815260200160008152602001600081526020016060815260200160608152602001606081525090565b600082815260086020908152604091829020825160c08101845281548152600182015481840152600282015481850152600382018054855181860281018601909652808652919492936060860193929083018282801561045057602002820191906000526020600020905b81548152602001906001019080831161043c575b50505050508152602001600482018054806020026020016040519081016040528092919081815260200182805480156104a857602002820191906000526020600020905b815481526020019060010190808311610494575b505050505081526020016005820180546104c190611a3e565b80601f01602080910402602001604051908101604052809291908181526020018280546104ed90611a3e565b801561053a5780601f1061050f5761010080835404028352916020019161053a565b820191906000526020600020905b81548152906001019060200180831161051d57829003601f168201915b5050505050815250509050919050565b6001600160a01b038516600090815260096020908152604080832087845282528083208684529091528120600101548691869186916001600160401b0390911690036105a957604051638177d6b960e01b815260040160405180910390fd5b6105b1610f84565b6001600160a01b03881660009081526009602090815260408083208a845282528083208984528252808320815160e0810183528154815260018201546001600160401b0316938101939093526002810154918301919091526003810154606083015260048101546080830152600581015460a08301526006015460c08201529061063e33838a8a8a610fdd565b90506000811361071b576001600160a01b038a1660008181526009602090815260408083208651845282528083208c8452825280832083815560018101805467ffffffffffffffff1916905560028101849055600381018490556004810184905560058101849055600601839055928252600a81528282208551835290529081208054916106cb83611a88565b9091555050815160408051918252602082018390526001600160a01b038c16917f7b53f2d174e631910484a595481b3fa1241c3898438889011e61f81437492760910160405180910390a2610734565b60405163ae945bf560e01b815260040160405180910390fd5b50506107406001600055565b5050505050505050565b60408051608081018252600080825260208201819052918101829052606081019190915260025460405163d47eed4560e01b81526000916001600160a01b03169063d47eed45906107a19088908890600401611ac8565b602060405180830381865afa1580156107be573d6000803e3d6000fd5b505050506040513d601f19601f820116820180604052508101906107e29190611b63565b600254604051631df3cbc560e31b81529192506001600160a01b03169063ef9e5e289083906108179089908990600401611ac8565b6000604051808303818588803b15801561083057600080fd5b505af1158015610844573d6000803e3d6000fd5b5050600254600087815260086020526040908190205490516331d98b3f60e01b81526001600160a01b0390921694506331d98b3f935061088c92509060040190815260200190565b608060405180830381865afa1580156108a9573d6000803e3d6000fd5b505050506040513d601f19601f820116820180604052508101906108cd9190611ba5565b9150505b9392505050565b84848115806108e5575080155b1561090357604051637018737760e11b815260040160405180910390fd5b60008881526008602052604081205489910361093157604051621bca5160e61b815260040160405180910390fd5b336000818152600a602090815260408083208d84529091529020548a9060031161096e576040516306152e2f60e11b815260040160405180910390fd5b88609681111561099157604051635694d08560e11b815260040160405180910390fd5b88801515806109a1575080600114155b156109bf576040516302763ae360e11b815260040160405180910390fd5b6109c7610f84565b6109d1338d611120565b6109e0338e8e8e8e8e8e6111c3565b6040518d9033907f02c61321c808585dc6593befb37f9909ee37888b439a1990c568e475dddb765590600090a3610a176001600055565b50505050505050505050505050565b610a2e61139a565b610a3860006113f4565b565b610a836040518060e001604052806000815260200160006001600160401b0316815260200160008152602001600081526020016000815260200160008152602001600081525090565b506001600160a01b03929092166000908152600960209081526040808320938352928152828220938252928352819020815160e0810183528154815260018201546001600160401b0316938101939093526002810154918301919091526003810154606083015260048101546080830152600581015460a08301526006015460c082015290565b6001600160a01b038316600090815260096020908152604080832085845282528083208484528252808320815160e0810183528154815260018201546001600160401b0316938101939093526002810154918301919091526003810154606083015260048101546080830152600581015460a08301526006015460c082015281610b95868686611446565b9050600082606001518360400151610bad9190611c34565b60a0840151610bbc9042611c4b565b610bc69084611c5e565b610bd09190611c5e565b90508260800151600003610c1f578083602001516001600160401b0316610bf79190611c8e565b83606001518460400151610c0b9190611cb5565b610c159190611c8e565b93505050506108d1565b8260800151600103610c62578083602001516001600160401b0316610c449190611c8e565b83606001518460400151610c589190611cb5565b610c159190611cd7565b5050509392505050565b3360008181526009602090815260408083208884528252808320878452909152812060010154869186916001600160401b03169003610cbe57604051638177d6b960e01b815260040160405180910390fd5b610cc6610f84565b3360008181526009602090815260408083208b845282528083208a84528252808320815160e0810183528154815260018201546001600160401b0316938101939093526002810154918301919091526003810154606083015260048101546080830152600581015460a08301526006015460c082015291610d4a90838a8a8a610fdd565b3360008181526009602090815260408083208751845282528083208d8452825280832083815560018101805467ffffffffffffffff1916905560028101849055600381018490556004810184905560058101849055600601839055928252600a8152828220865183529052908120805492935090610dc783611a88565b919050555060008112610de15780610ddf3382611120565b505b815160405182919033907f0aeb415d14b250a0912d0b18da299753b6ff90cbeb9fa65f2d75b0dd3fe712b290600090a45050610e1d6001600055565b50505050505050565b60608060005b600754811015610f005760008181526008602052604090206005018054610e5290611a3e565b80601f0160208091040260200160405190810160405280929190818152602001828054610e7e90611a3e565b8015610ecb5780601f10610ea057610100808354040283529160200191610ecb565b820191906000526020600020905b815481529060010190602001808311610eae57829003601f168201915b5050505050828281518110610ee257610ee2611cff565b60200260200101819052508080610ef890611d15565b915050610e2c565b50919050565b610f0e61139a565b6001600160a01b038116610f785760405162461bcd60e51b815260206004820152602660248201527f4f776e61626c653a206e6577206f776e657220697320746865207a65726f206160448201526564647265737360d01b60648201526084015b60405180910390fd5b610f81816113f4565b50565b600260005403610fd65760405162461bcd60e51b815260206004820152601f60248201527f5265656e7472616e637947756172643a207265656e7472616e742063616c6c006044820152606401610f6f565b6002600055565b600080610fef8484886000015161074a565b9050600061100288886000015188611446565b905060008760a00151426110169190611c4b565b604089015160608a015161102a9085611c5e565b6110349190611c5e565b61103e9190611c5e565b9050600080846000015160070b8a602001516001600160401b03166110639190611c8e565b905089608001516000036110ad578960400151818b606001516110869190611c5e565b6110909190611c5e565b838b604001516110a09190611c8e565b6110aa9190611c8e565b91505b89608001516001036110f5578960400151818b606001516110ce9190611c5e565b6110d89190611c5e565b838b604001516110e89190611c8e565b6110f29190611cd7565b91505b6111078a604001518b606001516115e2565b6111119083611c8e565b9b9a5050505050505050505050565b6003546040516323b872dd60e01b81526001600160a01b0384811660048301523060248301526044820184905260009216906323b872dd906064016020604051808303816000875af115801561117a573d6000803e3d6000fd5b505050506040513d601f19601f8201168201806040525081019061119e9190611d2e565b9050806111be57604051630c74658f60e01b815260040160405180910390fd5b505050565b60006111cf86866115e2565b6111d99087611c4b565b6001600160a01b0389166000908152600a602090815260408083208b8452909152812080549293509061120b83611d15565b90915550611225905084886112208885611c34565b611615565b60008781526008602090815260408220600481018054600181810183559185529284204293019290925591899052810154600282015460039092019161126b9190611cb5565b8154600181018355600092835260208320015561128984848a61074a565b90506040518060e0016040528089815260200182600001516001600160401b03168152602001838152602001878152602001868152602001826060015181526020016001600860008c8152602001908152602001600020600401805490506112f19190611c4b565b90526001600160a01b039990991660008181526009602090815260408083208c84528252808320938352600a82528083209b83529a81528a82205482529182528990208a518155908a015160018201805467ffffffffffffffff19166001600160401b0390921691909117905597890151600289015550505060608601516003860155505050608083015160048301555060a0820151600582015560c090910151600690910155565b6001546001600160a01b03163314610a385760405162461bcd60e51b815260206004820181905260248201527f4f776e61626c653a2063616c6c6572206973206e6f7420746865206f776e65726044820152606401610f6f565b600180546001600160a01b038381166001600160a01b0319831681179093556040519116919082907f8be0079c531659141344cd1fd0a4f28419497f9722a3daafe3b4186f6b6457e090600090a35050565b60008060005b60008581526008602052604090206004015481101561152c57600085815260086020526040902060040180548290811061148857611488611cff565b6000918252602080832090910154878352600890915260409091206004016114b1836001611d50565b815481106114c1576114c1611cff565b90600052602060002001546114d69190611c4b565b60008681526008602052604090206003018054839081106114f9576114f9611cff565b906000526020600020015461150e9190611c34565b6115189083611d50565b91508061152481611d15565b91505061144c565b506000848152600860205260408120600401546115499083611cb5565b6001600160a01b038716600090815260096020908152604080832089845282528083208884529091528120600401549192508190036115a75761158d826001611c4b565b60065461159a9190611c34565b600654610c159190611c4b565b806001036115d4576115ba826001611c4b565b6006546115c79190611c34565b600654610c159190611d50565b505060065495945050505050565b6000806115ef8385611c34565b9050620f4240600454826116039190611c34565b61160d9190611cb5565b949350505050565b82600003611644576000828152600860205260408120600201805483929061163e908490611d50565b90915550505b826001036111be576000828152600860205260408120600101805483929061166d908490611d50565b9091555050505050565b60006020828403121561168957600080fd5b5035919050565b80356001600160a01b03811681146116a757600080fd5b919050565b600080604083850312156116bf57600080fd5b6116c883611690565b946020939093013593505050565b600081518084526020808501945080840160005b83811015611706578151875295820195908201906001016116ea565b509495945050505050565b6000815180845260005b818110156117375760208185018101518683018201520161171b565b506000602082860101526020601f19601f83011685010191505092915050565b602081528151602082015260208201516040820152604082015160608201526000606083015160c0608084015261179160e08401826116d6565b90506080840151601f19808584030160a08601526117af83836116d6565b925060a08601519150808584030160c0860152506117cd8282611711565b95945050505050565b60008083601f8401126117e857600080fd5b5081356001600160401b038111156117ff57600080fd5b6020830191508360208260051b850101111561181a57600080fd5b9250929050565b60008060008060006080868803121561183957600080fd5b61184286611690565b9450602086013593506040860135925060608601356001600160401b0381111561186b57600080fd5b611877888289016117d6565b969995985093965092949392505050565b60008060006040848603121561189d57600080fd5b83356001600160401b038111156118b357600080fd5b6118bf868287016117d6565b909790965060209590950135949350505050565b60008060008060008060a087890312156118ec57600080fd5b8635955060208701359450604087013593506060870135925060808701356001600160401b0381111561191e57600080fd5b61192a89828a016117d6565b979a9699509497509295939492505050565b60008060006060848603121561195157600080fd5b61195a84611690565b95602085013595506040909401359392505050565b6000806000806060858703121561198557600080fd5b843593506020850135925060408501356001600160401b038111156119a957600080fd5b6119b5878288016117d6565b95989497509550505050565b6000602080830181845280855180835260408601915060408160051b870101925083870160005b82811015611a1657603f19888603018452611a04858351611711565b945092850192908501906001016119e8565b5092979650505050505050565b600060208284031215611a3557600080fd5b6108d182611690565b600181811c90821680611a5257607f821691505b602082108103610f0057634e487b7160e01b600052602260045260246000fd5b634e487b7160e01b600052601160045260246000fd5b600081611a9757611a97611a72565b506000190190565b81835281816020850137506000828201602090810191909152601f909101601f19169091010190565b60208082528181018390526000906040600585901b8401810190840186845b87811015611b5657868403603f190183528135368a9003601e19018112611b0d57600080fd5b890185810190356001600160401b03811115611b2857600080fd5b803603821315611b3757600080fd5b611b42868284611a9f565b955050509184019190840190600101611ae7565b5091979650505050505050565b600060208284031215611b7557600080fd5b5051919050565b80516001600160401b03811681146116a757600080fd5b8051600381900b81146116a757600080fd5b600060808284031215611bb757600080fd5b604051608081018181106001600160401b0382111715611be757634e487b7160e01b600052604160045260246000fd5b6040528251600781900b8114611bfc57600080fd5b8152611c0a60208401611b7c565b6020820152611c1b60408401611b93565b6040820152606083015160608201528091505092915050565b808202811582820484141761038f5761038f611a72565b8181038181111561038f5761038f611a72565b80820260008212600160ff1b84141615611c7a57611c7a611a72565b818105831482151761038f5761038f611a72565b8181036000831280158383131683831282161715611cae57611cae611a72565b5092915050565b600082611cd257634e487b7160e01b600052601260045260246000fd5b500490565b8082018281126000831280158216821582161715611cf757611cf7611a72565b505092915050565b634e487b7160e01b600052603260045260246000fd5b600060018201611d2757611d27611a72565b5060010190565b600060208284031215611d4057600080fd5b815180151581146108d157600080fd5b8082018082111561038f5761038f611a7256fea2646970667358221220297e70a5c2d9a1e92ec1bc4cef058ae1e479997867a8b012a28a4514ec4e0eed64736f6c63430008130033",
    "linkReferences": {}
  },
  "methodIdentifiers": {
    "getAssetPairDetails(uint256)": "1b5042ac",
    "getAssetPairIndexSymbol()": "ee9387de",
    "getTotalLongAmount(uint256)": "a829f21d",
    "getTotalShortAmount(uint256)": "0188d579",
    "getTradingPairCurrentPrice(bytes[],uint256)": "4fae32e7",
    "getUserLiquidationPrice(address,uint256,uint256)": "ca3e8257",
    "getUserOpenTradesForAsset(address,uint256)": "061ff1f0",
    "getUserTradingPositionDetails(address,uint256,uint256)": "b0a88075",
    "liquidateUser(address,uint256,uint256,bytes[])": "4c70fb6d",
    "marketOrder(uint256,uint256,uint256,uint256,bytes[])": "6719fe6e",
    "orderClose(uint256,uint256,bytes[])": "d928e336",
    "owner()": "8da5cb5b",
    "renounceOwnership()": "715018a6",
    "transferOwnership(address)": "f2fde38b"
  },
  "id": 7
}